:040000000DEF00F010
:0400080069EFFBF0B1
:10001800FF003BEF05F0000E06010B6F09BF19EF5B
:1000280000F017EF00F01FEF00F0086D091FD8B0BF
:10003800092B010E0B6F07BF26EF00F024EF00F02D
:100048002CEF00F0066D071FD8B0072B010E0B1B15
:10005800000E0D6F000E0C6F08510911D8B437EF60
:1000680000F039EF00F061EF00F0010E0A6F41EF88
:1000780000F0D890083709370A2B09AF46EF00F08F
:1000880048EF00F03DEF00F0D8900C370D370851DD
:10009800065D09510759D8A054EF00F056EF00F05B
:1000A8005BEF00F00851065F0951075B0C81D8909F
:1000B800093308330A2F48EF00F00B51D8B467EF23
:1000C80000F069EF00F06DEF00F00C6D0D1FD8B077
:1000D8000D2B0CC606F60DC607F612000601DFA1A9
:1000E80078EF00F07AEF00F084EF00F015C50CF51A
:1000F80016C50DF513C50EF514C50FF513EC10F064
:1001080018BE89EF00F08BEF00F091EF00F017C5F3
:100118001CF518C51DF595EF00F0000E1D6E000EBC
:100128001C6E000E1B6E000E1A6EA7EF00F0000E7C
:10013800046E200E036E13C505F514C506F523ECF1
:10014800FDF01A4A1B2A1C501A5C1B50800A196EB3
:100158001D50800A1958D8A0B4EF00F0B6EF00F08F
:100168009BEF00F00601DFB1BCEF00F0BEEF00F03E
:10017800C8EF00F015C50CF516C50DF513C50EF53D
:1001880014C50FF513EC10F015C501F516C502F5E9
:1001980092EC0DF01C500124136E1D500220146EB9
:1001A8001200000E066E04BEDEEF00F0DCEF00F079
:1001B800E4EF00F0036C041ED8B0042A010E066EAA
:1001C80002BEEBEF00F0E9EF00F0F1EF00F0016C98
:1001D800021ED8B0022A010E061A000E086E000E82
:1001E800076E03500410D8B4FCEF00F0FEEF00F0E7
:1001F80026EF01F0010E056E06EF01F0D8900336E8
:100208000436052A04AE0BEF01F00DEF01F002EF02
:1002180001F0D890073608360350015C04500258A4
:10022800D8A019EF01F01BEF01F020EF01F0035007
:10023800015E0450025A0780D89004320332052E1A
:100248000DEF01F00650D8B42CEF01F02EEF01F0BD
:1002580032EF01F0076C081ED8B0082A07C501F56F
:1002680008C502F51200D7AE3CEF01F0ECEF04F040
:100278001FEC16F00009D8A444EF01F046EF01F096
:1002880049EF01F0040E92EF01F007012951030B29
:100298000009D8B452EF01F054EF01F066EF01F015
:1002A800010E0601156F07012951030B0601166F90
:1002B8001551165F0701295106011619FC0B16196D
:1002C8000701296F2507D8A0260725512611D8B47C
:1002D80070EF01F072EF01F080EF01F0CCEC17F055
:1002E80061008CFCD9F4610090FCDAF4DF6E070140
:1002F800234B242B46EF01F045EC02F00601176F63
:10030800CCEC17F061008CFCD9F4610090FCDAF4B5
:10031800DF6E0701234B242B060117511200A7900B
:10032800920E0601066FFD0E076F010E086FF9ECBD
:1003380016F0A792CC0E0601066F1E0E076F000E70
:10034800086FF2EC16F0000E0201CB6F000ECD6FB5
:10035800000ECF6FB00ED16F800ED26F000ED36F2C
:10036800440ED46F000ED56F000ED66F000ED76FF7
:10037800000ED86F000ED96F140E0601066F300EEE
:10038800076F000E086F07EC17F0120E0601066FD4
:10039800300E076F000E086F00EC17F0BC0E060158
:1003A800066F2F0E076F000E086F0EEC17F0000E89
:1003B8000601F16F000EF66F000EF56F080EF86F6C
:1003C800000EF46F000EF36F000EF26FA78012009C
:1003D800000E06010B6F07BFF6EF01F0F4EF01F016
:1003E800FCEF01F0066D071FD8B0072B010E0B6F4D
:1003F80009BF03EF02F001EF02F007EF02F0086D0A
:10040800091FD8B0092B08510911D8B40EEF02F012
:1004180010EF02F034EF02F0010E0A6F18EF02F04D
:10042800D890083709370A2B09AF1DEF02F01FEFE4
:1004380002F014EF02F00851065D09510759D8A0DF
:1004480028EF02F02AEF02F02EEF02F00851065FC3
:100458000951075BD890093308330A2F1FEF02F0C0
:100468000B51D8B43AEF02F03CEF02F040EF02F043
:10047800066D071FD8B0072B06C606F607C607F68F
:100488001200D7AE4AEF02F048EF04F007012989BD
:100498006EEF02F0CFEC17F0080E9CEF02F0CFECF5
:1004A80017F0070E9CEF02F0070125294CEC17F016
:1004B800040E9CEF02F0070E07012719D8B467EF66
:1004C80002F069EF02F06BEF02F0D2EC17F00F0EBA
:1004D8009CEF02F012C711F613C712F602D87FEF8D
:1004E80002F00500FA6E0051FD6E0151FE6E0251D8
:1004F800FF6EFA5012000601136F146B1451000AB4
:10050800D8B489EF02F05FEF02F01351010AD8B4B2
:100518005FEF02F0030AD8B453EF02F0010AD8B42F
:100528004EEF02F0070AD8B458EF02F05FEF02F07E
:100538001200000E066E02BEA6EF02F0A4EF02F053
:10054800ACEF02F0016C021ED8B0022A010E066E52
:1005580004BEB3EF02F0B1EF02F0B7EF02F0036CA4
:10056800041ED8B0042A03500410D8B4BEEF02F019
:10057800C0EF02F0E4EF02F0010E056EC8EF02F0E2
:10058800D89003360436052A04AECDEF02F0CFEF3B
:1005980002F0C4EF02F00350015C04500258D8A0E6
:1005A800D8EF02F0DAEF02F0DEEF02F00350015E5E
:1005B8000450025AD89004320332052ECFEF02F0CD
:1005C8000650D8B4EAEF02F0ECEF02F0F0EF02F0D8
:1005D800016C021ED8B0022A01C501F502C502F558
:1005E80012000601066F010E0601076F070129B701
:1005F80000EF03F002EF03F048EF03F006C622F71E
:1006080029952987FC0E29170F0E276F010E216FD8
:10061800F40E206F2989D60E006F2D0E016F000E83
:10062800026F000E126F000E136FD60E036F2D0EA1
:10063800046F000E056F000E146F000E156FD60EB6
:10064800066F2D0E076F000E086F000E166F000E56
:10065800176FD60E096F2D0E0A6F000E0B6F000E66
:10066800186F000E196FC80E0C6F2D0E0D6F000E4F
:100678000E6F000E1A6F000E1B6FA4EC17F01CEC27
:1006880014F0000E0601076F060107511200000E54
:10069800060106150E6F000E07150F6F800E081560
:1006A800106F7F0E0915116F0E510F1110111111D6
:1006B800D8A461EF03F063EF03F06BEF03F0000ED3
:1006C800066F000E076F000E086F000E096F000E10
:1006D8000A150E6F000E0B150F6F800E0C15106F9C
:1006E8007F0E0D15116F0E510F1110111111D8A495
:1006F80080EF03F082EF03F08AEF03F0000E0A6F39
:10070800000E0B6F000E0C6F000E0D6F0A510619CC
:100718000FE10B5107190CE10C51081909E10D51B2
:100728000919D8B49AEF03F09CEF03F09FEF03F098
:10073800D890A0EF03F0D8801200000E0114096EC3
:10074800000E02140A6E800E03140B6E7F0E041442
:100758000C6E09500A100B100C10D8A4B6EF03F059
:10076800B8EF03F0C0EF03F0000E016E000E026E4A
:10077800000E036E000E046E000E0514096E000EC6
:1007880006140A6E800E07140B6E7F0E08140C6E8A
:1007980009500A100B100C10D8A4D5EF03F0D7EFAE
:1007A80003F0DFEF03F0000E056E000E066E000E7C
:1007B800076E000E086E055001180FE1065002186A
:1007C8000CE10750031809E108500418D8B4EFEFFA
:1007D80003F0F1EF03F0F4EF03F0D890F5EF03F036
:1007E800D8801200016E010E026E070129B7FFEFD3
:1007F80003F001EF04F046EF04F001C522F7299554
:100808002987FC0E29170F0E276F010E216FF40E92
:10081800206F29890E0E006F300E016F000E026FD7
:10082800000E126F000E136F0E0E036F300E046F62
:10083800000E056F000E146F000E156F0E0E066F7A
:10084800300E076F000E086F000E166F000E176F40
:100858000E0E096F300E0A6F000E0B6F000E186F28
:10086800000E196F0A0E0C6F300E0D6F000E0E6F12
:10087800000E1A6F000E1B6FB8EC17F031EC14F075
:10088800000E026E02501200070129896CEF04F075
:10089800F0EC17F0080E99EF04F0F0EC17F0070EE3
:1008A80099EF04F00701252991EC17F0040E99EF50
:1008B80004F0070E07012719D8B465EF04F067EFB5
:1008C80004F069EF04F0F3EC17F00F0E99EF04F061
:1008D80012C70CF513C70DF502D87DEF04F005001B
:1008E800FA6E0051FD6E0151FE6E0251FF6EFA5014
:1008F80012000E6E0F6A0F50000AD8B486EF04F08B
:100908005DEF04F00E50010AD8B45DEF04F0030A5D
:10091800D8B451EF04F0010AD8B44CEF04F0070A38
:10092800D8B456EF04F05DEF04F01200000E096E23
:10093800000E0A6E000E0B6E000E0C6E05500610AF
:1009480007100810D8B4ABEF04F0ADEF04F0E3EFF4
:1009580004F0010E0D6EB7EF04F0D8900536063698
:10096800073608360D2A08AEBCEF04F0BEEF04F0D7
:10097800B1EF04F0D89009360A360B360C3605501C
:10098800015C065002580750035808500458D8A074
:10099800D0EF04F0D2EF04F0DBEF04F00550015E75
:1009A8000650025A0750035A0850045A0980D89032
:1009B80008320732063205320D2EBEEF04F009C5A3
:1009C80001F50AC502F50BC503F50CC504F51200BF
:1009D8006CEC16F00009D8A4F4EF04F0F6EF04F07C
:1009E800F9EF04F0040E3AEF05F007012951030B63
:1009F8000009D8B402EF05F004EF05F010EF05F098
:100A0800010E016E2951030B026E0150025E29513D
:100A18000218FC0B0218296F2507D8A026072551B4
:100A28002611D8B41AEF05F01CEF05F02AEF05F0EF
:100A3800EDEC17F061008CFCD9F4610090FCDAF45D
:100A4800DF6E0701234B242BF6EF04F048EC04F08B
:100A5800036EEDEC17F061008CFCD9F4610090FC9A
:100A6800DAF4DF6E0701234B242B03501200780EB3
:100A7800F66E2F0EF76E000EF86E01EEF4F310EE20
:100A880007F00900F5C4EEF4E550E150FAE102EE92
:100A980000F310EE00F1EE6AE550E150FCE1E2509F
:100AA800FAE102EE00F210EE00F1EE6AE550E150D4
:100AB800FCE1E250FAE102EE00F110EE00F1EE6A1C
:100AC800E550E150FCE1E250FAE102EE00F0780E68
:100AD800EE6AE806FDE101EE00F3CF0EEE6AE806E5
:100AE800FDE101EED9F21F0EEE6AE806FDE105010F
:100AF800FE6BFD6B0401080E5D6F000E5E6F000E4D
:100B08005F6F000114EF0DF094ECC9F00EC542F5CB
:100B18000FC543F510C544F511C545F5000ED9ECD0
:100B2800EBF042C550F543C551F544C552F545C5EE
:100B380053F5000E546E000E556E7A0E566E440E26
:100B4800576E1EECDAF050C56DF551C56EF552C5FD
:100B58006FF553C570F56DC501F56EC502F56FC526
:100B680003F570C504F5B10E056E310E066E970ECD
:100B7800076E3E0E086E29ECD6F001C56DF502C56C
:100B88006EF503C56FF504C570F56DC55CF56EC5EA
:100B98005DF56FC55EF570C55FF5120006010B6F58
:100BA8000601065107110811D8B4DDEF05F0DFEF93
:100BB80005F000EF06F00B51030D000EF324D96E7B
:100BC800070EF420DA6E610018F8DEF461001CF8F4
:100BD800DEF4610020F8DEF40B51020D120EF3244E
:100BE800D96E070EF420DA6E610024F8DEF4610095
:100BF80028F8DDF41AEF06F00B51030D000EF3246C
:100C0800D96E070EF420DA6ED60EDE6E2D0EDE6E6D
:100C1800000EDE6E0B51020D120EF324D96E070E74
:100C2800F420DA6E000EDE6E000EDD6E1200060194
:100C3800206F1CC623F61DC624F61EC621F61FC645
:100C480022F606012051F5EC02F00009D8B42FEF86
:100C580006F031EF06F025EF06F0A60E06010C6F40
:100C6800170E0D6F000E0E6F210E0F6F060E106F10
:100C78002DEC15F01B0E0601066F060E076F000E11
:100C8800096F010E086FAAEC14F0000E06010C6F34
:100C9800000E0D6F000E0E6F000E0F6F000E106F1E
:100CA8001FEC15F0A0EC17F0D4EC12F0E806D8B45D
:100CB80060EF06F062EF06F058EF06F01200066EDD
:100CC800015002100310D8B46CEF06F06EEF06F076
:100CD8008FEF06F00650030D000EF324D96E070EB1
:100CE800F420DA6E610004F4DEF4610008F4DEF446
:100CF80061000CF4DEF40650020D120EF324D96ED6
:100D0800070EF420DA6E610010F4DEF4610014F4CA
:100D1800DDF4A9EF06F00650030D000EF324D96E9A
:100D2800070EF420DA6E0E0EDE6E300EDE6E000E4A
:100D3800DE6E0650020D120EF324D96E070EF42053
:100D4800DA6E000EDE6E000EDD6E120006011C6FFC
:100D5800000E06011D6F06011C51F5EC02F000099A
:100D6800D8B4B9EF06F0BBEF06F0AFEF06F0680EA7
:100D780006010C6F210E0D6F000E0E6F1D0E0F6F0A
:100D8800060E106F2DEC15F01B0E0601066F060EF1
:100D9800076F000E096F010E086FAAEC14F0000E21
:100DA80006010C6F000E0D6F000E0E6F000E0F6F18
:100DB800000E106F1FEC15F0A0EC17F0D4EC12F039
:100DC800E806D8B4EAEF06F0ECEF06F0E2EF06F03A
:100DD80006011D511200D7AEF4EF06F0F8EF07F048
:100DE8000701298909EF07F0CFEC17F0070E33EF59
:100DF80007F0070125294CEC17F0030E33EF07F035
:100E0800D2EC17F00A0E33EF07F012C711F613C72A
:100E180012F602D81AEF07F00500FA6E0051FD6EBF
:100E28000151FE6E0251FF6EFA5012000601136F57
:100E3800146B1451000AD8B424EF07F004EF07F03C
:100E48001351010AD8B404EF07F0030AD8B4F8EF35
:100E580006F0060AD8B4FDEF06F004EF07F012001A
:100E68001B6E17C51EF518C51FF519C51CF51AC543
:100E78001DF51B50F6EC03F00009D8B446EF07F057
:100E880048EF07F03DEF07F0C00E076E1C0E086E26
:100E9800000E096E1C0E0A6E050E0B6E65EC15F041
:100EA800160E016E050E026E000E046E010E036E24
:100EB800CEEC14F0000E076E000E086E000E096EE0
:100EC800000E0A6E000E0B6E57EC15F0A8EC17F02A
:100ED80006EC14F0E806D8B474EF07F076EF07F0E4
:100EE8006CEF07F01200D7AE7CEF07F0EDEF08F0DB
:100EF800A4EC17F0020E0701286F8FEF07F0CEEC75
:100F080015F0B7EF07F0DDEC16F0B7EF07F08EEC51
:100F180015F0B7EF07F014C711F615C712F621EE52
:100F280003F302D8A2EF07F00500FA6EDE50FD6E5B
:100F3800DE50FE6EDE50FF6EFA5012000601136F8F
:100F4800146B1451000AD8B4ACEF07F08BEF07F01C
:100F58001351020AD8B483EF07F0010AD8B487EF17
:100F680007F08BEF07F0120006011D6F06011D51F7
:100F7800F5EC02F00009D8B4C4EF07F0C6EF07F0AB
:100F8800BAEF07F0EC0E06010C6F200E0D6F000E85
:100F98000E6F1C0E0F6F060E106F2DEC15F01B0E4A
:100FA8000601066F060E076F000E096F010E086F27
:100FB800AAEC14F0000E06010C6F000E0D6F000E67
:100FC8000E6F000E0F6F000E106F1FEC15F0A0ECE7
:100FD80017F0D4EC12F0E806D8B4F5EF07F0F7EF05
:100FE80007F0EDEF07F01200070129890DEF08F06F
:100FF800F0EC17F0070E36EF08F00701252991EC01
:1010080017F0030E36EF08F0F3EC17F00A0E36EF80
:1010180008F012C70CF513C70DF502D81EEF08F03B
:101028000500FA6E0051FD6E0151FE6E0251FF6E11
:10103800FA5012000E6E0F6A0F50000AD8B427EF4C
:1010480008F008EF08F00E50010AD8B408EF08F0CD
:10105800030AD8B4FCEF07F0060AD8B401EF08F089
:1010680008EF08F01200000E0201A56F000EA66F2F
:10107800000EA76F000EA86F000EA96F000EAA6FD2
:10108800A00EAB6F800EAC6F000EAD6F820EAE6F10
:10109800060EAF6F000EB06F000EB16F000EB26F8C
:1010A800000EB36F000E0601066F000E076F000EEC
:1010B800086F1CEC17F0000E0601066F000E076F94
:1010C800000E086F15EC17F0000E0601066F000EF3
:1010D800076F000E086F23EC17F0000E0601F76F7C
:1010E8001200D7AE7AEF08F00BEF0AF0FC0E0701FA
:1010F8002917020E286F299589EF08F0D6EC16F00B
:10110800B1EF08F00F0EB1EF08F016C711F617C7C8
:1011180012F621EE06F302D89CEF08F00500FA6EED
:10112800DE50FD6EDE50FE6EDE50FF6EFA5012008D
:101138000601136F146B1451000AD8B4A6EF08F017
:1011480086EF08F01351020AD8B482EF08F0010ABA
:10115800D8B482EF08F086EF08F01200186E185025
:10116800F6EC03F00009D8B4BCEF08F0BEEF08F0C5
:10117800B3EF08F0D80E076E250E086E000E096E44
:10118800170E0A6E050E0B6E65EC15F0160E016E45
:10119800050E026E000E046E010E036ECEEC14F006
:1011A800000E076E000E086E000E096E000E0A6E25
:1011B800000E0B6E57EC15F0A8EC17F006EC14F0C7
:1011C800E806D8B4EAEF08F0ECEF08F0E2EF08F030
:1011D8001200B8EC17F0020E0701286F00EF09F0B3
:1011E8003FEC17F027EF09F003EC18F027EF09F0B0
:1011F800C6EC16F027EF09F014C70CF515C70DF566
:1012080021EE03F302D813EF09F00500FA6EDE5061
:10121800FD6EDE50FE6EDE50FF6EFA5012000E6E4E
:101228000F6A0F50000AD8B41CEF09F0FCEF08F061
:101238000E50020AD8B4F4EF08F0010AD8B4F8EF57
:1012480008F0FCEF08F01200BCEC0DF00701295182
:10125800030B0009D8B433EF09F035EF09F042EF7A
:1012680009F014EC16F00009D8B43DEF09F03FEF8F
:1012780009F042EF09F0100E0701276F0701275107
:10128800030DCD0EF324F66EFD0EF420F76EF86A0A
:10129800000EF82202D85EEF09F00500FA6E090088
:1012A800F550FD6E0900F550FE6E0900F550FF6E11
:1012B800FA5012000701276F120037EC0EF00701F1
:1012C8002951030B0009D8B46CEF09F06EEF09F04F
:1012D8007BEF09F061EC16F00009D8B476EF09F05D
:1012E80078EF09F07BEF09F0100E0701276F07016F
:1012F8002751030DCD0EF324F66EFD0EF420F76E84
:10130800F86A000EF82202D897EF09F00500FA6E85
:101318000900F550FD6E0900F550FE6E0900F55004
:10132800FF6EFA5012000701276F1200F1C5F5F59C
:10133800F2C5F6F5000E0601DA6F000ED96FBCEFA4
:1013480009F0EFC5BBF5F0C5BCF5F50E0501BD6F9D
:10135800050EBE6FF3C5BFF5F4C5C0F543EC99F0B3
:101368000501BB510601D9270501BC510601DA2345
:101378006100D4F7F6F46100D8F7F7F4000EF86EC0
:101388000800F5500009D8A4CCEF09F0CEEF09F019
:10139800A5EF09F0D9C6EFF5DAC6F0F5120073EC3F
:1013A80017F006C6D1F607C6D2F678EC17F006C6CF
:1013B800D3F607C6D4F682EC17F006C6D5F607C6EC
:1013C800D6F67DEC17F006C6D7F607C6D8F6000E97
:1013D8000601AD6F0B0EAE6F010EB06F000EAF6F52
:1013E800630EB16FFE0EB26FD7C6B3F6D8C6B4F6A9
:1013F800D1C6B5F6D2C6B6F6D3C6B7F6D4C6B8F6D1
:10140800D5C6B9F6D6C6BAF648ECF5F01200FC0E09
:1014180007012917020E286F29951AEF0AF001EC27
:1014280018F041EF0AF00F0E41EF0AF016C70CF55D
:1014380017C70DF521EE06F302D82DEF0AF00500C7
:10144800FA6EDE50FD6EDE50FE6EDE50FF6EFA5014
:1014580012000E6E0F6A0F50000AD8B436EF0AF069
:1014680017EF0AF00E50020AD8B413EF0AF0010A77
:10147800D8B413EF0AF017EF0AF01200A7C6ABF6BC
:10148800A8C6ACF6000E0601DA6F000ED96F60EF41
:101498000AF0A5C671F6A6C672F6AB0E736F060EF5
:1014A800746FA9C675F6AAC676F600EC80F0060138
:1014B8007151D9277251DA236100ACFAF6F4610050
:1014C800B0FAF7F4000EF86E0800F5500009D8A439
:1014D80070EF0AF072EF0AF04DEF0AF0D9C6A5F6E0
:1014E800DAC6A6F61200000E096E000E0A6E000E8D
:1014F8000B6E000E0C6E01A084EF0AF086EF0AF066
:101508008EEF0AF00550092606500A2207500B22D2
:1015180008500C22D8900536063607360836D8907B
:101528000432033202320132015002100310041057
:10153800D8A4A1EF0AF0A3EF0AF07FEF0AF009C5DB
:1015480001F50AC502F50BC503F50CC504F5120033
:1015580008C60CF609C60DF606C60EF607C60FF63F
:1015680006010C510A6F0D510B6F0C4B0D2B6100CE
:1015780028F8F6F461002CF8F7F4000EF86E610014
:1015880038F8D9F461003CF8DAF40E4B0F2B240E2E
:10159800F76403D00800F55005D0F6C4E9F4F7C4A1
:1015A800EAF4EF50DF6EDF50D8A4DDEF0AF0DFEF8A
:1015B8000AF0B4EF0AF0120003C507F504C508F5F0
:1015C80001C509F502C50AF50750056E0850066EF3
:1015D800074A082A610014F4F6F4610018F4F7F4D5
:1015E800000EF86E610024F4D9F4610028F4DAF4EE
:1015F800094A0A2A240EF76403D00800F55005D0DA
:10160800F6C4E9F4F7C4EAF4EF50DF6EDF50D8A46B
:1016180010EF0BF012EF0BF0E8EF0AF01200000EDB
:101628000601086FE6EC15F00009D8B41EEF0BF0C0
:1016380020EF0BF016EF0BF0E5EC0DF00601076F4D
:101648000A0E0719D8A42BEF0BF02DEF0BF037EF8C
:101658000BF0000E0825D96EDA6A090EDA22000EA0
:10166800DF6E43EF0BF0000E0825D96EDA6A090E1B
:10167800DA2261001CF8DFF4082B16EF0BF01200D9
:101688007CECE1F00DC542F50EC543F50FC544F5F8
:1016980010C545F5010ED9ECEBF042C550F543C530
:1016A80051F544C552F545C553F5000E546E000E6C
:1016B800556EC80E566E420E576E1EECDAF050C5C7
:1016C8006DF551C56EF552C56FF553C570F56DC50D
:1016D8005CF56EC55DF56FC55EF570C55FF512000A
:1016E800D6ECD1F00DC542F50EC543F50FC544F54E
:1016F80010C545F5000ED9ECEBF042C550F543C5D1
:1017080051F544C552F545C553F5000E546E000E0B
:10171800556E800E566E440E576E1EECDAF050C5AC
:101728006DF551C56EF552C56FF553C570F56DC5AC
:101738005CF56EC55DF56FC55EF570C55FF51200A9
:101748000601196F010E06011A6F070129B5AFEFDF
:101758000BF0B1EF0BF0D0EF0BF02985000E06016E
:101768001A6F070125514CEC17F006011951D8B42E
:10177800C0EF0BF0C2EF0BF0C9EF0BF0040E07013E
:10178800276F01EC12F0CEEF0BF0030E0701276F65
:10179800F1EC14F001EC15F006011A511200D7AE65
:1017A800D8EF0BF060EF0EF0060120EE02F01151B9
:1017B800D9261251DA22610078F306F6610074F333
:1017C80007F6610044F8D9F4610048F8DAF46100DA
:1017D80078F308F6610074F309F6AAEC14F0000E29
:1017E80006010C6F000E0D6F000E0E6F000E0F6FCE
:1017F800000E106F2DEC15F0020E1200D7AE07EF99
:101808000CF088EF0EF0060120EE02F01151D926F7
:101818001251DA22610078F306F6610074F307F6D4
:10182800610044F8D9F4610048F8DAF4610078F30B
:1018380008F6610074F309F6AAEC14F0000E06012C
:101848000C6F000E0D6F000E0E6F000E0F6F000E66
:10185800106F2DEC15F0020E12000601066F06013E
:10186800F851D8B43AEF0CF03CEF0CF033EF0CF031
:10187800A7B241EF0CF043EF0CF048EF0CF0610019
:1018880018F8C9F25EEF0CF0A7923A0EF625D96E59
:10189800DA6A070EDA22610018F8DFF4F62B070E71
:1018A800F66559EF0CF05BEF0CF05DEF0CF0000EF5
:1018B800F66FF807A7821200000E0301D96F000E19
:1018C800DA6F000EDB6F000EDC6F000EDF6F000EAC
:1018D800E06F000EE56F000EE76F000EEC6F000E74
:1018E800EE6F000EEF6F000EF06F000EF16F000E3E
:1018F800F26F000EF46F100EF56F000EF66F000E0B
:10190800F76F000EF86F000EF96F090EFA6F940E5C
:10191800F36F1200B5A293EF0CF095EF0CF097EF70
:101928000CF0BAEF0CF0B5A09CEF0CF09EEF0CF0A9
:10193800A0EF0CF0BAEF0CF002019AA5A6EF0CF09C
:10194800A8EF0CF0AAEF0CF0BAEF0CF09AAFAFEFDB
:101958000CF0B1EF0CF0B3EF0CF0BAEF0CF097A964
:10196800B8EF0CF0BAEF0CF08EEF0CF01200B5A245
:10197800C0EF0CF0C2EF0CF0C4EF0CF0E7EF0CF086
:10198800B5A0C9EF0CF0CBEF0CF0CDEF0CF0E7EF02
:101998000CF002019AA5D3EF0CF0D5EF0CF0D7EFBD
:1019A8000CF0E7EF0CF09AAFDCEF0CF0DEEF0CF088
:1019B800E0EF0CF0E7EF0CF097A9E5EF0CF0E7EF9C
:1019C8000CF0BBEF0CF0120006C608F607C609F6C5
:1019D800F1EF0CF00601064B072B610018F8F6F43E
:1019E80061001CF8F7F4000EF86E240EF76403D0BB
:1019F8000800F55005D0F6C4E9F4F7C4EAF4EF504E
:101A08000009D8A40AEF0DF00CEF0DF0EEEF0CF082
:101A180006010851065D066F09510759076F120044
:101A280097EC14F0D68E3A0E0601066F240E076F57
:101A3800000E086F2AEC17F0B0EC0EF0CFB827EFC5
:101A48000DF029EF0DF022EF0DF0CFA82EEF0DF0DD
:101A580030EF0DF029EF0DF0B5ECE2F0CFB837EF2D
:101A68000DF039EF0DF030EF0DF0FF0030EF0DF015
:101A78000DEF00F0000E03011F6F000E206F040E23
:101A8800216F860E1D6FE80E1C6FB1981C51600007
:101A980074FC09F606010A6B09C60AF6096B0911F6
:101AA8000701EA6F06010A510701EB6FA188160EBC
:101AB8000601066F300E076F000E086F2AEC17F04C
:101AC800010E03011E6F1200010E06010C6F200E9D
:101AD80006190711D8B473EF0DF075EF0DF08EEFFE
:101AE8000DF0F70E086FFF0E096F06C60AF607C657
:101AF8000BF608510A2709510B230B5109E1050E72
:101B08000A5DD8A08AEF0DF08CEF0DF08EEF0DF086
:101B1800000E0C6F0CC606F6076B120001C503F524
:101B280002C504F59AEF0DF0014A022A610004F497
:101B3800F6F4610008F4F7F4000EF86E240EF7646A
:101B480003D00800F55005D0F6C4E9F4F7C4EAF468
:101B5800EF500009D8A4B3EF0DF0B5EF0DF098EFF2
:101B68000DF00350015C016E04500258026E120021
:101B780040EC16F00009D8B4C4EF0DF0C6EF0DF034
:101B8800CAEF0DF0DBEC17F0E4EF0DF02AEC16F0DD
:101B98000009D8B4D2EF0DF0D4EF0DF0D8EF0DF066
:101BA800D5EC17F0E4EF0DF035EC16F00009D8B4D9
:101BB800E0EF0DF0E2EF0DF0E4EF0DF0D8EC17F0E8
:101BC80012000601F251D8B4ECEF0DF0EEEF0DF073
:101BD800E5EF0DF02A0EF325D96EDA6A070EDA2240
:101BE800DF50F16F320EF325D96EDA6A070EDA226A
:101BF800DF50066FF32B070EF36505EF0EF007EFC6
:101C08000EF009EF0EF0000EF36FA790F207A78011
:101C180006511200146E010E156E070129B517EF53
:101C28000EF019EF0EF035EF0EF02985000E156E47
:101C3800255191EC17F01450D8B425EF0EF027EF8A
:101C48000EF02EEF0EF0040E0701276FC3EC13F011
:101C580033EF0EF0030E0701276F4BEC16F010EC74
:101C680015F0155012008DEC16F00009D8B43FEFAE
:101C78000EF041EF0EF045EF0EF0FCEC17F05FEFC1
:101C88000EF077EC16F00009D8B44DEF0EF04FEFD8
:101C98000EF053EF0EF0F6EC17F05FEF0EF082EC5B
:101CA80016F00009D8B45BEF0EF05DEF0EF05FEFB1
:101CB8000EF0F9EC17F0120020EE02F00C50D926C5
:101CC8000D50DA22610078F301F5610074F302F532
:101CD800610030F4D9F4610034F4DAF4610078F387
:101CE80003F5610074F304F5CEEC14F0000E076EF2
:101CF800000E086E000E096E000E0A6E000E0B6EC6
:101D080065EC15F0020E120020EE02F00C50D926F8
:101D18000D50DA22610078F301F5610074F302F5E1
:101D2800610030F4D9F4610034F4DAF4610078F336
:101D380003F5610074F304F5CEEC14F0000E076EA1
:101D4800000E086E000E096E000E0A6E000E0B6E75
:101D580065EC15F0020E1200A2EC16F0050E060155
:101D6800416F0F0E406FF10EE82EFED7402FFCD7C3
:101D7800412FFAD700ECE8F0000E0601066F000EBE
:101D88005BEC14F0010E0601066F010E076F010EE1
:101D980055EC12F0010E69EC17F070EC12F0010E20
:101DA8000601ED6F1200BF0E06010E6FFF0E0F6FDA
:101DB8000CC610F60DC611F60E5110270F5111233F
:101DC800115107E11A0E105DD8B0EDEF0EF0EFEFEC
:101DD8000EF0F6EF0EF0200E0C110C6F0D510D6F7A
:101DE800FAEF0EF00CC60CF60DC60DF61200000E3A
:101DF8000601176F000E166F0EEF0FF015C608F6E6
:101E0800096B13C60AF614C60BF64AECFCF0060179
:101E1800164B172B16511125D96E17511221DA6E50
:101E2800DF50156F1551D8A41CEF0FF01EEF0FF0FF
:101E380002EF0FF01200000E0601231B000E241BF8
:101E4800000E251B800E261B1FC606F620C607F6A9
:101E580021C608F622C609F623C60AF624C60BF6DA
:101E680025C60CF626C60DF615ECCDF006C61FF6EF
:101E780007C620F608C621F609C622F612009F0EEC
:101E880006010E6FFF0E0F6F0CC610F60DC611F689
:101E98000E5110270F511123115107E11A0E105D31
:101EA800D8B059EF0FF05BEF0FF061EF0FF05F0E56
:101EB8000C150C6F0D6B65EF0FF00CC60CF60DC60C
:101EC8000DF61200080E0601F8616DEF0FF06FEFC6
:101ED8000FF087EF0FF03A0EF525D96EDA6A070E84
:101EE800DA22DF500201C96F0601F52B070EF565EE
:101EF80080EF0FF082EF0FF084EF0FF0000EF56F18
:101F0800F82B88EF0FF0A7921200BF0E056EFF0E98
:101F1800066E03C507F504C508F5055007260650E3
:101F28000822085007E11A0E075CD8B09EEF0FF0A0
:101F3800A0EF0FF0A7EF0FF0200E0310036E045070
:101F4800046EABEF0FF003C503F504C504F51200EA
:101F5800000E1E1A000E1F1A000E201A800E211ADB
:101F68001AC501F51BC502F51CC503F51DC504F509
:101F78001EC505F51FC506F520C507F521C508F5D9
:101F880076ECCFF001C51AF502C51BF503C51CF5A3
:101F980004C51DF51200200E01180210D8B4D7EFA1
:101FA8000FF0D9EF0FF0F0EF0FF0F70E036EFF0E02
:101FB800046E01C505F502C506F503500526045053
:101FC8000622065009E1050E055CD8A0EEEF0FF0D9
:101FD800F0EF0FF0F0EF0FF012009F0E056EFF0EFE
:101FE800066E03C507F504C508F505500726065013
:101FF8000822085007E11A0E075CD8B006EF10F067
:1020080008EF10F00EEF10F05F0E0314036E046A71
:1020180012EF10F003C503F504C504F51200000E15
:10202800126E000E116E24EF10F010C503F5046A4D
:102038000EC505F50FC506F523ECFDF0114A122A69
:1020480011500C24D96E12500D20DA6EDF50106E2C
:102058001050D8A432EF10F034EF10F019EF10F050
:102068001200060119BF43EF10F0195106E11805D7
:10207800D8B041EF10F043EF10F051EF10F018C650
:102088001AF619C61BF61A1F1B1F1A4B1B2B1AC64A
:1020980018F61BC619F655EF10F018C618F619C62B
:1020A80019F6120014BE63EF10F0145006E1130481
:1020B800D8B061EF10F063EF10F071EF10F013C5B6
:1020C80015F514C516F5151E161E154A162A15C53A
:1020D80013F516C514F575EF10F013C513F514C5EF
:1020E80014F51200D7AE7BEF10F0ECEF12F011C62A
:1020F80006F612C607F6000E0601096F010E086FF4
:10210800AAEC14F0000E06010C6F000E0D6F000E05
:102118000E6F000E0F6F000E106F2DEC15F0040EF1
:102128001200D7AE9AEF10F004EF13F011C606F6BE
:1021380012C607F6000E0601096F020E086FAAEC18
:1021480014F0000E06010C6F000E0D6F000E0E6FDE
:10215800000E0F6F000E106F2DEC15F0020E12001E
:10216800D7AEB9EF10F01CEF13F011C606F612C681
:1021780007F6000E0601096F010E086FAAEC14F0AD
:10218800000E06010C6F000E0D6F000E0E6F000E94
:102198000F6F000E106F2DEC15F0020E1200D7AE67
:1021A800D8EF10F034EF13F011C606F612C607F692
:1021B800000E0601096F020E086FAAEC14F0000E5B
:1021C80006010C6F000E0D6F000E0E6F000E0F6FE4
:1021D800000E106F2DEC15F0040E1200D7AEF7EFBD
:1021E80010F04CEF13F011C606F612C607F6000EF3
:1021F8000601096F020E086FAAEC14F0000E060122
:102208000C6F000E0D6F000E0E6F000E0F6F000E9C
:10221800106F2DEC15F0020E1200D7AE16EF11F06C
:1022280064EF13F011C606F612C607F6000E060193
:10223800096F010E086FAAEC14F0000E06010C6F6E
:10224800000E0D6F000E0E6F000E0F6F000E106F58
:102258002DEC15F0020E1200D7AE35EF11F07CEF21
:1022680013F011C606F612C607F6000E0601096F2E
:10227800010E086FAAEC14F0000E06010C6F000E98
:102288000D6F000E0E6F000E0F6F000E106F2DEC0D
:1022980015F0040E1200D7AE54EF11F094EF13F0BE
:1022A80011C606F612C607F6000E0601096F020EE1
:1022B800086FAAEC14F0000E06010C6F000E0D6FEB
:1022C800000E0E6F000E0F6F000E106F2DEC15F044
:1022D800040E12009F0E0601086FFF0E096F200EF4
:1022E80006110A6F000E07110B6F08510A270951D2
:1022F8000B230B510AE11A0E0A5DD8A086EF11F0E4
:1023080089EF11F0010E8AEF11F0000E066F076BCE
:102318001200D00E0601086FFF0E096F06C60AF6F6
:1023280007C60BF608510A2709510B230B510AE17E
:102338000A0E0A5DD8A0A3EF11F0A6EF11F0010E66
:10234800A7EF11F0000E066F076B12009F0E060133
:10235800086FFF0E096F06C60AF607C60BF6085186
:102368000A2709510B230B510AE11A0E0A5DD8A05E
:10237800C0EF11F0C3EF11F0010EC4EF11F0000E21
:10238800066F076B1200BF0E0601086FFF0E096F7C
:1023980006C60AF607C60BF608510A2709510B2389
:1023A8000B510AE11A0E0A5DD8A0DDEF11F0E0EF3B
:1023B80011F0010EE1EF11F0000E066F076B12002D
:1023C80006010651071108110911D8B4EEEF11F0F2
:1023D800F0EF11F0F8EF11F0000E061B000E071BCE
:1023E800000E081B800E091B06C606F607C607F670
:1023F80008C608F609C609F61200D7AE06EF12F0AD
:10240800C3EF13F007012951FC0B0209296F2505B9
:102418002611D8A412EF12F014EF12F016EF12F0F2
:1024280045EC02F0D8800701223546EC17F0040E7F
:102438001200F8ECFDF00601E151E211D8B427EFE3
:1024480012F029EF12F038EF12F0E107D8A0E207F6
:10245800E151E211D8A433EF12F035EF12F038EF62
:1024680012F0010E0501FD6F120001500210031059
:102478000410D8B442EF12F044EF12F04CEF12F00F
:10248800000E011A000E021A000E031A800E041A1A
:1024980001C501F502C502F503C503F504C504F538
:1024A80012000601096F09C608F60601083B08472D
:1024B800EE5108191F0B0819EE6F06C608F60847F3
:1024C8000847EE510819E30B0819EE6FEE5107198A
:1024D800FC0B0719EE6F1200F50E06011B6FF0C614
:1024E8001CF6760EB8EC07F0F20E06011B6FEFC66D
:1024F8001CF6760EB8EC07F0F40E06011B6FEEC65C
:102508001CF6760EB8EC07F01200D7AE8EEF12F07C
:102518006FEF14F0C3EC17F0C0EC17F00009D8B453
:1025280098EF12F09AEF12F0A0EF12F0000E4CECB8
:1025380017F0000E46EC17F0000E12000701D851F4
:10254800D911DA11D8B4ABEF12F0ADEF12F0BAEF3F
:1025580012F002D8BAEF12F00500FA6ED851FD6EEB
:10256800D951FE6EDA51FF6EFA5012001200056E54
:10257800610014F4ECF30301F38FF39DF381F3B1DD
:10258800C8EF12F0CAEF12F0C3EF12F0EB51046E6D
:10259800036AEA510324016E000E0420026E120041
:1025A800010E0601066F070129B5DDEF12F0DFEF16
:1025B80012F0E9EF12F029972269A4EC17F03BEC2E
:1025C80015F052EC17F028C706F60601065112005E
:1025D8000CC501F50DC502F5000E046E010E036E63
:1025E800CEEC14F0000E076E000E086E000E096E99
:1025F800000E0A6E000E0B6E65EC15F0040E12004C
:102608000CC501F50DC502F5000E046E020E036E31
:10261800CEEC14F0000E076E000E086E000E096E68
:10262800000E0A6E000E0B6E65EC15F0020E12001D
:102638000CC501F50DC502F5000E046E010E036E02
:10264800CEEC14F0000E076E000E086E000E096E38
:10265800000E0A6E000E0B6E65EC15F0020E1200ED
:102668000CC501F50DC502F5000E046E020E036ED1
:10267800CEEC14F0000E076E000E086E000E096E08
:10268800000E0A6E000E0B6E65EC15F0040E1200BB
:102698000CC501F50DC502F5000E046E020E036EA1
:1026A800CEEC14F0000E076E000E086E000E096ED8
:1026B800000E0A6E000E0B6E65EC15F0020E12008D
:1026C8000CC501F50DC502F5000E046E010E036E72
:1026D800CEEC14F0000E076E000E086E000E096EA8
:1026E800000E0A6E000E0B6E65EC15F0020E12005D
:1026F8000CC501F50DC502F5000E046E010E036E42
:10270800CEEC14F0000E076E000E086E000E096E77
:10271800000E0A6E000E0B6E65EC15F0040E12002A
:102728000CC501F50DC502F5000E046E020E036E10
:10273800CEEC14F0000E076E000E086E000E096E47
:10274800000E0A6E000E0B6E65EC15F0040E1200FA
:1027580003011EA5B2EF13F0B4EF13F0BDEF13F0B1
:102768001E9102501D6F610004F41CF31E81C2EF1C
:1027780013F002501D6F610004F41CF312000701EE
:102788002951FC0B0209296F25052611D8A4CFEF82
:1027980013F0D1EF13F0D3EF13F048EC04F0D88026
:1027A800070122358CEC17F0040E120006010651C1
:1027B80008036100CCF30AF66100D0F30BF606516A
:1027C8000903F3500B2707510803F3500B270AC6D8
:1027D80006F60BC607F61200320E0601F425D96E6E
:1027E800DA6A070EDA22C7C2DFF4F42B070EF465A3
:1027F80000EF14F002EF14F004EF14F0000EF46F81
:10280800F22B1200010E016E070129B50EEF14F02C
:1028180010EF14F01AEF14F029972269B8EC17F0AA
:1028280073EC15F05EEC17F028C701F501501200A3
:10283800020194BF22EF14F024EF14F030EF14F0EB
:10284800000E9A6F000E9B6F000E976F8D69510EE8
:10285800896F510E886F948F1200020194BF37EF71
:1028680014F039EF14F045EF14F0000E9A6F000ED3
:102878009B6F000E976F8D69510E896F510E886F8F
:10288800948F1200015003026100CCF305F561003A
:10289800D0F306F501500402F35006260250030255
:1028A800F350062605C501F506C502F51200060116
:1028B800086F08C607F60601073BF05107198F0B8A
:1028C8000719F06F06C607F60747F0510719F10B0D
:1028D8000719F06F1200E4EC17F0E1EC17F00009AB
:1028E800D8B479EF14F07BEF14F081EF14F0000EF8
:1028F80091EC17F0000E8CEC17F0000E1200F90E98
:102908000501FB6F050EFC6F000EEF6F000EF06FF8
:10291800F7C5F1F5F8C5F2F5FB0EF36F050EF46F88
:102928009AEC09F01200FFEC17F0BCEC14F0E0ECA4
:1029380014F095ECFFF049EC15F060EC0CF03EEC6F
:102948000DF037EC08F093EC01F01200070129A90B
:10295800B0EF14F0B2EF14F0BBEF14F006C623F793
:1029680007C624F708C625F709C626F729991200CD
:10297800000E0001606F000E616F000E636F000EA5
:10298800646F000E656F000E666F000E676F000EB5
:10299800686F1200070129A9D4EF14F0D6EF14F0DC
:1029A800DFEF14F001C523F702C524F703C525F7A7
:1029B80004C526F729991200040E0201946F800EAF
:1029C800956F180E966F030E9C6F000E9A6F000E8F
:1029D8009B6F000E976F8D691200D7AEF6EF14F05B
:1029E8004BEF16F007012951FC0B0209296F225100
:1029F800222546EC17F0030E120007EF15F08EECB7
:102A08000CF028EC09F0070129B50DEF15F00FEFD0
:102A180015F003EF15F0120016EF15F0BBEC0CF0F3
:102A280061EC09F0070129B51CEF15F01EEF15F050
:102A380012EF15F012000CC606F60DC607F60EC604
:102A480008F60FC609F610C60AF6020ED2EC05F013
:102A580012000CC606F60DC607F60EC608F60FC617
:102A680009F610C60AF6000ED2EC05F01200A5947D
:102A7800A596A590A59202019B919B959B9F9B9DD6
:102A88009B939793979597911200600E0001AD6FF5
:102A9800000EAF6F000EB36F080EB16F000EB06F6F
:102AA800000EAC6F120007C501F508C502F509C58F
:102AB80003F50AC504F50BC505F5020E63EC06F02F
:102AC800120007C501F508C502F509C503F50AC5D1
:102AD80004F50BC505F5000E63EC06F01200A5948D
:102AE800A596A590A59202019B919B959B9F9B9D66
:102AF8009B939793979597911200D7AE86EF15F011
:102B0800F8EFFFF064EC17F007012995020E286F23
:102B18000F0E1200D7AE93EF15F0C6EF16F064EC67
:102B280017F007012995000E286F0F0E12000501F6
:102B3800FD51D8B4A2EF15F0A4EF15F0A7EF15F0EA
:102B4800000EFD6F010E12000601066FB2A2AFEF74
:102B580015F0B1EF15F0AAEF15F0610018F8A3F21F
:102B680012000601EE51FC0B0109EE6FF40E166E11
:102B7800EEC617F5760EB2EC08F01200D7AEC7EF26
:102B880015F038EF17F0C6EC17F0C3EC17F0FEECB1
:102B980015F01200D7AED3EF15F03FEF17F007018D
:102BA80025514CEC17F001EC12F012000601F85117
:102BB800D8A4E1EF15F0E4EF15F0010EE5EF15F0FC
:102BC800000E12000601F251D8A4EDEF15F0F0EF57
:102BD80015F0010EF1EF15F0000E1200016EB2A211
:102BE800F8EF15F0FAEF15F0F3EF15F0610004F4C3
:102BF800A3F21200D7AE03EF16F058EF17F0070153
:102C08002995000E286F0F0E1200020199BB0FEFD5
:102C180016F012EF16F0010E13EF16F0000E120068
:102C2800020195BB1AEF16F01DEF16F0010E1EEF0C
:102C380016F0000E1200020199B125EF16F028EFE8
:102C480016F0010E29EF16F0000E120002019AB5D7
:102C580030EF16F033EF16F0010E34EF16F0000ED9
:102C68001200020197B93BEF16F03EEF16F0010E85
:102C78003FEF16F0000E120002019ABF46EF16F061
:102C880049EF16F0010E4AEF16F0000E1200070188
:102C98002951FC0B0209296F225122258CEC17F0CF
:102CA800030E1200020199BB5CEF16F05FEF16F0FD
:102CB800010E60EF16F0000E1200020195BB67EFDF
:102CC80016F06AEF16F0010E6BEF16F0000E120008
:102CD800020199B172EF16F075EF16F0010E76EF5A
:102CE80016F0000E120002019AB57DEF16F080EF83
:102CF80016F0010E81EF16F0000E1200020197B9CE
:102D080088EF16F08BEF16F0010E8CEF16F0000E20
:102D1800120002019ABF93EF16F096EF16F0010E1B
:102D280097EF16F0000E1200B198EAC701F5EBC74D
:102D380002F5ACEC13F0A2EC12F01200E00E060162
:102D48001B6FB60E1C6F760EB8EC07F01200D7AEEC
:102D5800B0EF16F0ACEF17F0C6EC17F0090E120042
:102D6800D7AEB9EF16F0B0EF17F0C9EC17F0040EB4
:102D78001200D7AEC2EF16F0B4EF17F0C9EC17F097
:102D8800030E120096EC17F007012995000E286F24
:102D98000F0E1200010EBBEC12F001C5E3F602C5DE
:102DA800E4F61200D7AEDBEF16F001EF18F0010ED3
:102DB8001200D7AEE2EF16F003EF18F0020E120081
:102DC800D7AEE9EF16F005EF18F0050E1200D7AEF2
:102DD800F0EF16F007EF18F0010E120006C6E4F740
:102DE80007C6E5F708C6E6F7120006C6E7F707C6FE
:102DF800E8F708C6E9F7120006C6D2F707C6D3F700
:102E080008C6D4F7120006C6D5F707C6D6F708C60F
:102E1800D7F7120006C6CFF707C6D0F708C6D1F70E
:102E2800120006C6DEF707C6DFF708C6E0F712008D
:102E380006C6E1F707C6E2F708C6E3F7120006C6BA
:102E4800DBF707C6DCF708C6DDF7120006C6D8F7B9
:102E580007C6D9F708C6DAF712000601076F060198
:102E68000751A8EC15F01200E7EC17F0E4EC17F0A6
:102E780058EC17F012000701255191EC17F0C3EC3C
:102E880013F012000601066F610018F88CF21200A8
:102E98000601066F610018F88DF212000201949F76
:102EA800000E9A6F9985120007012995000E286F68
:102EB8000F0E12000201949F000E9A6F998512005E
:102EC8000201949F9985948F12000601066F06C629
:102ED800EFF6120006C6E1F607C6E2F61200E9C6EA
:102EE80006F6EAC607F61200E7C606F6E8C607F6CB
:102EF8001200E3C606F6E4C607F61200E5C606F6B3
:102F0800E6C607F61200B5EC15F0DAECF5F012009B
:102F1800016E610004F48CF21200016E610004F489
:102F28008DF212000201949F9985948F1200026E0F
:102F38000250F2EC15F01200000EA4EC0BF0120097
:102F4800000E02019A6F1200000E0EEC0EF0120035
:102F5800E7EC17F0090E1200EAEC17F0040E120065
:102F6800EAEC17F0030E1200000E02019A6F12002D
:072F7800286E756C6C290046
:102F800002018D5112000201949B12000201958DE5
:102F900012000201959D120002018B5112000201E4
:102FA000948D12000201949D120002019A95120064
:102FB00002019799120002019A9F1200F0EC13F09F
:102FC000120002018D5112000201949B12000201B5
:102FD000958D12000201959D120002018B51120085
:102FE0000201948D12000201949D120002019A9533
:102FF000120002019799120002019A9F1200D69ABC
:103000001200010E1200020E1200050E1200010E37
:103010001200120012001200120012001200120020
:10FDCC0000FC2B00022400E22900DCE6016E02009C
:10FDDC00DE0D008A04009C2B00BA2D00AC2D001205
:10FDEC002500682D007A2D00842B00562D001C2B2D
:10FDFC0000EA1000EE0E00022B004F4B0D0A3E00E5
:10FE0C00613361326333717839756F69356B2D618C
:10FE1C0074732E696F742E75732D656173742D3226
:10FE2C002E616D617A6F6E6177732E636F6D0070EA
:10FE3C006F6F6C2E6E74702E6F72670065646479D0
:10FE4C006D65736861636B006950686F6E65313303
:10FE5C00007069633332004C696768743A25752CFD
:10FE6C0054656D703A25642C50726573733A257520
:10FE7C002C48756D69643A25750041542B4D5154CD
:10FE8C00545055423D25642C25642C25642C222588
:10FE9C0073222C222573220D0A0041542B575354E4
:10FEAC0041433D25642C222573220D0A0041542B1D
:10FEBC004D515454433D25642C222573220D0A00C8
:10FECC0050726573733A20257520696E4867200A55
:10FEDC000D0041542B57535441433D25642C25644C
:10FEEC000D0A0041542B4D515454433D25642C258F
:10FEFC00640D0A0041542B4D515454434F4E4E3D0A
:10FF0C0025640D0A0048756D69643A202575252510
:10FF1C00200A0D004C696768743A202575200A0A7E
:10FF2C000D0054656D703A2025692043200A0D00A0
:10FF3C0041542B575354413D25640D0A007465738D
:10FF4C00742F546F7069630041542B575354410DF7
:10FF5C000A002B575354414C440D0A00494E46009D
:10FF6C004E414E00686858006C6C5800686864001C
:10FF7C006C6C6400696E6600686869006C6C690082
:10FF8C006E616E0068686E006C6C6E0068686F0065
:10FF9C006C6C6F006C6C7300686875006C6C750031
:10FFAC00686878006C6C78006A58007458007A584D
:10FFBC00006C61006A64007464007A64006C650013
:10FFCC006C66006C67006A69007469007A69006A83
:10FFDC006E00746E007A6E006A6F00746F007A6F38
:10FFEC00006A75007475007A75006A780074780080
:04FFFC007A7800000F
:020000040001F9
:100000006100CCF9D9F46100D0F9DAF4DEC4F6F479
:10001000DDC4F7F4000EF86E0800F550250AD8A4E8
:1000200014EF80F016EF80F020EF99F06100CCF92A
:10003000D9F46100D0F9DAF4DE2A000EDD22000ED8
:100040000601DC6F000EDB6FDBC6DFF6DCC6E0F618
:10005000DD69DE69000E886F000E876F7CEF80F02F
:10006000DF816100CCF9D9F46100D0F9DAF4DE2A3D
:10007000000EDD227CEF80F0DF8331EF80F0DF8542
:1000800031EF80F0DF8731EF80F0DF8931EF80F0F2
:10009000000E886F010E876F7CEF80F06100CCF955
:1000A000D9F46100D0F9DAF4DEC4F6F4DDC4F7F473
:1000B000000EF86E0800F550776F786B7851000AE3
:1000C000D8B465EF80F048EF80F07751200AD8B4BB
:1000D00042EF80F0030AD8B445EF80F0080AD8B4A4
:1000E0003FEF80F0060AD8B430EF80F01D0AD8B494
:1000F0003CEF80F048EF80F087518811D8B483EF4F
:1001000080F085EF80F04EEF80F0DFA18AEF80F085
:100110008CEF80F08DEF80F0DF936100CCF9D9F4A3
:100120006100D0F9DAF4DEC4F6F4DDC4F7F4000EB1
:10013000F86E0800F5502A0AD8A4A1EF80F0A3EFCA
:1001400080F0D6EF80F06100CCF9D9F46100D0F9ED
:10015000DAF4DE2A000EDD226100D4F9D9F4610060
:10016000D8F9DAF461007CF377F6020EDE2661003E
:100170007CF378F6000EDD226100DCF9D9F4610031
:10018000E0F9DAF4610078F3DBF6610074F3DCF691
:10019000DCBFCFEF80F0CDEF80F017EF81F0DF8193
:1001A000DB6DDC1FD8B0DC2B17EF81F06100CCF9E0
:1001B000D9F46100D0F9DAF4610078F30DF661004A
:1001C00074F30EF6E2ECEFF00DC6DBF60EC6DCF6CD
:1001D000F3EF80F06100CCF9D9F46100D0F9DAF4E2
:1001E000DE2A000EDD22D00E0601776FFF0E786F3B
:1001F0006100CCF9D9F46100D0F9DAF4DEC4F6F488
:10020000DDC4F7F4000EF86E0800F550796F7A6BD4
:100210007751792778517A237A5109E10A0E795D6D
:10022000D8A015EF81F017EF81F0EAEF80F06100C0
:10023000CCF9D9F46100D0F9DAF4DEC4F6F4DDC407
:10024000F7F4000EF86E0800F5502E0AD8A42BEF34
:1002500081F02DEF81F0B8EF81F0000EDE6F000E1F
:10026000DD6F6100CCF9D9F46100D0F9DAF4DE2A4F
:10027000000EDD226100CCF9D9F46100D0F9DAF486
:10028000DEC4F6F4DDC4F7F4000EF86E0800F55095
:100290002A0AD8A44EEF81F050EF81F077EF81F079
:1002A0006100CCF9D9F46100D0F9DAF4DE2A000E4D
:1002B000DD226100D4F9D9F46100D8F9DAF46100E3
:1002C0007CF377F6020EDE2661007CF378F6000EF2
:1002D000DD226100DCF9D9F46100E0F9DAF46100B3
:1002E00078F3DDF6610074F3DEF6B8EF81F06100BB
:1002F000CCF9D9F46100D0F9DAF4610078F30DF6A5
:10030000610074F30EF6E2ECEFF00DC6DDF60EC6FA
:10031000DEF694EF81F06100CCF9D9F46100D0F9F8
:10032000DAF4DE2A000EDD22D00E0601776FFF0E12
:10033000786F6100CCF9D9F46100D0F9DAF4DEC449
:10034000F6F4DDC4F7F4000EF86E0800F550796F8E
:100350007A6B7751792778517A237A5109E10A0E1D
:10036000795DD8A0B6EF81F0B8EF81F08BEF81F026
:100370006100CCF9D9F46100D0F9DAF4DEC4F6F406
:10038000DDC4F7F4000EF86E0800F5500C6F0D6B2D
:10039000D7EC0EF006010C518B6F8B51D8B4D3EF14
:1003A00081F0D5EF81F01FEF82F06100CCF9D9F434
:1003B0006100D0F9DAF4610078F377F6610074F344
:1003C00078F6010E7727000E78236100DCF9F6F449
:1003D0006100E0F9F7F4000EF86E0800F5500C6FBC
:1003E0000D6BD7EC0EF006010C518C6F8C51D8B40C
:1003F000FCEF81F0FEEF81F01FEF82F06100CCF99D
:10040000D9F46100D0F9DAF4610078F377F661008D
:1004100074F378F6020E7727000E78236100DCF97A
:10042000F6F46100E0F9F7F4000EF86E0800F550FC
:100430000C6F0D6BD7EC0EF006010C518D6F610E39
:100440008B19D8A426EF82F028EF82F079EF82F0A2
:100450006100CCF9D9F46100D0F9DAF4DEC4F6F425
:10046000DDC4F7F4000EF86E08006100D4F39CF6CA
:100470006100CCF9D9F46100D0F9DAF4DE2A000E7B
:10048000DD226100D4F9D9F46100D8F9DAF4610011
:100490007CF377F6040EDE2661007CF378F6000E1E
:1004A000DD226100DCF9D9F46100E0F9DAF46100E1
:1004B00078F398F6610078F399F6610078F39AF68C
:1004C000610078F39BF671C633F672C634F698C6AF
:1004D00035F699C636F69AC637F69BC638F69CC6E8
:1004E00039F61CECC4F033C671F634C672F642EF2E
:1004F00099F08B0E066F060E076FBD0E086FFF0E8C
:10050000096F000E0B6F020E0A6FC7ECF2F00601C6
:1005100006510711D8A48FEF82F091EF82F022EFFD
:1005200083F06100CCF9D9F46100D0F9DAF461000C
:1005300078F377F6610074F378F6010E7727000EF2
:1005400078236100DCF9F6F46100E0F9F7F4000EBD
:10055000F86E08006100D4F39CF6BF0E776FFF0EB3
:10056000786F6100CCF9D9F46100D0F9DAF4DEC417
:10057000F6F4DDC4F7F4000EF86E0800F550796F5C
:100580007A6B7751792778517A237A5107E11A0EDD
:10059000795DD8B0CEEF82F0D0EF82F0F4EF82F048
:1005A0006100D4F9D9F46100D8F9DAF461007CF380
:1005B00077F6040EDE2661007CF378F6000EDD226D
:1005C0006100DCF9D9F46100E0F9DAF4610078F354
:1005D00098F6610078F399F6610078F39AF6610075
:1005E00078F39BF616EF83F06100D4F9D9F461003B
:1005F000D8F9DAF461007CF377F6040EDE266100A8
:100600007CF378F6000EDD226100DCF9D9F461009C
:10061000E0F9DAF4610078F398F6610078F399F67E
:10062000610078F39AF6610078F39BF6020E6100A0
:10063000CCF9D9F46100D0F9DAF4DE26000EDD221F
:1006400063EF82F06100CCF9D9F46100D0F9DAF4FB
:10065000DEC4F6F4DDC4F7F4000EF86E0800F550C1
:10066000630AD8A436EF83F038EF83F067EF83F0A6
:100670006100CCF9D9F46100D0F9DAF4DE2A000E79
:10068000DD226100D4F9D9F46100D8F9DAF461000F
:100690007CF377F6020EDE2661007CF378F6000E1E
:1006A000DD226100DCF9D9F46100E0F9DAF4DF5011
:1006B0009C6F71C611F672C612F69CC613F6DCEC7E
:1006C000FBF011C671F612C672F642EF99F06100A6
:1006D000CCF9D9F46100D0F9DAF4610078F306F6C8
:1006E000610074F307F6780E086FFF0E096F000EB5
:1006F0000B6F030E0A6FC7ECF2F0060106510711EB
:10070000D8B485EF83F087EF83F0A7EF83F0610023
:10071000CCF9D9F46100D0F9DAF4610078F306F687
:10072000610074F307F6840E086FFF0E096F000E68
:100730000B6F030E0A6FC7ECF2F0060106510711AA
:10074000D8A4A5EF83F0A7EF83F0EFEF83F0030EBB
:100750006100CCF9D9F46100D0F9DAF4DE26000E9C
:10076000DD226100D4F9D9F46100D8F9DAF461002E
:100770007CF377F6020EDE2661007CF378F6000E3D
:10078000DD226100DCF9D9F46100E0F9DAF4DF5030
:100790008E6F000E8EBFFF0E8F6F906F916F926FF6
:1007A000936F946F956F71C623F672C624F68EC64A
:1007B00025F68FC626F690C627F691C628F692C66D
:1007C00029F693C62AF694C62BF695C62CF6ECECC1
:1007D000DBF023C671F624C672F642EF99F0610091
:1007E000CCF9D9F46100D0F9DAF4610078F306F6B7
:1007F000610074F307F6790E086FFF0E096F000EA3
:100800000B6F020E0A6FC7ECF2F0060106510711DA
:10081000D8B40DEF84F00FEF84F02FEF84F0610077
:10082000CCF9D9F46100D0F9DAF4610078F306F676
:10083000610074F307F6850E086FFF0E096F000E56
:100840000B6F020E0A6FC7ECF2F00601065107119A
:10085000D8A42DEF84F02FEF84F060EF84F0020E27
:100860006100CCF9D9F46100D0F9DAF4DE26000E8B
:10087000DD226100D4F9D9F46100D8F9DAF461001D
:100880007CF377F6020EDE2661007CF378F6000E2C
:10089000DD226100DCF9D9F46100E0F9DAF46100ED
:1008A00078F38EF6610074F38FF6000E8FBFFF0EA3
:1008B000906F916F926F936F946F956FD3EF83F0FA
:1008C0006100CCF9D9F46100D0F9DAF4DEC4F6F4B1
:1008D000DDC4F7F4000EF86E0800F550640AD8B4D1
:1008E00074EF84F076EF84F08CEF84F06100CCF943
:1008F000D9F46100D0F9DAF4DEC4F6F4DDC4F7F41B
:10090000000EF86E0800F550690AD8A48AEF84F04A
:100910008CEF84F0BCEF84F06100CCF9D9F4610075
:10092000D0F9DAF4DE2A000EDD226100D4F9D9F420
:100930006100D8F9DAF461007CF377F6020EDE2666
:1009400061007CF378F6000EDD226100DCF9D9F459
:100950006100E0F9DAF4610078F38EF6610074F377
:100960008FF6000E8FBFFF0E906F916F926F936F97
:10097000946F956FD3EF83F06100CCF9D9F46100E7
:10098000D0F9DAF4610078F306F6610074F307F643
:100990007D0E086FFF0E096F000E0B6F020E0A6FBF
:1009A000C7ECF2F0060106510711D8B4DAEF84F073
:1009B000DCEF84F0FCEF84F06100CCF9D9F4610045
:1009C000D0F9DAF4610078F306F6610074F307F603
:1009D000890E086FFF0E096F000E0B6F020E0A6F73
:1009E000C7ECF2F0060106510711D8A4FAEF84F023
:1009F000FCEF84F04BEF85F0020E6100CCF9D9F4E6
:100A00006100D0F9DAF4DE26000EDD226100D4F9AF
:100A1000D9F46100D8F9DAF461007CF377F6040EBA
:100A2000DE2661007CF378F6000EDD226100DCF941
:100A3000D9F46100E0F9DAF4610078F379F6610045
:100A400078F37AF6610078F37BF6610078F37CF650
:100A500079C67DF67AC67EF67BC67FF67CC680F6C2
:100A6000816B80BF816981C682F681C683F681C6AB
:100A700084F67DC68EF67EC68FF67FC690F680C65B
:100A800091F681C692F682C693F683C694F684C622
:100A900095F6D3EF83F06100CCF9D9F46100D0F979
:100AA000DAF4610078F306F6610074F307F67C0E61
:100AB000086FFF0E096F000E0B6F030E0A6FC7EC75
:100AC000F2F0060106510711D8B469EF85F06BEF1B
:100AD00085F08BEF85F06100CCF9D9F46100D0F995
:100AE000DAF4610078F306F6610074F307F6880E15
:100AF000086FFF0E096F000E0B6F030E0A6FC7EC35
:100B0000F2F0060106510711D8A489EF85F08BEFAA
:100B100085F0D5EF85F0030E6100CCF9D9F46100C2
:100B2000D0F9DAF4DE26000EDD226100D4F9D9F422
:100B30006100D8F9DAF461007CF377F6080EDE265E
:100B400061007CF378F6000EDD226100DCF9D9F457
:100B50006100E0F9DAF4610078F379F6610078F386
:100B60007AF6610078F37BF6610078F37CF6610039
:100B700078F37DF6610078F37EF6610078F37FF616
:100B8000610078F380F679C68EF67AC68FF67BC65A
:100B900090F67CC691F67DC692F67EC693F67FC629
:100BA00094F680C695F6D3EF83F06100CCF9D9F4C2
:100BB0006100D0F9DAF4610078F306F6610074F3AD
:100BC00007F6C00E086FFF0E096F000E0B6F020EC6
:100BD0000A6FC7ECF2F0060106510711D8B4F3EF23
:100BE00085F0F5EF85F015EF86F06100CCF9D9F4CA
:100BF0006100D0F9DAF4610078F306F6610074F36D
:100C000007F6D20E086FFF0E096F000E0B6F020E73
:100C10000A6FC7ECF2F0060106510711D8A413EFD2
:100C200086F015EF86F05FEF86F0020E6100CCF9DA
:100C3000D9F46100D0F9DAF4DE26000EDD2261007D
:100C4000D4F9D9F46100D8F9DAF461007CF377F6CD
:100C5000080EDE2661007CF378F6000EDD226100CE
:100C6000DCF9D9F46100E0F9DAF4610078F379F69F
:100C7000610078F37AF6610078F37BF6610078F32F
:100C80007CF6610078F37DF6610078F37EF6610012
:100C900078F37FF6610078F380F679C68EF67AC62F
:100CA0008FF67BC690F67CC691F67DC692F67EC620
:100CB00093F67FC694F680C695F6D3EF83F0610075
:100CC000CCF9D9F46100D0F9DAF4610078F306F6D2
:100CD000610074F307F6C30E086FFF0E096F000E74
:100CE0000B6F020E0A6FC7ECF2F0060106510711F6
:100CF000D8B47DEF86F07FEF86F09FEF86F061003D
:100D0000CCF9D9F46100D0F9DAF4610078F306F691
:100D1000610074F307F6D50E086FFF0E096F000E21
:100D20000B6F020E0A6FC7ECF2F0060106510711B5
:100D3000D8A49DEF86F09FEF86F0D0EF86F0020EEC
:100D40006100CCF9D9F46100D0F9DAF4DE26000EA6
:100D5000DD226100D4F9D9F46100D8F9DAF4610038
:100D60007CF377F6020EDE2661007CF378F6000E47
:100D7000DD226100DCF9D9F46100E0F9DAF4610008
:100D800078F38EF6610074F38FF6000E8FBFFF0EBE
:100D9000906F916F926F936F946F956FD3EF83F015
:100DA0006100CCF9D9F46100D0F9DAF4610078F38C
:100DB00006F6610074F307F6C60E086FFF0E096FA2
:100DC000000E0B6F020E0A6FC7ECF2F0060106511F
:100DD0000711D8B4EEEF86F0F0EF86F010EF87F051
:100DE0006100CCF9D9F46100D0F9DAF4610078F34C
:100DF00006F6610074F307F6D80E086FFF0E096F50
:100E0000000E0B6F020E0A6FC7ECF2F006010651DE
:100E10000711D8A40EEF87F010EF87F042EF87F0AC
:100E2000020E6100CCF9D9F46100D0F9DAF4DE26C3
:100E3000000EDD226100D4F9D9F46100D8F9DAF4AA
:100E400061007CF377F6020EDE2661007CF378F613
:100E5000000EDD226100DCF9D9F46100E0F9DAF47A
:100E6000610078F379F6610074F37AF679C68EF64C
:100E70007AC68FF6906B916B926B936B946B956BBC
:100E8000D3EF83F0650E8B19D8A449EF87F04BEFB1
:100E900087F09CEF87F06100CCF9D9F46100D0F9BC
:100EA000DAF4DEC4F6F4DDC4F7F4000EF86E0800E0
:100EB0006100D4F39CF66100CCF9D9F46100D0F95B
:100EC000DAF4DE2A000EDD226100D4F9D9F46100E3
:100ED000D8F9DAF461007CF377F6040EDE266100BF
:100EE0007CF378F6000EDD226100DCF9D9F46100B4
:100EF000E0F9DAF4610078F398F6610078F399F696
:100F0000610078F39AF6610078F39BF671C633F6C8
:100F100072C634F698C635F699C636F69AC637F6CE
:100F20009BC638F69CC639F692ECB8F033C671F61B
:100F300034C672F642EF99F08B0E066F060E076FFD
:100F4000C90E086FFF0E096F000E0B6F020E0A6FBD
:100F5000C7ECF2F0060106510711D8A4B2EF87F0F2
:100F6000B4EF87F045EF88F06100CCF9D9F4610067
:100F7000D0F9DAF4610078F377F6610074F378F66B
:100F8000010E7727000E78236100DCF9F6F461008A
:100F9000E0F9F7F4000EF86E08006100D4F39CF657
:100FA000BF0E776FFF0E786F6100CCF9D9F4610046
:100FB000D0F9DAF4DEC4F6F4DDC4F7F4000EF86E0E
:100FC0000800F550796F7A6B7751792778517A2339
:100FD0007A5107E11A0E795DD8B0F1EF87F0F3EF9F
:100FE00087F017EF88F06100D4F9D9F46100D8F9DF
:100FF000DAF461007CF377F6040EDE2661007CF300
:1010000078F6000EDD226100DCF9D9F46100E0F928
:10101000DAF4610078F398F6610078F399F66100EC
:1010200078F39AF6610078F39BF639EF88F0610067
:10103000D4F9D9F46100D8F9DAF461007CF377F6D9
:10104000040EDE2661007CF378F6000EDD226100DE
:10105000DCF9D9F46100E0F9DAF4610078F398F68C
:10106000610078F399F6610078F39AF6610078F3FD
:101070009BF6020E6100CCF9D9F46100D0F9DAF4E4
:10108000DE26000EDD2286EF87F0660E8B19D8A4CF
:101090004CEF88F04EEF88F08BEF88F06100CCF9D0
:1010A000D9F46100D0F9DAF4DEC4F6F4DDC4F7F463
:1010B000000EF86E08006100D4F39CF66100CCF9D4
:1010C000D9F46100D0F9DAF4DE2A000EDD226100E5
:1010D000D4F9D9F46100D8F9DAF461007CF377F639
:1010E000040EDE2661007CF378F6000EDD2261003E
:1010F000DCF9D9F46100E0F9DAF4610078F398F6EC
:10110000610078F399F6610078F39AF6610078F35C
:101110009BF686EF87F08B0E066F060E076FCC0EE0
:10112000086FFF0E096F000E0B6F020E0A6FC7ECFF
:10113000F2F0060106510711D8A4A1EF88F0A3EF41
:1011400088F02AEF89F06100CCF9D9F46100D0F978
:10115000DAF4610078F377F6610074F378F6010E43
:101160007727000E78236100DCF9F6F46100E0F9DE
:10117000F7F4000EF86E08006100D4F39CF6BF0E81
:10118000776FFF0E786F6100CCF9D9F46100D0F968
:10119000DAF4DEC4F6F4DDC4F7F4000EF86E0800ED
:1011A000F550796F7A6B7751792778517A237A5194
:1011B00007E11A0E795DD8B0E0EF88F0E2EF88F031
:1011C00006EF89F06100D4F9D9F46100D8F9DAF4B6
:1011D00061007CF377F6040EDE2661007CF378F67E
:1011E000000EDD226100DCF9D9F46100E0F9DAF4E7
:1011F000610078F398F6610078F399F6610078F36E
:101200009AF6610078F39BF639EF88F06100D4F923
:10121000D9F46100D8F9DAF461007CF377F6040EB2
:10122000DE2661007CF378F6000EDD226100DCF939
:10123000D9F46100E0F9DAF4610078F398F661001E
:1012400078F399F6610078F39AF6610078F39BF6EB
:1012500039EF88F0670E8B19D8A431EF89F033EF9E
:1012600089F070EF89F06100CCF9D9F46100D0F910
:10127000DAF4DEC4F6F4DDC4F7F4000EF86E08000C
:101280006100D4F39CF66100CCF9D9F46100D0F987
:10129000DAF4DE2A000EDD226100D4F9D9F461000F
:1012A000D8F9DAF461007CF377F6040EDE266100EB
:1012B0007CF378F6000EDD226100DCF9D9F46100E0
:1012C000E0F9DAF4610078F398F6610078F399F6C2
:1012D000610078F39AF6610078F39BF686EF87F069
:1012E0008B0E066F060E076FCF0E086FFF0E096F8D
:1012F000000E0B6F020E0A6FC7ECF2F006010651EA
:101300000711D8A486EF89F088EF89F00FEF8AF0F3
:101310006100CCF9D9F46100D0F9DAF4610078F316
:1013200077F6610074F378F6010E7727000E7823C4
:101330006100DCF9F6F46100E0F9F7F4000EF86EF4
:1013400008006100D4F39CF6BF0E776FFF0E786F34
:101350006100CCF9D9F46100D0F9DAF4DEC4F6F416
:10136000DDC4F7F4000EF86E0800F550796F7A6B63
:101370007751792778517A237A5107E11A0E795DEE
:10138000D8B0C5EF89F0C7EF89F0EBEF89F06100C5
:10139000D4F9D9F46100D8F9DAF461007CF377F676
:1013A000040EDE2661007CF378F6000EDD2261007B
:1013B000DCF9D9F46100E0F9DAF4610078F398F629
:1013C000610078F399F6610078F39AF6610078F39A
:1013D0009BF639EF88F06100D4F9D9F46100D8F9AF
:1013E000DAF461007CF377F6040EDE2661007CF30C
:1013F00078F6000EDD226100DCF9D9F46100E0F935
:10140000DAF4610078F398F6610078F399F66100F8
:1014100078F39AF6610078F39BF639EF88F0610073
:10142000CCF9D9F46100D0F9DAF4610078F306F66A
:10143000610074F307F6980E086FFF0E096F000E37
:101440000B6F030E0A6FC7ECF2F00601065107118D
:10145000D8A42DEF8AF02FEF8AF076EF8AF0030EF2
:101460006100CCF9D9F46100D0F9DAF4DE26000E7F
:10147000DD226100D4F9D9F46100D8F9DAF4610011
:101480007CF377F6020EDE2661007CF378F6000E20
:10149000DD226100DCF9D9F46100E0F9DAF4DF5013
:1014A000796F79519D6F9E6B9F6BA06BA16BA26B47
:1014B000A36BA46B71C623F672C624F69DC625F6EF
:1014C0009EC626F69FC627F6A0C628F6A1C629F610
:1014D000A2C62AF6A3C62BF6A4C62CF6F3ECE9F0B6
:1014E00023C671F624C672F642EF99F06100CCF97A
:1014F000D9F46100D0F9DAF4610078F306F66100FE
:1015000074F307F6990E086FFF0E096F000E0B6F4C
:10151000020E0A6FC7ECF2F0060106510711D8A4BB
:1015200094EF8AF096EF8AF0C8EF8AF0020E61001D
:10153000CCF9D9F46100D0F9DAF4DE26000EDD2210
:101540006100D4F9D9F46100D8F9DAF461007CF3D0
:1015500077F6020EDE2661007CF378F6000EDD22BF
:101560006100DCF9D9F46100E0F9DAF4610078F3A4
:1015700079F6610074F37AF679C69DF67AC69EF61E
:101580009F6BA06BA16BA26BA36BA46B5AEF8AF04D
:101590006100CCF9D9F46100D0F9DAF4DEC4F6F4D4
:1015A000DDC4F7F4000EF86E0800F5506F0AD8A4F9
:1015B000DCEF8AF0DEEF8AF00FEF8BF06100CCF900
:1015C000D9F46100D0F9DAF4DE2A000EDD226100E0
:1015D000D4F9D9F46100D8F9DAF461007CF377F634
:1015E000020EDE2661007CF378F6000EDD2261003B
:1015F000DCF9D9F46100E0F9DAF4610078F379F606
:10160000610074F37AF679C69DF67AC69EF69F6BF2
:10161000A06BA16BA26BA36BA46B5AEF8AF0610065
:10162000CCF9D9F46100D0F9DAF4610078F306F668
:10163000610074F307F69D0E086FFF0E096F000E30
:101640000B6F020E0A6FC7ECF2F00601065107118C
:10165000D8A42DEF8BF02FEF8BF069EF8BF0020EFB
:101660006100CCF9D9F46100D0F9DAF4DE26000E7D
:10167000DD226100D4F9D9F46100D8F9DAF461000F
:101680007CF377F6040EDE2661007CF378F6000E1C
:10169000DD226100DCF9D9F46100E0F9DAF46100DF
:1016A00078F379F6610078F37AF6610078F37BF6E7
:1016B000610078F37CF679519D6F7A519E6F7B5172
:1016C0009F6F7C51A06FA16BA26BA36BA46B5AEFB1
:1016D0008AF06100CCF9D9F46100D0F9DAF4610044
:1016E00078F306F6610074F307F69C0E086FFF0EA0
:1016F000096F000E0B6F030E0A6FC7ECF2F00601C4
:1017000006510711D8A487EF8BF089EF8BF0D3EF48
:101710008BF0030E6100CCF9D9F46100D0F9DAF452
:10172000DE26000EDD226100D4F9D9F46100D8F97B
:10173000DAF461007CF377F6080EDE2661007CF3B4
:1017400078F6000EDD226100DCF9D9F46100E0F9E1
:10175000DAF4610078F379F6610078F37AF66100E3
:1017600078F37BF6610078F37CF6610078F37DF620
:10177000610078F37EF6610078F37FF6610078F31C
:1017800080F679C69DF67AC69EF67BC69FF67CC625
:10179000A0F67DC6A1F67EC6A2F67FC6A3F680C6D9
:1017A000A4F65AEF8AF06100CCF9D9F46100D0F9BF
:1017B000DAF4610078F306F6610074F307F6E40EDC
:1017C000086FFF0E096F000E0B6F020E0A6FC7EC59
:1017D000F2F0060106510711D8A4F1EF8BF0F3EFF8
:1017E0008BF03DEF8CF0020E6100CCF9D9F4610072
:1017F000D0F9DAF4DE26000EDD226100D4F9D9F446
:101800006100D8F9DAF461007CF377F6080EDE2681
:1018100061007CF378F6000EDD226100DCF9D9F47A
:101820006100E0F9DAF4610078F379F6610078F3A9
:101830007AF6610078F37BF6610078F37CF661005C
:1018400078F37DF6610078F37EF6610078F37FF639
:10185000610078F380F679C69DF67AC69EF67BC65F
:101860009FF67CC6A0F67DC6A1F67EC6A2F67FC610
:10187000A3F680C6A4F65AEF8AF06100CCF9D9F439
:101880006100D0F9DAF4610078F306F6610074F3D0
:1018900007F6E70E086FFF0E096F000E0B6F020EC2
:1018A0000A6FC7ECF2F0060106510711D8A45BEFEE
:1018B0008CF05DEF8CF08EEF8CF0020E6100CCF9B5
:1018C000D9F46100D0F9DAF4DE26000EDD226100E1
:1018D000D4F9D9F46100D8F9DAF461007CF377F631
:1018E000020EDE2661007CF378F6000EDD22610038
:1018F000DCF9D9F46100E0F9DAF4610078F39DF6DF
:10190000610074F39EF6000E9EBFFF0E9F6FA06FE6
:10191000A16FA26FA36FA46F5AEF8AF06100CCF998
:10192000D9F46100D0F9DAF4610078F306F66100C9
:1019300074F307F6EA0E086FFF0E096F000E0B6FC7
:10194000020E0A6FC7ECF2F0060106510711D8A487
:10195000ACEF8CF0AEEF8CF0E0EF8CF0020E61009B
:10196000CCF9D9F46100D0F9DAF4DE26000EDD22DC
:101970006100D4F9D9F46100D8F9DAF461007CF39C
:1019800077F6020EDE2661007CF378F6000EDD228B
:101990006100DCF9D9F46100E0F9DAF4610078F370
:1019A00079F6610074F37AF679C69DF67AC69EF6EA
:1019B0009F6BA06BA16BA26BA36BA46B5AEF8AF019
:1019C0006100CCF9D9F46100D0F9DAF4610078F360
:1019D00006F6610074F307F6900E086FFF0E096FAC
:1019E000000E0B6F030E0A6FC7ECF2F006010651F2
:1019F0000711D8A4FEEF8CF000EF8DF044EF8DF0CE
:101A0000030E6100CCF9D9F46100D0F9DAF4DE26D6
:101A1000000EDD226100D4F9D9F46100D8F9DAF4BE
:101A200061007CF377F6020EDE2661007CF378F627
:101A3000000EDD226100DCF9D9F46100E0F9DAF48E
:101A4000610078F396F6610074F397F6610058FA36
:101A5000F6F461005CFAF7F4000EF86E240EF764F9
:101A600005D0610064FBF5F40C0007D0F6C4E9F47E
:101A7000F7C4EAF4610064FBEFF4000E0601726F34
:101A8000000E716F42EF99F06100CCF9D9F461005A
:101A9000D0F9DAF4610078F306F6610074F307F622
:101AA000910E086FFF0E096F000E0B6F020E0A6F8A
:101AB000C7ECF2F0060106510711D8A462EF8DF0D1
:101AC00064EF8DF0AAEF8DF0020E6100CCF9D9F42D
:101AD0006100D0F9DAF4DE26000EDD226100D4F9CF
:101AE000D9F46100D8F9DAF461007CF377F6020EDC
:101AF000DE2661007CF378F6000EDD226100DCF961
:101B0000D9F46100E0F9DAF4610078F396F6610047
:101B100074F397F6610058FAF6F461005CFAF7F492
:101B2000000EF86E240EF76409D0610064FBF5F432
:101B30000D00610068FBF5F40C000AD0F6C4E9F46E
:101B4000F7C4EAF4610064FBEEF4610068FBEFF4B3
:101B50003DEF8DF06100CCF9D9F46100D0F9DAF4F1
:101B6000DEC4F6F4DDC4F7F4000EF86E0800F5509C
:101B70006E0AD8A4BEEF8DF0C0EF8DF005EF8EF0A9
:101B80006100CCF9D9F46100D0F9DAF4DE2A000E54
:101B9000DD226100D4F9D9F46100D8F9DAF46100EA
:101BA0007CF377F6020EDE2661007CF378F6000EF9
:101BB000DD226100DCF9D9F46100E0F9DAF46100BA
:101BC00078F396F6610074F397F6610058FAF6F42C
:101BD00061005CFAF7F4000EF86E240EF76409D089
:101BE000610064FBF5F40D00610068FBF5F40C0086
:101BF0000AD0F6C4E9F4F7C4EAF4610064FBEEF439
:101C0000610068FBEFF43DEF8DF06100CCF9D9F491
:101C10006100D0F9DAF4610078F306F6610074F33C
:101C200007F6950E086FFF0E096F000E0B6F020E80
:101C30000A6FC7ECF2F0060106510711D8A423EF92
:101C40008EF025EF8EF082EF8EF0020E6100CCF95F
:101C5000D9F46100D0F9DAF4DE26000EDD2261004D
:101C6000D4F9D9F46100D8F9DAF461007CF377F69D
:101C7000020EDE2661007CF378F6000EDD226100A4
:101C8000DCF9D9F46100E0F9DAF4610078F396F652
:101C9000610074F397F6D9C677F6DAC678F6000EC7
:101CA00078BFFF0E796F7A6F610058FAF6F4610021
:101CB0005CFAF7F4000EF86E240EF76411D06100A0
:101CC000DCF9F5F40D006100E0F9F5F40D006100B8
:101CD000E4F9F5F40D006100E8F9F5F40C0010D01A
:101CE000F6C4E9F4F7C4EAF46100DCF9EEF461004B
:101CF000E0F9EEF46100E4F9EEF46100E8F9EFF4E4
:101D00003DEF8DF06100CCF9D9F46100D0F9DAF43F
:101D1000610078F306F6610074F307F6940E086F1D
:101D2000FF0E096F000E0B6F030E0A6FC7ECF2F087
:101D3000060106510711D8A4A0EF8EF0A2EF8EF095
:101D40001FEF8FF0030E6100CCF9D9F46100D0F9D8
:101D5000DAF4DE26000EDD226100D4F9D9F4610048
:101D6000D8F9DAF461007CF377F6020EDE26610022
:101D70007CF378F6000EDD226100DCF9D9F4610015
:101D8000E0F9DAF4610078F396F6610074F397F6FF
:101D9000D9C677F6DAC678F6000E78BFFF0E796FEF
:101DA0007A6F7B6F7C6F7D6F7E6F610058FAF6F4FF
:101DB00061005CFAF7F4000EF86E240EF76421D08F
:101DC0006100DCF9F5F40D006100E0F9F5F40D00B7
:101DD0006100E4F9F5F40D006100E8F9F5F40D0097
:101DE0006100ECF9F5F40D006100F0F9F5F40D0077
:101DF0006100F4F9F5F40D006100F8F9F5F40C0058
:101E00001CD0F6C4E9F4F7C4EAF46100DCF9EEF49E
:101E10006100E0F9EEF46100E4F9EEF46100E8F944
:101E2000EEF46100ECF9EEF46100F0F9EEF461001B
:101E3000F4F9EEF46100F8F9EFF43DEF8DF0610094
:101E4000CCF9D9F46100D0F9DAF4610078F306F640
:101E5000610074F307F6DB0E086FFF0E096F000ECA
:101E60000B6F020E0A6FC7ECF2F006010651071164
:101E7000D8A43DEF8FF03FEF8FF0BCEF8FF0020E54
:101E80006100CCF9D9F46100D0F9DAF4DE26000E55
:101E9000DD226100D4F9D9F46100D8F9DAF46100E7
:101EA0007CF377F6020EDE2661007CF378F6000EF6
:101EB000DD226100DCF9D9F46100E0F9DAF46100B7
:101EC00078F396F6610074F397F6D9C677F6DAC61A
:101ED00078F6000E78BFFF0E796F7A6F7B6F7C6F9C
:101EE0007D6F7E6F610058FAF6F461005CFAF7F4DA
:101EF000000EF86E240EF76421D06100DCF9F5F4D1
:101F00000D006100E0F9F5F40D006100E4F9F5F46D
:101F10000D006100E8F9F5F40D006100ECF9F5F44D
:101F20000D006100F0F9F5F40D006100F4F9F5F42D
:101F30000D006100F8F9F5F40C001CD0F6C4E9F4CA
:101F4000F7C4EAF46100DCF9EEF46100E0F9EEF4C4
:101F50006100E4F9EEF46100E8F9EEF46100ECF9F7
:101F6000EEF46100F0F9EEF46100F4F9EEF46100D2
:101F7000F8F9EFF43DEF8DF06100CCF9D9F4610090
:101F8000D0F9DAF4610078F306F6610074F307F62D
:101F9000DE0E086FFF0E096F000E0B6F020E0A6F48
:101FA000C7ECF2F0060106510711D8A4DAEF8FF062
:101FB000DCEF8FF022EF90F0020E6100CCF9D9F443
:101FC0006100D0F9DAF4DE26000EDD226100D4F9DA
:101FD000D9F46100D8F9DAF461007CF377F6020EE7
:101FE000DE2661007CF378F6000EDD226100DCF96C
:101FF000D9F46100E0F9DAF4610078F396F6610053
:1020000074F397F6610058FAF6F461005CFAF7F49D
:10201000000EF86E240EF76409D0610064FBF5F43D
:102020000D00610068FBF5F40C000AD0F6C4E9F479
:10203000F7C4EAF4610064FBEEF4610068FBEFF4BE
:102040003DEF8DF06100CCF9D9F46100D0F9DAF4FC
:10205000610078F306F6610074F307F6E10E086F8D
:10206000FF0E096F000E0B6F020E0A6FC7ECF2F045
:10207000060106510711D8A440EF90F042EF90F00E
:1020800088EF90F0020E6100CCF9D9F46100D0F92C
:10209000DAF4DE26000EDD226100D4F9D9F4610005
:1020A000D8F9DAF461007CF377F6020EDE266100DF
:1020B0007CF378F6000EDD226100DCF9D9F46100D2
:1020C000E0F9DAF4610078F396F6610074F397F6BC
:1020D000610058FAF6F461005CFAF7F4000EF86E4D
:1020E000240EF76409D0610064FBF5F40D00610073
:1020F00068FBF5F40C000AD0F6C4E9F4F7C4EAF47E
:10210000610064FBEEF4610068FBEFF43DEF8DF0DD
:102110006100CCF9D9F46100D0F9DAF4DEC4F6F448
:10212000DDC4F7F4000EF86E0800F550700AD8A46C
:102130009CEF90F09EEF90F0EBEF90F06100CCF907
:10214000D9F46100D0F9DAF4DE2A000EDD22610054
:10215000D4F9D9F46100D8F9DAF461007CF377F6A8
:10216000020EDE2661007CF378F6000EDD226100AF
:10217000DCF9D9F46100E0F9DAF4610078F379F67A
:10218000610074F37AF679C69DF67AC69EF69F6B67
:10219000A06BA16BA26BA36BA46B71C623F672C676
:1021A00024F69DC625F69EC626F69FC627F6A0C62F
:1021B00028F6A1C629F6A2C62AF6A3C62BF6A4C6FF
:1021C0002CF6780E2D6FD2ECDEF023C671F624C605
:1021D00072F642EF99F06100CCF9D9F46100D0F9C0
:1021E000DAF4DEC4F6F4DDC4F7F4000EF86E08008D
:1021F000F550730AD8B4FFEF90F001EF91F021EFA2
:1022000091F06100CCF9D9F46100D0F9DAF4610001
:1022100078F306F6610074F307F6A00E086FFF0E60
:10222000096F000E0B6F030E0A6FC7ECF2F0060188
:1022300006510711D8A41FEF91F021EF91F077EF2D
:1022400091F06100CCF9D9F46100D0F9DAF4DEC480
:10225000F6F4DDC4F7F4000EF86E0800F550730ACA
:10226000D8B435EF91F037EF91F03DEF91F0000EDB
:102270008A6F030E896F41EF91F0000E8A6F010E95
:10228000896F6100CCF9D9F46100D0F9DAF4895191
:10229000DE268A51DD226100D4F9D9F46100D8F933
:1022A000DAF461007CF377F6020EDE2661007CF33F
:1022B00078F6000EDD226100DCF9D9F46100E0F966
:1022C000DAF4610078F385F6610074F386F671C67E
:1022D00011F672C612F685C613F686C614F6B3EC6E
:1022E000ECF011C671F612C672F642EF99F0610079
:1022F000CCF9D9F46100D0F9DAF4610078F306F68C
:10230000610074F307F6A40E086FFF0E096F000E4C
:102310000B6F030E0A6FC7ECF2F0060106510711AE
:10232000D8A495EF91F097EF91F0DEEF91F0030EC6
:102330006100CCF9D9F46100D0F9DAF4DE26000EA0
:10234000DD226100D4F9D9F46100D8F9DAF4610032
:102350007CF377F6020EDE2661007CF378F6000E41
:10236000DD226100DCF9D9F46100E0F9DAF4DF5034
:10237000796F79519D6F9E6B9F6BA06BA16BA26B68
:10238000A36BA46B71C623F672C624F69DC625F610
:102390009EC626F69FC627F6A0C628F6A1C629F631
:1023A000A2C62AF6A3C62BF6A4C62CF6FBECE5F0D3
:1023B00023C671F624C672F642EF99F06100CCF99B
:1023C000D9F46100D0F9DAF4610078F306F661001F
:1023D00074F307F6A50E086FFF0E096F000E0B6F62
:1023E000020E0A6FC7ECF2F0060106510711D8A4DD
:1023F000FCEF91F0FEEF91F030EF92F0020E6100F1
:10240000CCF9D9F46100D0F9DAF4DE26000EDD2231
:102410006100D4F9D9F46100D8F9DAF461007CF3F1
:1024200077F6020EDE2661007CF378F6000EDD22E0
:102430006100DCF9D9F46100E0F9DAF4610078F3C5
:1024400079F6610074F37AF679C69DF67AC69EF63F
:102450009F6BA06BA16BA26BA36BA46BC2EF91F0FF
:102460006100CCF9D9F46100D0F9DAF4DEC4F6F4F5
:10247000DDC4F7F4000EF86E0800F550750AD8A414
:1024800044EF92F046EF92F077EF92F06100CCF9D2
:10249000D9F46100D0F9DAF4DE2A000EDD22610001
:1024A000D4F9D9F46100D8F9DAF461007CF377F655
:1024B000020EDE2661007CF378F6000EDD2261005C
:1024C000DCF9D9F46100E0F9DAF4610078F379F627
:1024D000610074F37AF679C69DF67AC69EF69F6B14
:1024E000A06BA16BA26BA36BA46BC2EF91F0610018
:1024F000CCF9D9F46100D0F9DAF4610078F306F68A
:10250000610074F307F6A90E086FFF0E096F000E45
:102510000B6F020E0A6FC7ECF2F0060106510711AD
:10252000D8A495EF92F097EF92F0D1EF92F0020ECF
:102530006100CCF9D9F46100D0F9DAF4DE26000E9E
:10254000DD226100D4F9D9F46100D8F9DAF4610030
:102550007CF377F6040EDE2661007CF378F6000E3D
:10256000DD226100DCF9D9F46100E0F9DAF4610000
:1025700078F379F6610078F37AF6610078F37BF608
:10258000610078F37CF679519D6F7A519E6F7B5193
:102590009F6F7C51A06FA16BA26BA36BA46BC2EF6A
:1025A00091F06100CCF9D9F46100D0F9DAF461005E
:1025B00078F306F6610074F307F6A80E086FFF0EB5
:1025C000096F000E0B6F030E0A6FC7ECF2F00601E5
:1025D00006510711D8A4EFEF92F0F1EF92F03BEF24
:1025E00093F0030E6100CCF9D9F46100D0F9DAF46C
:1025F000DE26000EDD226100D4F9D9F46100D8F99D
:10260000DAF461007CF377F6080EDE2661007CF3D5
:1026100078F6000EDD226100DCF9D9F46100E0F902
:10262000DAF4610078F379F6610078F37AF6610004
:1026300078F37BF6610078F37CF6610078F37DF641
:10264000610078F37EF6610078F37FF6610078F33D
:1026500080F679C69DF67AC69EF67BC69FF67CC646
:10266000A0F67DC6A1F67EC6A2F67FC6A3F680C6FA
:10267000A4F6C2EF91F06100CCF9D9F46100D0F971
:10268000DAF4610078F306F6610074F307F6ED0EF4
:10269000086FFF0E096F000E0B6F020E0A6FC7EC7A
:1026A000F2F0060106510711D8A459EF93F05BEF41
:1026B00093F0A5EF93F0020E6100CCF9D9F461001C
:1026C000D0F9DAF4DE26000EDD226100D4F9D9F467
:1026D0006100D8F9DAF461007CF377F6080EDE26A3
:1026E00061007CF378F6000EDD226100DCF9D9F49C
:1026F0006100E0F9DAF4610078F379F6610078F3CB
:102700007AF6610078F37BF6610078F37CF661007D
:1027100078F37DF6610078F37EF6610078F37FF65A
:10272000610078F380F679C69DF67AC69EF67BC680
:102730009FF67CC6A0F67DC6A1F67EC6A2F67FC631
:10274000A3F680C6A4F6C2EF91F06100CCF9D9F4EB
:102750006100D0F9DAF4610078F306F6610074F3F1
:1027600007F6F00E086FFF0E096F000E0B6F020EDA
:102770000A6FC7ECF2F0060106510711D8A4C3EFA7
:1027800093F0C5EF93F0F6EF93F0020E6100CCF9F1
:10279000D9F46100D0F9DAF4DE26000EDD22610002
:1027A000D4F9D9F46100D8F9DAF461007CF377F652
:1027B000020EDE2661007CF378F6000EDD22610059
:1027C000DCF9D9F46100E0F9DAF4610078F39DF600
:1027D000610074F39EF6000E9EBFFF0E9F6FA06F08
:1027E000A16FA26FA36FA46FC2EF91F06100CCF94B
:1027F000D9F46100D0F9DAF4610078F306F66100EB
:1028000074F307F6F30E086FFF0E096F000E0B6FDF
:10281000020E0A6FC7ECF2F0060106510711D8A4A8
:1028200014EF94F016EF94F048EF94F0020E61006C
:10283000CCF9D9F46100D0F9DAF4DE26000EDD22FD
:102840006100D4F9D9F46100D8F9DAF461007CF3BD
:1028500077F6020EDE2661007CF378F6000EDD22AC
:102860006100DCF9D9F46100E0F9DAF4610078F391
:1028700079F6610074F37AF679C69DF67AC69EF60B
:102880009F6BA06BA16BA26BA36BA46BC2EF91F0CB
