:040000000DEF00F010
:0400080059EFFBF0C1
:10001800FF00EAEF07F0000E06010B6F09BF19EFAA
:1000280000F017EF00F01FEF00F0086D091FD8B0BF
:10003800092B010E0B6F07BF26EF00F024EF00F02D
:100048002CEF00F0066D071FD8B0072B010E0B1B15
:10005800000E0D6F000E0C6F08510911D8B437EF60
:1000680000F039EF00F061EF00F0010E0A6F41EF88
:1000780000F0D890083709370A2B09AF46EF00F08F
:1000880048EF00F03DEF00F0D8900C370D370851DD
:10009800065D09510759D8A054EF00F056EF00F05B
:1000A8005BEF00F00851065F0951075B0C81D8909F
:1000B800093308330A2F48EF00F00B51D8B467EF23
:1000C80000F069EF00F06DEF00F00C6D0D1FD8B077
:1000D8000D2B0CC606F60DC607F612000601DFA1A9
:1000E80078EF00F07AEF00F084EF00F015C50CF51A
:1000F80016C50DF513C50EF514C50FF50AEC10F06D
:1001080018BE89EF00F08BEF00F091EF00F017C5F3
:100118001CF518C51DF595EF00F0000E1D6E000EBC
:100128001C6E000E1B6E000E1A6EA7EF00F0000E7C
:10013800046E200E036E13C505F514C506F513EC01
:10014800FDF01A4A1B2A1C501A5C1B50800A196EB3
:100158001D50800A1958D8A0B4EF00F0B6EF00F08F
:100168009BEF00F00601DFB1BCEF00F0BEEF00F03E
:10017800C8EF00F015C50CF516C50DF513C50EF53D
:1001880014C50FF50AEC10F015C501F516C502F5F2
:1001980089EC0DF01C500124136E1D500220146EC2
:1001A8001200000E066E04BEDEEF00F0DCEF00F079
:1001B800E4EF00F0036C041ED8B0042A010E066EAA
:1001C80002BEEBEF00F0E9EF00F0F1EF00F0016C98
:1001D800021ED8B0022A010E061A000E086E000E82
:1001E800076E03500410D8B4FCEF00F0FEEF00F0E7
:1001F80026EF01F0010E056E06EF01F0D8900336E8
:100208000436052A04AE0BEF01F00DEF01F002EF02
:1002180001F0D890073608360350015C04500258A4
:10022800D8A019EF01F01BEF01F020EF01F0035007
:10023800015E0450025A0780D89004320332052E1A
:100248000DEF01F00650D8B42CEF01F02EEF01F0BD
:1002580032EF01F0076C081ED8B0082A07C501F56F
:1002680008C502F51200D7AE3CEF01F0ECEF04F040
:10027800D5EC15F00009D8A444EF01F046EF01F0E1
:1002880049EF01F0040E92EF01F007012951030B29
:100298000009D8B452EF01F054EF01F066EF01F015
:1002A800010E0601156F07012951030B0601166F90
:1002B8001551165F0701295106011619FC0B16196D
:1002C8000701296F2507D8A0260725512611D8B47C
:1002D80070EF01F072EF01F080EF01F085EC17F09C
:1002E80061008CFCD9F4610090FCDAF4DF6E070140
:1002F800234B242B46EF01F045EC02F00601176F63
:1003080085EC17F061008CFCD9F4610090FCDAF4FC
:10031800DF6E0701234B242B060117511200A7900B
:10032800720E0601066FFD0E076F010E086FB7EC1F
:1003380016F0A792BA0E0601066F1E0E076F000E82
:10034800086FB0EC16F0000E0201CB6F000ECD6FF7
:10035800000ECF6FB00ED16F800ED26F000ED36F2C
:10036800440ED46F000ED56F000ED66F000ED76FF7
:10037800000ED86F000ED96F8C0E0601066F2F0E77
:10038800076F000E086FC5EC16F08A0E0601066F9F
:100398002F0E076F000E086FBEEC16F02E0E06012A
:1003A800066F2F0E076F000E086FCCEC16F0000ECC
:1003B8000601F16F000EF66F000EF56F080EF86F6C
:1003C800000EF46F000EF36F000EF26FA78012009C
:1003D800000E06010B6F07BFF6EF01F0F4EF01F016
:1003E800FCEF01F0066D071FD8B0072B010E0B6F4D
:1003F80009BF03EF02F001EF02F007EF02F0086D0A
:10040800091FD8B0092B08510911D8B40EEF02F012
:1004180010EF02F034EF02F0010E0A6F18EF02F04D
:10042800D890083709370A2B09AF1DEF02F01FEFE4
:1004380002F014EF02F00851065D09510759D8A0DF
:1004480028EF02F02AEF02F02EEF02F00851065FC3
:100458000951075BD890093308330A2F1FEF02F0C0
:100468000B51D8B43AEF02F03CEF02F040EF02F043
:10047800066D071FD8B0072B06C606F607C607F68F
:100488001200D7AE4AEF02F048EF04F007012989BD
:100498006EEF02F088EC17F0080E9CEF02F088EC83
:1004A80017F0070E9CEF02F0070125290AEC17F058
:1004B800040E9CEF02F0070E07012719D8B467EF66
:1004C80002F069EF02F06BEF02F08BEC17F00F0E01
:1004D8009CEF02F012C711F613C712F602D87FEF8D
:1004E80002F00500FA6E0051FD6E0151FE6E0251D8
:1004F800FF6EFA5012000601136F146B1451000AB4
:10050800D8B489EF02F05FEF02F01351010AD8B4B2
:100518005FEF02F0030AD8B453EF02F0010AD8B42F
:100528004EEF02F0070AD8B458EF02F05FEF02F07E
:100538001200000E066E02BEA6EF02F0A4EF02F053
:10054800ACEF02F0016C021ED8B0022A010E066E52
:1005580004BEB3EF02F0B1EF02F0B7EF02F0036CA4
:10056800041ED8B0042A03500410D8B4BEEF02F019
:10057800C0EF02F0E4EF02F0010E056EC8EF02F0E2
:10058800D89003360436052A04AECDEF02F0CFEF3B
:1005980002F0C4EF02F00350015C04500258D8A0E6
:1005A800D8EF02F0DAEF02F0DEEF02F00350015E5E
:1005B8000450025AD89004320332052ECFEF02F0CD
:1005C8000650D8B4EAEF02F0ECEF02F0F0EF02F0D8
:1005D800016C021ED8B0022A01C501F502C502F558
:1005E80012000601066F010E0601076F070129B701
:1005F80000EF03F002EF03F048EF03F006C622F71E
:1006080029952987FC0E29170F0E276F010E216FD8
:10061800F40E206F2989520E006F2D0E016F000E07
:10062800026F000E126F000E136F520E036F2D0E25
:10063800046F000E056F000E146F000E156F520E3A
:10064800066F2D0E076F000E086F000E166F000E56
:10065800176F520E096F2D0E0A6F000E0B6F000EEA
:10066800186F000E196F440E0C6F2D0E0D6F000ED3
:100678000E6F000E1A6F000E1B6F5DEC17F0DFECAB
:1006880013F0000E0601076F060107511200000E55
:10069800060106150E6F000E07150F6F800E081560
:1006A800106F7F0E0915116F0E510F1110111111D6
:1006B800D8A461EF03F063EF03F06BEF03F0000ED3
:1006C800066F000E076F000E086F000E096F000E10
:1006D8000A150E6F000E0B150F6F800E0C15106F9C
:1006E8007F0E0D15116F0E510F1110111111D8A495
:1006F80080EF03F082EF03F08AEF03F0000E0A6F39
:10070800000E0B6F000E0C6F000E0D6F0A510619CC
:100718000FE10B5107190CE10C51081909E10D51B2
:100728000919D8B49AEF03F09CEF03F09FEF03F098
:10073800D890A0EF03F0D8801200000E0114096EC3
:10074800000E02140A6E800E03140B6E7F0E041442
:100758000C6E09500A100B100C10D8A4B6EF03F059
:10076800B8EF03F0C0EF03F0000E016E000E026E4A
:10077800000E036E000E046E000E0514096E000EC6
:1007880006140A6E800E07140B6E7F0E08140C6E8A
:1007980009500A100B100C10D8A4D5EF03F0D7EFAE
:1007A80003F0DFEF03F0000E056E000E066E000E7C
:1007B800076E000E086E055001180FE1065002186A
:1007C8000CE10750031809E108500418D8B4EFEFFA
:1007D80003F0F1EF03F0F4EF03F0D890F5EF03F036
:1007E800D8801200016E010E026E070129B7FFEFD3
:1007F80003F001EF04F046EF04F001C522F7299554
:100808002987FC0E29170F0E276F010E216FF40E92
:10081800206F2989860E006F2F0E016F000E026F60
:10082800000E126F000E136F860E036F2F0E046FEB
:10083800000E056F000E146F000E156F860E066F02
:100848002F0E076F000E086F000E166F000E176F41
:10085800860E096F2F0E0A6F000E0B6F000E186FB1
:10086800000E196F820E0C6F2F0E0D6F000E0E6F9B
:10087800000E1A6F000E1B6F71EC17F009EC14F0E4
:10088800000E026E02501200070129896CEF04F075
:10089800ACEC17F0080E99EF04F0ACEC17F0070E6B
:1008A80099EF04F0070125294FEC17F0040E99EF92
:1008B80004F0070E07012719D8B465EF04F067EFB5
:1008C80004F069EF04F0AFEC17F00F0E99EF04F0A5
:1008D80012C70CF513C70DF502D87DEF04F005001B
:1008E800FA6E0051FD6E0151FE6E0251FF6EFA5014
:1008F80012000E6E0F6A0F50000AD8B486EF04F08B
:100908005DEF04F00E50010AD8B45DEF04F0030A5D
:10091800D8B451EF04F0010AD8B44CEF04F0070A38
:10092800D8B456EF04F05DEF04F01200000E096E23
:10093800000E0A6E000E0B6E000E0C6E05500610AF
:1009480007100810D8B4ABEF04F0ADEF04F0E3EFF4
:1009580004F0010E0D6EB7EF04F0D8900536063698
:10096800073608360D2A08AEBCEF04F0BEEF04F0D7
:10097800B1EF04F0D89009360A360B360C3605501C
:10098800015C065002580750035808500458D8A074
:10099800D0EF04F0D2EF04F0DBEF04F00550015E75
:1009A8000650025A0750035A0850045A0980D89032
:1009B80008320732063205320D2EBEEF04F009C5A3
:1009C80001F50AC502F50BC503F50CC504F51200BF
:1009D80022EC16F00009D8A4F4EF04F0F6EF04F0C6
:1009E800F9EF04F0040E3AEF05F007012951030B63
:1009F8000009D8B402EF05F004EF05F010EF05F098
:100A0800010E016E2951030B026E0150025E29513D
:100A18000218FC0B0218296F2507D8A026072551B4
:100A28002611D8B41AEF05F01CEF05F02AEF05F0EF
:100A3800A9EC17F061008CFCD9F4610090FCDAF4A1
:100A4800DF6E0701234B242BF6EF04F048EC04F08B
:100A5800036EA9EC17F061008CFCD9F4610090FCDE
:100A6800DAF4DF6E0701234B242B0350120094ECB9
:100A7800C9F00EC542F50FC543F510C544F511C5BB
:100A880045F5000EC9ECEBF042C550F543C551F5EC
:100A980044C552F545C553F5000E546E000E556E0B
:100AA8007A0E566E440E576E1EECDAF050C56DF590
:100AB80051C56EF552C56FF553C570F56DC501F595
:100AC8006EC502F56FC503F570C504F5B10E056E68
:100AD800310E066E970E076E3E0E086E29ECD6F0A4
:100AE80001C56DF502C56EF503C56FF504C570F552
:100AF8006DC55CF56EC55DF56FC55EF570C55FF5D6
:100B0800120006010B6F0601065107110811D8B42F
:100B180090EF05F092EF05F0B3EF05F00B51030DE0
:100B2800000EF324D96E070EF420DA6E610018F86F
:100B3800DEF461001CF8DEF4610020F8DEF40B51ED
:100B4800020D120EF324D96E070EF420DA6E61003E
:100B580024F8DEF4610028F8DDF4CDEF05F00B5140
:100B6800030D000EF324D96E070EF420DA6E520E30
:100B7800DE6E2D0EDE6E000EDE6E0B51020D120EB5
:100B8800F324D96E070EF420DA6E000EDE6E000E26
:100B9800DD6E12000601206F1CC623F61DC624F662
:100BA8001EC621F61FC622F606012051F5EC02F0FA
:100BB8000009D8B4E2EF05F0E4EF05F0D8EF05F04E
:100BC800940E06010C6F170E0D6F000E0E6F210E9E
:100BD8000F6F060E106FF0EC14F01B0E0601066F77
:100BE800060E076F000E096F010E086F6DEC14F00A
:100BF800000E06010C6F000E0D6F000E0E6F000E3A
:100C08000F6F000E106FE2EC14F059EC17F0E8ECDF
:100C1800FFF0E806D8B413EF06F015EF06F00BEF77
:100C280006F01200066E015002100310D8B41FEF30
:100C380006F021EF06F042EF06F00650030D000E15
:100C4800F324D96E070EF420DA6E610004F4DEF4A2
:100C5800610008F4DEF461000CF4DEF40650020DC5
:100C6800120EF324D96E070EF420DA6E610010F428
:100C7800DEF4610014F4DDF45CEF06F00650030DB9
:100C8800000EF324D96E070EF420DA6E860EDE6E9F
:100C98002F0EDE6E000EDE6E0650020D120EF324CD
:100CA800D96E070EF420DA6E000EDE6E000EDD6ED1
:100CB800120006011C6F000E06011D6F06011C5173
:100CC800F5EC02F00009D8B46CEF06F06EEF06F010
:100CD80062EF06F0560E06010C6F210E0D6F000E26
:100CE8000E6F1D0E0F6F060E106FF0EC14F01B0E3A
:100CF8000601066F060E076F000E096F010E086FDA
:100D08006DEC14F0000E06010C6F000E0D6F000E56
:100D18000E6F000E0F6F000E106FE2EC14F059EC1E
:100D280017F0E8ECFFF0E806D8B49DEF06F09FEF67
:100D380006F095EF06F006011D511200D7AEA7EF99
:100D480006F0ABEF07F007012989BCEF06F088EC45
:100D580017F0070EE6EF06F0070125290AEC17F051
:100D6800030EE6EF06F08BEC17F00A0EE6EF06F03E
:100D780012C711F613C712F602D8CDEF06F0050018
:100D8800FA6E0051FD6E0151FE6E0251FF6EFA506F
:100D980012000601136F146B1451000AD8B4D7EF70
:100DA80006F0B7EF06F01351010AD8B4B7EF06F012
:100DB800030AD8B4ABEF06F0060AD8B4B0EF06F0D1
:100DC800B7EF06F012001B6E17C51EF518C51FF504
:100DD80019C51CF51AC51DF51B50F6EC03F00009E2
:100DE800D8B4F9EF06F0FBEF06F0F0EF06F0AE0E20
:100DF800076E1C0E086E000E096E1C0E0A6E050E9C
:100E08000B6E28EC15F0160E016E050E026E000E24
:100E1800046E010E036E91EC14F0000E076E000EC6
:100E2800086E000E096E000E0A6E000E0B6E1AECAC
:100E380015F061EC17F0C9EC13F0E806D8B427EF09
:100E480007F029EF07F01FEF07F01200D7AE2FEFDA
:100E580007F0DEEF08F05DEC17F0020E0701286FCF
:100E680042EF07F084EC15F06AEF07F09BEC16F000
:100E78006AEF07F051EC15F06AEF07F014C711F6A6
:100E880015C712F621EE03F302D855EF07F0050057
:100E9800FA6EDE50FD6EDE50FE6EDE50FF6EFA50CA
:100EA80012000601136F146B1451000AD8B45FEFD7
:100EB80007F03EEF07F01351020AD8B436EF07F0F7
:100EC800010AD8B43AEF07F03EEF07F01200060126
:100ED8001D6F06011D51F5EC02F00009D8B477EF3B
:100EE80007F079EF07F06DEF07F0DA0E06010C6FE7
:100EF800200E0D6F000E0E6F1C0E0F6F060E106F7A
:100F0800F0EC14F01B0E0601066F060E076F000EBC
:100F1800096F010E086F6DEC14F0000E06010C6FDE
:100F2800000E0D6F000E0E6F000E0F6F000E106F8B
:100F3800E2EC14F059EC17F0E8ECFFF0E806D8B44E
:100F4800A8EF07F0AAEF07F0A0EF07F012000701DB
:100F58002989C0EF07F0ACEC17F0070EE9EF07F0AE
:100F6800070125294FEC17F0030EE9EF07F0AFEC66
:100F780017F00A0EE9EF07F012C70CF513C70DF5C5
:100F880002D8D1EF07F00500FA6E0051FD6E01514D
:100F9800FE6E0251FF6EFA5012000E6E0F6A0F506D
:100FA800000AD8B4DAEF07F0BBEF07F00E50010AD9
:100FB800D8B4BBEF07F0030AD8B4AFEF07F0060ABE
:100FC800D8B4B4EF07F0BBEF07F01200EA0EF66EE4
:100FD8002E0EF76E000EF86E01EEF0F310EE07F02D
:100FE8000900F5C4EEF4E550E150FAE102EE00F232
:100FF80010EE00F1EE6AE550E150FCE1E250FAE152
:1010080002EE00F1800EEE6AE806FDE102EE00F065
:10101800F80EEE6AE806FDE101EE00F3CD0EEE6A89
:10102800E806FDE101EED9F21F0EEE6AE806FDE1E1
:101038000501FF6B0401080E5D6F000E5E6F000E68
:101048005F6F00010BEF0DF0000E0201A56F000E9F
:10105800A66F000EA76F000EA86F000EA96F000EF6
:10106800AA6FA00EAB6F800EAC6F000EAD6F820E34
:10107800AE6F060EAF6F000EB06F000EB16F000EB0
:10108800B26F000EB36F000E0601066F000E076FF9
:10109800000E086FDAEC16F0000E0601066F000E5F
:1010A800076F000E086FD3EC16F0000E0601066FEE
:1010B800000E076F000E086FE1EC16F0000E060137
:1010C800F76F1200D7AE6BEF08F033EF0AF0FC0EA3
:1010D80007012917020E286F29957AEF08F094EC7A
:1010E80016F0A2EF08F00F0EA2EF08F016C711F6DF
:1010F80017C712F621EE06F302D88DEF08F00500A7
:10110800FA6EDE50FD6EDE50FE6EDE50FF6EFA5057
:1011180012000601136F146B1451000AD8B497EF2C
:1011280008F077EF08F01351020AD8B473EF08F00B
:10113800010AD8B473EF08F077EF08F01200186EC0
:101148001850F6EC03F00009D8B4ADEF08F0AFEF93
:1011580008F0A4EF08F05E0E076E250E086E000E6C
:10116800096E170E0A6E050E0B6E28EC15F0160E9A
:10117800016E050E026E000E046E010E036E91ECF8
:1011880014F0000E076E000E086E000E096E000EB9
:101198000A6E000E0B6E1AEC15F061EC17F0C9EC34
:1011A80013F0E806D8B4DBEF08F0DDEF08F0D3EF72
:1011B80008F0120071EC17F0020E0701286FF1EF2A
:1011C80008F0FDEC16F018EF09F0BFEC17F018EF77
:1011D80009F084EC16F018EF09F014C70CF515C7E0
:1011E8000DF521EE03F302D804EF09F00500FA6EBD
:1011F800DE50FD6EDE50FE6EDE50FF6EFA501200BD
:101208000E6E0F6A0F50000AD8B40DEF09F0EDEF1B
:1012180008F00E50020AD8B4E5EF08F0010AD8B475
:10122800E9EF08F0EDEF08F01200B3EC0DF007015C
:101238002951030B0009D8B424EF09F026EF09F06F
:1012480033EF09F0CAEC15F00009D8B42EEF09F015
:1012580030EF09F033EF09F0100E0701276F07018F
:101268002751030DCD0EF324F66EFD0EF420F76E14
:10127800F86A000EF82202D84FEF09F00500FA6E5E
:101288000900F550FD6E0900F550FE6E0900F55095
:10129800FF6EFA5012000701276F1200F1C5F5F52D
:1012A800F2C5F6F5000E0601DA6F000ED96F74EF7D
:1012B80009F0EFC5BBF5F0C5BCF5F50E0501BD6F2E
:1012C800050EBE6FF3C5BFF5F4C5C0F543EC99F044
:1012D8000501BB510601D9270501BC510601DA23D6
:1012E8006100D4F7F6F46100D8F7F7F4000EF86E51
:1012F8000800F5500009D8A484EF09F086EF09F03A
:101308005DEF09F0D9C6EFF5DAC6F0F512002EEC5C
:101318000EF007012951030B0009D8B496EF09F024
:1013280098EF09F0A5EF09F017EC16F00009D8B40A
:10133800A0EF09F0A2EF09F0A5EF09F0100E0701E0
:10134800276F07012751030DCD0EF324F66EFD0E0E
:10135800F420F76EF86A000EF82202D8C1EF09F0FF
:101368000500FA6E0900F550FD6E0900F550FE6E95
:101378000900F550FF6EFA5012000701276F12009E
:101388002CEC17F006C6D1F607C6D2F631EC17F0EA
:1013980006C6D3F607C6D4F63BEC17F006C6D5F654
:1013A80007C6D6F636EC17F006C6D7F607C6D8F63F
:1013B800000E0601AD6F0A0EAE6F010EB06F000E83
:1013C800AF6F630EB16FFE0EB26FD7C6B3F6D8C655
:1013D800B4F6D1C6B5F6D2C6B6F6D3C6B7F6D4C6F5
:1013E800B8F6D5C6B9F6D6C6BAF638ECF5F0120096
:1013F800000E0601086F9CEC15F00009D8B407EF41
:101408000AF009EF0AF0FFEF09F0DCEC0DF0060135
:10141800076F0A0E0719D8A414EF0AF016EF0AF09E
:1014280020EF0AF0780E0825D96EDA6A080EDA225B
:10143800000EDF6E32EF0AF0780E0825D96EDA6AF0
:10144800080EDA2261001CF8DFF4082B7F0E08650D
:1014580030EF0AF032EF0AF0FFEF09F01200FC0E4D
:1014680007012917020E286F299542EF0AF0BDECF3
:1014780017F069EF0AF00F0E69EF0AF016C70CF5BE
:1014880017C70DF521EE06F302D855EF0AF005004F
:10149800FA6EDE50FD6EDE50FE6EDE50FF6EFA50C4
:1014A80012000E6E0F6A0F50000AD8B45EEF0AF0F1
:1014B8003FEF0AF00E50020AD8B43BEF0AF0010AD7
:1014C800D8B43BEF0AF03FEF0AF01200A7C6ABF61C
:1014D800A8C6ACF6000E0601DA6F000ED96F88EFC9
:1014E8000AF0A5C671F6A6C672F6AB0E736F060EA5
:1014F800746FA9C675F6AAC676F600EC80F00601E8
:101508007151D9277251DA236100ACFAF6F46100FF
:10151800B0FAF7F4000EF86E0800F5500009D8A4E8
:1015280098EF0AF09AEF0AF075EF0AF0D9C6A5F617
:10153800DAC6A6F61200000E096E000E0A6E000E3C
:101548000B6E000E0C6E01A0ACEF0AF0AEEF0AF0C5
:10155800B6EF0AF00550092606500A2207500B225A
:1015680008500C22D8900536063607360836D8902B
:101578000432033202320132015002100310041007
:10158800D8A4C9EF0AF0CBEF0AF0A7EF0AF009C513
:1015980001F50AC502F50BC503F50CC504F51200E3
:1015A80008C60CF609C60DF606C60EF607C60FF6EF
:1015B80006010C510A6F0D510B6F0C4B0D2B61007E
:1015C80028F8F6F461002CF8F7F4000EF86E6100C4
:1015D80038F8D9F461003CF8DAF40E4B0F2B240EDE
:1015E800F76403D00800F55005D0F6C4E9F4F7C451
:1015F800EAF4EF50DF6EDF50D8A405EF0BF007EFE9
:101608000BF0DCEF0AF0120003C507F504C508F576
:1016180001C509F502C50AF50750056E0850066EA2
:10162800074A082A610014F4F6F4610018F4F7F484
:10163800000EF86E610024F4D9F4610028F4DAF49D
:10164800094A0A2A240EF76403D00800F55005D089
:10165800F6C4E9F4F7C4EAF4EF50DF6EDF50D8A41B
:1016680038EF0BF03AEF0BF010EF0BF012007CECB8
:10167800E1F00DC542F50EC543F50FC544F510C59B
:1016880045F5010EC9ECEBF042C550F543C551F5DF
:1016980044C552F545C553F5000E546E000E556EFF
:1016A800C80E566E420E576E1EECDAF050C56DF538
:1016B80051C56EF552C56FF553C570F56DC55CF52E
:1016C8006EC55DF56FC55EF570C55FF51200D6ECA9
:1016D800D1F00DC542F50EC543F50FC544F510C54B
:1016E80045F5000EC9ECEBF042C550F543C551F580
:1016F80044C552F545C553F5000E546E000E556E9F
:10170800800E566E440E576E1EECDAF050C56DF51D
:1017180051C56EF552C56FF553C570F56DC55CF5CD
:101728006EC55DF56FC55EF570C55FF51200060103
:10173800196F010E06011A6F070129B5A6EF0BF004
:10174800A8EF0BF0C7EF0BF02985000E06011A6F02
:10175800070125510AEC17F006011951D8B4B7EF63
:101768000BF0B9EF0BF0C0EF0BF0040E0701276F79
:10177800F8EC11F0C5EF0BF0030E0701276FB4EC7E
:1017880014F0C4EC14F006011A511200D7AECFEFD2
:101798000BF057EF0EF0060120EE02F01151D9269A
:1017A8001251DA22610078F306F6610074F307F645
:1017B800610044F8D9F4610048F8DAF4610078F37C
:1017C80008F6610074F309F66DEC14F0000E0601DA
:1017D8000C6F000E0D6F000E0E6F000E0F6F000ED7
:1017E800106FF0EC14F0020E1200D7AEFEEF0BF003
:1017F8007FEF0EF0060120EE02F01151D9261251AA
:10180800DA22610078F306F6610074F307F66100E6
:1018180044F8D9F4610048F8DAF4610078F308F67E
:10182800610074F309F66DEC14F0000E06010C6FFC
:10183800000E0D6F000E0E6F000E0F6F000E106F72
:10184800F0EC14F0020E12000601066F0601F851C2
:10185800D8B431EF0CF033EF0CF02AEF0CF0A7B24C
:1018680038EF0CF03AEF0CF03FEF0CF0610018F88D
:10187800C9F255EF0CF0A7923A0EF625D96EDA6A3E
:10188800070EDA22610018F8DFF4F62B070EF6656A
:1018980050EF0CF052EF0CF054EF0CF0000EF66F16
:1018A800F807A7821200000E0301D96F000EDA6F45
:1018B800000EDB6F000EDC6F000EDF6F000EE06FB6
:1018C800000EE56F000EE76F000EEC6F000EEE6F76
:1018D800000EEF6F000EF06F000EF16F000EF26F4A
:1018E800000EF46F100EF56F000EF66F000EF76F16
:1018F800000EF86F000EF96F090EFA6F940EF36F71
:101908001200B5A28AEF0CF08CEF0CF08EEF0CF001
:10191800B1EF0CF0B5A093EF0CF095EF0CF097EF4A
:101928000CF0B1EF0CF002019AA59DEF0CF09FEFBF
:101938000CF0A1EF0CF0B1EF0CF09AAFA6EF0CF0A1
:10194800A8EF0CF0AAEF0CF0B1EF0CF097A9AFEFED
:101958000CF0B1EF0CF085EF0CF01200B5A2B7EF68
:101968000CF0B9EF0CF0BBEF0CF0DEEF0CF0B5A00B
:10197800C0EF0CF0C2EF0CF0C4EF0CF0DEEF0CF08F
:1019880002019AA5CAEF0CF0CCEF0CF0CEEF0CF0E8
:10199800DEEF0CF09AAFD3EF0CF0D5EF0CF0D7EFE9
:1019A8000CF0DEEF0CF097A9DCEF0CF0DEEF0CF09A
:1019B800B2EF0CF0120006C608F607C609F6E8EF03
:1019C8000CF00601064B072B610018F8F6F46100CD
:1019D8001CF8F7F4000EF86E240EF76403D0080024
:1019E800F55005D0F6C4E9F4F7C4EAF4EF5000095D
:1019F800D8A401EF0DF003EF0DF0E5EF0CF00601B0
:101A08000851065D066F09510759076F12005AEC15
:101A180014F0D68E340E0601066F2F0E076F000ED7
:101A2800086FE8EC16F0A7EC0EF0CFB81EEF0DF03B
:101A380020EF0DF019EF0DF0CFA825EF0DF027EFEF
:101A48000DF020EF0DF0B5ECE2F0CFB82EEF0DF071
:101A580030EF0DF027EF0DF0FF0027EF0DF00DEF41
:101A680000F0000E03011F6F000E206F040E216F9F
:101A7800860E1D6FE80E1C6FB1981C51600074FC37
:101A880009F606010A6B09C60AF6096B0911050170
:101A9800FD6F06010A510501FE6FA1888E0E060131
:101AA800066F2F0E076F000E086FE8EC16F0010E98
:101AB80003011E6F1200010E06010C6F200E06199D
:101AC8000711D8B46AEF0DF06CEF0DF085EF0DF04B
:101AD800F70E086FFF0E096F06C60AF607C60BF663
:101AE80008510A2709510B230B5109E1050E0A5D1C
:101AF800D8A081EF0DF083EF0DF085EF0DF0000E0B
:101B08000C6F0CC606F6076B120001C503F502C57B
:101B180004F591EF0DF0014A022A610004F4F6F48D
:101B2800610008F4F7F4000EF86E240EF76403D091
:101B38000800F55005D0F6C4E9F4F7C4EAF4EF500C
:101B48000009D8A4AAEF0DF0ACEF0DF08FEF0DF05F
:101B58000350015C016E04500258026E1200F6EC4C
:101B680015F00009D8B4BBEF0DF0BDEF0DF0C1EFD3
:101B78000DF094EC17F0DBEF0DF0E0EC15F0000938
:101B8800D8B4C9EF0DF0CBEF0DF0CFEF0DF08EEC20
:101B980017F0DBEF0DF0EBEC15F00009D8B4D7EF38
:101BA8000DF0D9EF0DF0DBEF0DF091EC17F012000E
:101BB8000601F251D8B4E3EF0DF0E5EF0DF0DCEFDC
:101BC8000DF02A0EF325D96EDA6A070EDA22DF50F5
:101BD800F16F320EF325D96EDA6A070EDA22DF507A
:101BE800066FF32B070EF365FCEF0DF0FEEF0DF01B
:101BF80000EF0EF0000EF36FA790F207A7800651D2
:101C08001200146E010E156E070129B50EEF0EF0C5
:101C180010EF0EF02CEF0EF02985000E156E2551F1
:101C28004FEC17F01450D8B41CEF0EF01EEF0EF066
:101C380025EF0EF0040E0701276F86EC13F02AEF4C
:101C48000EF0030E0701276F01EC16F0D3EC14F029
:101C58001550120043EC16F00009D8B436EF0EF018
:101C680038EF0EF03CEF0EF0B8EC17F056EF0EF030
:101C78002DEC16F00009D8B444EF0EF046EF0EF044
:101C88004AEF0EF0B2EC17F056EF0EF038EC16F003
:101C98000009D8B452EF0EF054EF0EF056EF0EF0E4
:101CA800B5EC17F0120020EE02F00C50D9260D50BA
:101CB800DA22610078F301F5610074F302F561003E
:101CC80030F4D9F4610034F4DAF4610078F303F500
:101CD800610074F304F591EC14F0000E076E000E29
:101CE800086E000E096E000E0A6E000E0B6E28ECD0
:101CF80015F0020E120020EE02F00C50D9260D50FD
:101D0800DA22610078F301F5610074F302F56100ED
:101D180030F4D9F4610034F4DAF4610078F303F5AF
:101D2800610074F304F591EC14F0000E076E000ED8
:101D3800086E000E096E000E0A6E000E0B6E28EC7F
:101D480015F0020E120058EC16F0050E0601416F50
:101D58000F0E406FF10EE82EFED7402FFCD7412F13
:101D6800FAD7EDECE7F0000E0601066F000E1EEC48
:101D780014F0010E0601066F010E076F010E30EC1C
:101D880012F0010E27EC17F04BEC12F0010E0601D1
:101D9800ED6F1200BF0E06010E6FFF0E0F6F0CC61F
:101DA80010F60DC611F60E5110270F5111231151BF
:101DB80007E11A0E105DD8B0E4EF0EF0E6EF0EF072
:101DC800EDEF0EF0200E0C110C6F0D510D6FF1EFB1
:101DD8000EF00CC60CF60DC60DF61200000E06012C
:101DE800176F000E166F05EF0FF015C608F6096B92
:101DF80013C60AF614C60BF63AECFCF00601164BAD
:101E0800172B16511125D96E17511221DA6EDF5092
:101E1800156F1551D8A413EF0FF015EF0FF0F9EF68
:101E28000EF01200000E0601231B000E241B000EEC
:101E3800251B800E261B1FC606F620C607F621C6E0
:101E480008F622C609F623C60AF624C60BF625C6E6
:101E58000CF626C60DF615ECCDF006C61FF607C61D
:101E680020F608C621F609C622F612009F0E0601C2
:101E78000E6FFF0E0F6F0CC610F60DC611F60E5141
:101E880010270F511123115107E11A0E105DD8B018
:101E980050EF0FF052EF0FF058EF0FF05F0E0C15E8
:101EA8000C6F0D6B5CEF0FF00CC60CF60DC60DF643
:101EB8001200080E0601F86164EF0FF066EF0FF0EC
:101EC8007EEF0FF03A0EF525D96EDA6A070EDA22A0
:101ED800DF500201C96F0601F52B070EF56577EF94
:101EE8000FF079EF0FF07BEF0FF0000EF56FF82B86
:101EF8007FEF0FF0A7921200BF0E056EFF0E066E61
:101F080003C507F504C508F505500726065008223D
:101F1800085007E11A0E075CD8B095EF0FF097EF5D
:101F28000FF09EEF0FF0200E0310036E0450046EA6
:101F3800A2EF0FF003C503F504C504F51200000E67
:101F48001E1A000E1F1A000E201A800E211A1AC51A
:101F580001F51BC502F51CC503F51DC504F51EC515
:101F680005F51FC506F520C507F521C508F576EC6A
:101F7800CFF001C51AF502C51BF503C51CF504C54C
:101F88001DF51200200E01180210D8B4CEEF0FF084
:101F9800D0EF0FF0E7EF0FF0F70E036EFF0E046EB1
:101FA80001C505F502C506F50350052604500622AD
:101FB800065009E1050E055CD8A0E5EF0FF0E7EF44
:101FC8000FF0E7EF0FF012009F0E056EFF0E066E82
:101FD80003C507F504C508F505500726065008226D
:101FE800085007E11A0E075CD8B0FDEF0FF0FFEFBD
:101FF8000FF005EF10F05F0E0314036E046A09EF8B
:1020080010F003C503F504C504F51200000E126EA6
:10201800000E116E1BEF10F010C503F5046A0EC513
:1020280005F50FC506F513ECFDF0114A122A1150FB
:102038000C24D96E12500D20DA6EDF50106E10503D
:10204800D8A429EF10F02BEF10F010EF10F01200C9
:10205800060119BF3AEF10F0195106E11805D8B07A
:1020680038EF10F03AEF10F048EF10F018C61AF6F3
:1020780019C61BF61A1F1B1F1A4B1B2B1AC618F65C
:102088001BC619F64CEF10F018C618F619C619F643
:10209800120014BE5AEF10F0145006E11304D8B021
:1020A80058EF10F05AEF10F068EF10F013C515F55F
:1020B80014C516F5151E161E154A162A15C513F54C
:1020C80016C514F56CEF10F013C513F514C514F507
:1020D8001200D7AE72EF10F0AFEF12F011C606F68D
:1020E80012C607F6000E0601096F010E086F6DECA7
:1020F80014F0000E06010C6F000E0D6F000E0E6F2F
:10210800000E0F6F000E106FF0EC14F0040E1200AA
:10211800D7AE91EF10F0C7EF12F011C606F612C64F
:1021280007F6000E0601096F020E086F6DEC14F039
:10213800000E06010C6F000E0D6F000E0E6F000EE4
:102148000F6F000E106FF0EC14F0020E1200D7AEF5
:10215800B0EF10F0DFEF12F011C606F612C607F660
:10216800000E0601096F010E086F6DEC14F0000EE9
:1021780006010C6F000E0D6F000E0E6F000E0F6F34
:10218800000E106FF0EC14F0020E1200D7AECFEF75
:1021980010F0F7EF12F011C606F612C607F6000E99
:1021A8000601096F020E086F6DEC14F0000E0601AF
:1021B8000C6F000E0D6F000E0E6F000E0F6F000EED
:1021C800106FF0EC14F0040E1200D7AEEEEF10F022
:1021D8000FEF13F011C606F612C607F6000E060139
:1021E800096F020E086F6DEC14F0000E06010C6FFB
:1021F800000E0D6F000E0E6F000E0F6F000E106FA9
:10220800F0EC14F0020E1200D7AE0DEF11F027EF2C
:1022180013F011C606F612C607F6000E0601096F7E
:10222800010E086F6DEC14F0000E06010C6F000E25
:102238000D6F000E0E6F000E0F6F000E106FF0EC9A
:1022480014F0020E1200D7AE2CEF11F03FEF13F08E
:1022580011C606F612C607F6000E0601096F010E32
:10226800086F6DEC14F0000E06010C6F000E0D6F78
:10227800000E0E6F000E0F6F000E106FF0EC14F0D2
:10228800040E1200D7AE4BEF11F057EF13F011C642
:1022980006F612C607F6000E0601096F020E086F51
:1022A8006DEC14F0000E06010C6F000E0D6F000EA1
:1022B8000E6F000E0F6F000E106FF0EC14F0040E8E
:1022C80012009F0E0601086FFF0E096F200E0611FF
:1022D8000A6F000E07110B6F08510A2709510B23CB
:1022E8000B510AE11A0E0A5DD8A07DEF11F080EFBC
:1022F80011F0010E81EF11F0000E066F076B12004E
:10230800D00E0601086FFF0E096F06C60AF607C64B
:102318000BF608510A2709510B230B510AE10A0E43
:102328000A5DD8A09AEF11F09DEF11F0010E9EEF13
:1023380011F0000E066F076B12009F0E0601086F62
:10234800FF0E096F06C60AF607C60BF608510A27DC
:1023580009510B230B510AE11A0E0A5DD8A0B7EFF9
:1023680011F0BAEF11F0010EBBEF11F0000E066F7D
:10237800076B1200BF0E0601086FFF0E096F06C635
:102388000AF607C60BF608510A2709510B230B5109
:102398000AE11A0E0A5DD8A0D4EF11F0D7EF11F0B8
:1023A800010ED8EF11F0000E066F076B1200060140
:1023B8000651071108110911D8B4E5EF11F0E7EF3C
:1023C80011F0EFEF11F0000E061B000E071B000EB8
:1023D800081B800E091B06C606F607C607F608C6C0
:1023E80008F609C609F61200D7AEFDEF11F086EF20
:1023F80013F007012951FC0B0209296F2505261145
:10240800D8A409EF12F00BEF12F00DEF12F045EC23
:1024180002F0D8800701223504EC17F0040E1200F0
:102428000150021003100410D8B41DEF12F01FEF72
:1024380012F027EF12F0000E011A000E021A000E19
:10244800031A800E041A01C501F502C502F503C579
:1024580003F504C504F512000601096F09C608F65C
:102468000601083B0847EE5108191F0B0819EE6FC3
:1024780006C608F608470847EE510819E30B08197D
:10248800EE6FEE510719FC0B0719EE6F1200F50EEF
:1024980006011B6FF0C61CF6760E6BEC07F0F20E09
:1024A80006011B6FEFC61CF6760E6BEC07F0F40EF8
:1024B80006011B6FEEC61CF6760E6BEC07F01200D9
:1024C800D7AE69EF12F046EF14F07CEC17F079EC18
:1024D80017F00009D8B473EF12F075EF12F07BEF24
:1024E80012F0000E0AEC17F0000E04EC17F0000EC4
:1024F80012000701D651D711D811D8B486EF12F0BF
:1025080088EF12F095EF12F002D895EF12F005005F
:10251800FA6ED651FD6ED751FE6ED851FF6EFA5045
:1025280012001200056E610014F4ECF30301F38F3E
:10253800F39DF381F3B1A3EF12F0A5EF12F09EEF34
:1025480012F0EB51046E036AEA510324016E000E87
:102558000420026E12000CC501F50DC502F5000E2F
:10256800046E010E036E91EC14F0000E076E000E5F
:10257800086E000E096E000E0A6E000E0B6E28EC37
:1025880015F0040E12000CC501F50DC502F5000E7C
:10259800046E020E036E91EC14F0000E076E000E2E
:1025A800086E000E096E000E0A6E000E0B6E28EC07
:1025B80015F0020E12000CC501F50DC502F5000E4E
:1025C800046E010E036E91EC14F0000E076E000EFF
:1025D800086E000E096E000E0A6E000E0B6E28ECD7
:1025E80015F0020E12000CC501F50DC502F5000E1E
:1025F800046E020E036E91EC14F0000E076E000ECE
:10260800086E000E096E000E0A6E000E0B6E28ECA6
:1026180015F0040E12000CC501F50DC502F5000EEB
:10262800046E020E036E91EC14F0000E076E000E9D
:10263800086E000E096E000E0A6E000E0B6E28EC76
:1026480015F0020E12000CC501F50DC502F5000EBD
:10265800046E010E036E91EC14F0000E076E000E6E
:10266800086E000E096E000E0A6E000E0B6E28EC46
:1026780015F0020E12000CC501F50DC502F5000E8D
:10268800046E010E036E91EC14F0000E076E000E3E
:10269800086E000E096E000E0A6E000E0B6E28EC16
:1026A80015F0040E12000CC501F50DC502F5000E5B
:1026B800046E020E036E91EC14F0000E076E000E0D
:1026C800086E000E096E000E0A6E000E0B6E28ECE6
:1026D80015F0040E120003011EA575EF13F077EF35
:1026E80013F080EF13F01E9102501D6F610004F487
:1026F8001CF31E8185EF13F002501D6F610004F476
:102708001CF3120007012951FC0B0209296F25054A
:102718002611D8A492EF13F094EF13F096EF13F06C
:1027280048EC04F0D880070122354AEC17F0040E73
:1027380012000601065108036100CCF30AF6610095
:10274800D0F30BF606510903F3500B270751080382
:10275800F3500B270AC606F60BC607F61200320E10
:102768000601F425D96EDA6A070EDA22C7C2DFF449
:10277800F42B070EF465C3EF13F0C5EF13F0C7EFA2
:1027880013F0000EF46FF22B1200010E016E070118
:1027980029B5D1EF13F0D3EF13F0DDEF13F029973C
:1027A800226971EC17F036EC15F01CEC17F028C70D
:1027B80001F501501200020194BFE5EF13F0E7EFB5
:1027C80013F0F3EF13F0000E9A6F000E9B6F000EDC
:1027D800976F8D69510E896F510E886F948F120013
:1027E800015003026100CCF305F56100D0F306F552
:1027F80001500402F350062602500302F350062645
:1028080005C501F506C502F51200020194BF0FEFD8
:1028180014F011EF14F01DEF14F0000E9A6F000E73
:102828009B6F000E976F8D69510E896F510E886FDF
:10283800948F12000601086F08C607F60601073BC9
:10284800F05107198F0B0719F06F06C607F60747EF
:10285800F0510719F10B0719F06F1200F90E050175
:10286800FB6F050EFC6F000EEF6F000EF06FF7C5E3
:10287800F1F5F8C5F2F5FB0EF36F050EF46F52ECA7
:1028880009F01200A0EC17F09DEC17F00009D8B47D
:1028980050EF14F052EF14F058EF14F0000E4FEC14
:1028A80017F0000E4AEC17F0000E1200BBEC17F000
:1028B8007FEC14F0A3EC14F085ECFFF00CEC15F0B1
:1028C80057EC0CF035EC0DF028EC08F093EC01F027
:1028D8001200070129A973EF14F075EF14F07EEFC9
:1028E80014F006C623F707C624F708C625F709C655
:1028F80026F729991200000E0001606F000E616F23
:10290800000E636F000E646F000E656F000E666F39
:10291800000E676F000E686F1200070129A997EF74
:1029280014F099EF14F0A2EF14F001C523F702C5D3
:1029380024F703C525F704C526F729991200040EC4
:102948000201946F800E956F180E966F030E9C6FA0
:10295800000E9A6F000E9B6F000E976F8D69120024
:10296800D7AEB9EF14F001EF16F007012951FC0BAF
:102978000209296F2251222504EC17F0030E1200D8
:10298800CAEF14F085EC0CF019EC09F0070129B531
:10299800D0EF14F0D2EF14F0C6EF14F01200D9EF14
:1029A80014F0B2EC0CF08BEC09F0070129B5DFEF5D
:1029B80014F0E1EF14F0D5EF14F012000CC606F68F
:1029C8000DC607F60EC608F60FC609F610C60AF6B3
:1029D800020E85EC05F012000CC606F60DC607F6C9
:1029E8000EC608F60FC609F610C60AF6000E85ECE4
:1029F80005F01200A594A596A590A59202019B91B9
:102A08009B959B9F9B9D9B9397939795979112005E
:102A1800600E0001AD6F000EAF6F000EB36F080EB1
:102A2800B16F000EB06F000EAC6F120007C501F554
:102A380008C502F509C503F50AC504F50BC505F572
:102A4800020E16EC06F0120007C501F508C502F5DE
:102A580009C503F50AC504F50BC505F5000E16EC06
:102A680006F01200A594A596A590A59202019B9147
:102A78009B959B9F9B9D9B939793979597911200EE
:102A8800D7AE49EF15F07CEF16F022EC17F00701EE
:102A98002995020E286F0F0E1200D7AE56EF15F0CB
:102AA80084EF16F022EC17F007012995000E286F25
:102AB8000F0E12000601066FB2A265EF15F067EF60
:102AC80015F060EF15F0610018F8A3F21200060186
:102AD800EE51FC0B0109EE6FF40E166EEEC617F5FB
:102AE800760EA3EC08F01200D7AE7DEF15F0F6EFE6
:102AF80016F07FEC17F07CEC17F0B4EC15F0120030
:102B0800D7AE89EF15F0FDEF16F0070125510AEC55
:102B180017F0F8EC11F012000601F851D8A497EF5D
:102B280015F09AEF15F0010E9BEF15F0000E12004C
:102B38000601F251D8A4A3EF15F0A6EF15F0010E87
:102B4800A7EF15F0000E1200016EB2A2AEEF15F05D
:102B5800B0EF15F0A9EF15F0610004F4A3F212002C
:102B6800D7AEB9EF15F016EF17F007012995000E4B
:102B7800286F0F0E1200020199BBC5EF15F0C8EFC0
:102B880015F0010EC9EF15F0000E1200020195BBF9
:102B9800D0EF15F0D3EF15F0010ED4EF15F0000EBD
:102BA8001200020199B1DBEF15F0DEEF15F0010E0E
:102BB800DFEF15F0000E120002019AB5E6EF15F0EE
:102BC800E9EF15F0010EEAEF15F0000E1200020110
:102BD80097B9F1EF15F0F4EF15F0010EF5EF15F0D8
:102BE800000E120002019ABFFCEF15F0FFEF15F07E
:102BF800010E00EF16F0000E120007012951FC0B20
:102C08000209296F225122254AEC17F0030E1200FF
:102C1800020199BB12EF16F015EF16F0010E16EF30
:102C280016F0000E1200020195BB1DEF16F020EF02
:102C380016F0010E21EF16F0000E1200020199B1F4
:102C480028EF16F02BEF16F0010E2CEF16F0000E01
:102C5800120002019AB533EF16F036EF16F0010EA6
:102C680037EF16F0000E1200020197B93EEF16F08A
:102C780041EF16F0010E42EF16F0000E12000201AD
:102C88009ABF49EF16F04CEF16F0010E4DEF16F013
:102C9800000E1200B198FDC501F5FEC502F56FECF6
:102CA80013F07DEC12F01200E00E06011B6FB60E59
:102CB8001C6F760E6BEC07F01200D7AE66EF16F0BD
:102CC80065EF17F07FEC17F0090E1200D7AE6FEF23
:102CD80016F069EF17F082EC17F0040E1200D7AE69
:102CE80078EF16F06DEF17F082EC17F0030E120074
:102CF80054EC17F007012995020E286F0F0E1200E9
:102D080054EC17F007012995000E286F0F0E1200DA
:102D1800010E96EC12F001C5E3F602C5E4F61200C6
:102D2800D7AE99EF16F0BDEF17F0010E1200D7AE2F
:102D3800A0EF16F0BFEF17F0020E1200D7AEA7EF04
:102D480016F0C1EF17F0050E1200D7AEAEEF16F071
:102D5800C3EF17F0010E120006C6E2F707C6E3F745
:102D680008C6E4F7120006C6E5F707C6E6F708C680
:102D7800E7F7120006C6D0F707C6D1F708C6D2F79C
:102D8800120006C6D3F707C6D4F708C6D5F712004F
:102D980006C6CDF707C6CEF708C6CFF7120006C697
:102DA800DCF707C6DDF708C6DEF7120006C6DFF750
:102DB80007C6E0F708C6E1F7120006C6D9F707C646
:102DC800DAF708C6DBF7120006C6D6F707C6D7F744
:102DD80008C6D8F712000601076F060107515EEC16
:102DE80015F01200A3EC17F0A0EC17F016EC17F092
:102DF8001200070125514FEC17F086EC13F0120072
:102E08000601066F610018F88CF212000601066FC1
:102E1800610018F88DF212000201949F000E9A6F5B
:102E28009985120007012995000E286F0F0E1200D0
:102E38000201949F000E9A6F998512000201949FD7
:102E48009985948F12000601066F06C6EFF61200E8
:102E5800E9C606F6EAC607F61200E7C606F6E8C6A9
:102E680007F61200E3C606F6E4C607F61200E5C642
:102E780006F6E6C607F61200026E0250A8EC15F038
:102E880012006BEC15F0CAECF5F01200016E61004F
:102E980004F48CF21200016E610004F48DF2120049
:102EA8000201949F9985948F1200000E9BEC0BF001
:102EB8001200000E02019A6F1200000E05EC0EF0CF
:102EC8001200A3EC17F0090E1200A6EC17F0040E7E
:102ED8001200A6EC17F0030E1200000E02019A6F02
:092EE8001200286E756C6C2900C3
:102EF20002018D5112000201949B12000201958D74
:102F020012000201959D120002018B511200020172
:102F1200948D12000201949D120002019A951200F2
:102F220002019799120002019A9F1200B3EC13F06A
:102F32001200E8ECFDF0120002018D5112000201B4
:102F4200949B12000201958D12000201959D1200C0
:102F520002018B5112000201948D12000201949D14
:102F6200120002019A9512000201979912000201C1
:102F72009A9F1200D69A1200010E1200020E12003F
:102F8200050E1200010E12001200120012001200B1
:062F920012001200120003
:10FDCC0000682B00F02300682900BCE6016E0200DD
:10FDDC00440D008A0400082B00362D00282D00C885
:10FDEC002400D42C00E62C00F02A00C22C00A22AFD
:10FDFC0000CC1000540E00882A004F4B0D0A3E0018
:10FE0C00613361326333717839756F69356B2D618C
:10FE1C0074732E696F742E75732D656173742D3226
:10FE2C002E616D617A6F6E6177732E636F6D0070EA
:10FE3C006F6F6C2E6E74702E6F72670065646479D0
:10FE4C006D65736861636B006950686F6E65313303
:10FE5C00007069633332004C696768743A25752CFD
:10FE6C0054656D703A25642C50726573733A257520
:10FE7C002C48756D69643A25750041542B4D5154CD
:10FE8C00545055423D25642C25642C25642C222588
:10FE9C0073222C222573220D0A0041542B575354E4
:10FEAC0041433D25642C222573220D0A0041542B1D
:10FEBC004D515454433D25642C222573220D0A00C8
:10FECC0050726573733A20257520696E4867200A55
:10FEDC000D0041542B57535441433D25642C25644C
:10FEEC000D0A0041542B4D515454433D25642C258F
:10FEFC00640D0A0041542B4D515454434F4E4E3D0A
:10FF0C0025640D0A0048756D69643A202575252510
:10FF1C00200A0D004C696768743A202575200A0A7E
:10FF2C000D0054656D703A2025692043200A0D00A0
:10FF3C0041542B575354413D25640D0A007465738D
:10FF4C00742F546F7069630041542B575354410DF7
:10FF5C000A002B575354414C440D0A00494E46009D
:10FF6C004E414E00686858006C6C5800686864001C
:10FF7C006C6C6400696E6600686869006C6C690082
:10FF8C006E616E0068686E006C6C6E0068686F0065
:10FF9C006C6C6F006C6C7300686875006C6C750031
:10FFAC00686878006C6C78006A58007458007A584D
:10FFBC00006C61006A64007464007A64006C650013
:10FFCC006C66006C67006A69007469007A69006A83
:10FFDC006E00746E007A6E006A6F00746F007A6F38
:10FFEC00006A75007475007A75006A780074780080
:04FFFC007A7800000F
:020000040001F9
:100000006100CCF9D9F46100D0F9DAF4DEC4F6F479
:10001000DDC4F7F4000EF86E0800F550250AD8A4E8
:1000200014EF80F016EF80F020EF99F06100CCF92A
:10003000D9F46100D0F9DAF4DE2A000EDD22000ED8
:100040000601DC6F000EDB6FDBC6DFF6DCC6E0F618
:10005000DD69DE69000E886F000E876F7CEF80F02F
:10006000DF816100CCF9D9F46100D0F9DAF4DE2A3D
:10007000000EDD227CEF80F0DF8331EF80F0DF8542
:1000800031EF80F0DF8731EF80F0DF8931EF80F0F2
:10009000000E886F010E876F7CEF80F06100CCF955
:1000A000D9F46100D0F9DAF4DEC4F6F4DDC4F7F473
:1000B000000EF86E0800F550776F786B7851000AE3
:1000C000D8B465EF80F048EF80F07751200AD8B4BB
:1000D00042EF80F0030AD8B445EF80F0080AD8B4A4
:1000E0003FEF80F0060AD8B430EF80F01D0AD8B494
:1000F0003CEF80F048EF80F087518811D8B483EF4F
:1001000080F085EF80F04EEF80F0DFA18AEF80F085
:100110008CEF80F08DEF80F0DF936100CCF9D9F4A3
:100120006100D0F9DAF4DEC4F6F4DDC4F7F4000EB1
:10013000F86E0800F5502A0AD8A4A1EF80F0A3EFCA
:1001400080F0D6EF80F06100CCF9D9F46100D0F9ED
:10015000DAF4DE2A000EDD226100D4F9D9F4610060
:10016000D8F9DAF461007CF377F6020EDE2661003E
:100170007CF378F6000EDD226100DCF9D9F4610031
:10018000E0F9DAF4610078F3DBF6610074F3DCF691
:10019000DCBFCFEF80F0CDEF80F017EF81F0DF8193
:1001A000DB6DDC1FD8B0DC2B17EF81F06100CCF9E0
:1001B000D9F46100D0F9DAF4610078F30DF661004A
:1001C00074F30EF6D2ECEFF00DC6DBF60EC6DCF6DD
:1001D000F3EF80F06100CCF9D9F46100D0F9DAF4E2
:1001E000DE2A000EDD22D00E0601776FFF0E786F3B
:1001F0006100CCF9D9F46100D0F9DAF4DEC4F6F488
:10020000DDC4F7F4000EF86E0800F550796F7A6BD4
:100210007751792778517A237A5109E10A0E795D6D
:10022000D8A015EF81F017EF81F0EAEF80F06100C0
:10023000CCF9D9F46100D0F9DAF4DEC4F6F4DDC407
:10024000F7F4000EF86E0800F5502E0AD8A42BEF34
:1002500081F02DEF81F0B8EF81F0000EDE6F000E1F
:10026000DD6F6100CCF9D9F46100D0F9DAF4DE2A4F
:10027000000EDD226100CCF9D9F46100D0F9DAF486
:10028000DEC4F6F4DDC4F7F4000EF86E0800F55095
:100290002A0AD8A44EEF81F050EF81F077EF81F079
:1002A0006100CCF9D9F46100D0F9DAF4DE2A000E4D
:1002B000DD226100D4F9D9F46100D8F9DAF46100E3
:1002C0007CF377F6020EDE2661007CF378F6000EF2
:1002D000DD226100DCF9D9F46100E0F9DAF46100B3
:1002E00078F3DDF6610074F3DEF6B8EF81F06100BB
:1002F000CCF9D9F46100D0F9DAF4610078F30DF6A5
:10030000610074F30EF6D2ECEFF00DC6DDF60EC60A
:10031000DEF694EF81F06100CCF9D9F46100D0F9F8
:10032000DAF4DE2A000EDD22D00E0601776FFF0E12
:10033000786F6100CCF9D9F46100D0F9DAF4DEC449
:10034000F6F4DDC4F7F4000EF86E0800F550796F8E
:100350007A6B7751792778517A237A5109E10A0E1D
:10036000795DD8A0B6EF81F0B8EF81F08BEF81F026
:100370006100CCF9D9F46100D0F9DAF4DEC4F6F406
:10038000DDC4F7F4000EF86E0800F5500C6F0D6B2D
:10039000CEEC0EF006010C518B6F8B51D8B4D3EF1D
:1003A00081F0D5EF81F01FEF82F06100CCF9D9F434
:1003B0006100D0F9DAF4610078F377F6610074F344
:1003C00078F6010E7727000E78236100DCF9F6F449
:1003D0006100E0F9F7F4000EF86E0800F5500C6FBC
:1003E0000D6BCEEC0EF006010C518C6F8C51D8B415
:1003F000FCEF81F0FEEF81F01FEF82F06100CCF99D
:10040000D9F46100D0F9DAF4610078F377F661008D
:1004100074F378F6020E7727000E78236100DCF97A
:10042000F6F46100E0F9F7F4000EF86E0800F550FC
:100430000C6F0D6BCEEC0EF006010C518D6F610E42
:100440008B19D8A426EF82F028EF82F079EF82F0A2
:100450006100CCF9D9F46100D0F9DAF4DEC4F6F425
:10046000DDC4F7F4000EF86E08006100D4F39CF6CA
:100470006100CCF9D9F46100D0F9DAF4DE2A000E7B
:10048000DD226100D4F9D9F46100D8F9DAF4610011
:100490007CF377F6040EDE2661007CF378F6000E1E
:1004A000DD226100DCF9D9F46100E0F9DAF46100E1
:1004B00078F398F6610078F399F6610078F39AF68C
:1004C000610078F39BF671C633F672C634F698C6AF
:1004D00035F699C636F69AC637F69BC638F69CC6E8
:1004E00039F61CECC4F033C671F634C672F642EF2E
:1004F00099F08B0E066F060E076FBD0E086FFF0E8C
:10050000096F000E0B6F020E0A6FB7ECF2F00601D6
:1005100006510711D8A48FEF82F091EF82F022EFFD
:1005200083F06100CCF9D9F46100D0F9DAF461000C
:1005300078F377F6610074F378F6010E7727000EF2
:1005400078236100DCF9F6F46100E0F9F7F4000EBD
:10055000F86E08006100D4F39CF6BF0E776FFF0EB3
:10056000786F6100CCF9D9F46100D0F9DAF4DEC417
:10057000F6F4DDC4F7F4000EF86E0800F550796F5C
:100580007A6B7751792778517A237A5107E11A0EDD
:10059000795DD8B0CEEF82F0D0EF82F0F4EF82F048
:1005A0006100D4F9D9F46100D8F9DAF461007CF380
:1005B00077F6040EDE2661007CF378F6000EDD226D
:1005C0006100DCF9D9F46100E0F9DAF4610078F354
:1005D00098F6610078F399F6610078F39AF6610075
:1005E00078F39BF616EF83F06100D4F9D9F461003B
:1005F000D8F9DAF461007CF377F6040EDE266100A8
:100600007CF378F6000EDD226100DCF9D9F461009C
:10061000E0F9DAF4610078F398F6610078F399F67E
:10062000610078F39AF6610078F39BF6020E6100A0
:10063000CCF9D9F46100D0F9DAF4DE26000EDD221F
:1006400063EF82F06100CCF9D9F46100D0F9DAF4FB
:10065000DEC4F6F4DDC4F7F4000EF86E0800F550C1
:10066000630AD8A436EF83F038EF83F067EF83F0A6
:100670006100CCF9D9F46100D0F9DAF4DE2A000E79
:10068000DD226100D4F9D9F46100D8F9DAF461000F
:100690007CF377F6020EDE2661007CF378F6000E1E
:1006A000DD226100DCF9D9F46100E0F9DAF4DF5011
:1006B0009C6F71C611F672C612F69CC613F6CCEC8E
:1006C000FBF011C671F612C672F642EF99F06100A6
:1006D000CCF9D9F46100D0F9DAF4610078F306F6C8
:1006E000610074F307F6780E086FFF0E096F000EB5
:1006F0000B6F030E0A6FB7ECF2F0060106510711FB
:10070000D8B485EF83F087EF83F0A7EF83F0610023
:10071000CCF9D9F46100D0F9DAF4610078F306F687
:10072000610074F307F6840E086FFF0E096F000E68
:100730000B6F030E0A6FB7ECF2F0060106510711BA
:10074000D8A4A5EF83F0A7EF83F0EFEF83F0030EBB
:100750006100CCF9D9F46100D0F9DAF4DE26000E9C
:10076000DD226100D4F9D9F46100D8F9DAF461002E
:100770007CF377F6020EDE2661007CF378F6000E3D
:10078000DD226100DCF9D9F46100E0F9DAF4DF5030
:100790008E6F000E8EBFFF0E8F6F906F916F926FF6
:1007A000936F946F956F71C623F672C624F68EC64A
:1007B00025F68FC626F690C627F691C628F692C66D
:1007C00029F693C62AF694C62BF695C62CF6ECECC1
:1007D000DBF023C671F624C672F642EF99F0610091
:1007E000CCF9D9F46100D0F9DAF4610078F306F6B7
:1007F000610074F307F6790E086FFF0E096F000EA3
:100800000B6F020E0A6FB7ECF2F0060106510711EA
:10081000D8B40DEF84F00FEF84F02FEF84F0610077
:10082000CCF9D9F46100D0F9DAF4610078F306F676
:10083000610074F307F6850E086FFF0E096F000E56
:100840000B6F020E0A6FB7ECF2F0060106510711AA
:10085000D8A42DEF84F02FEF84F060EF84F0020E27
:100860006100CCF9D9F46100D0F9DAF4DE26000E8B
:10087000DD226100D4F9D9F46100D8F9DAF461001D
:100880007CF377F6020EDE2661007CF378F6000E2C
:10089000DD226100DCF9D9F46100E0F9DAF46100ED
:1008A00078F38EF6610074F38FF6000E8FBFFF0EA3
:1008B000906F916F926F936F946F956FD3EF83F0FA
:1008C0006100CCF9D9F46100D0F9DAF4DEC4F6F4B1
:1008D000DDC4F7F4000EF86E0800F550640AD8B4D1
:1008E00074EF84F076EF84F08CEF84F06100CCF943
:1008F000D9F46100D0F9DAF4DEC4F6F4DDC4F7F41B
:10090000000EF86E0800F550690AD8A48AEF84F04A
:100910008CEF84F0BCEF84F06100CCF9D9F4610075
:10092000D0F9DAF4DE2A000EDD226100D4F9D9F420
:100930006100D8F9DAF461007CF377F6020EDE2666
:1009400061007CF378F6000EDD226100DCF9D9F459
:100950006100E0F9DAF4610078F38EF6610074F377
:100960008FF6000E8FBFFF0E906F916F926F936F97
:10097000946F956FD3EF83F06100CCF9D9F46100E7
:10098000D0F9DAF4610078F306F6610074F307F643
:100990007D0E086FFF0E096F000E0B6F020E0A6FBF
:1009A000B7ECF2F0060106510711D8B4DAEF84F083
:1009B000DCEF84F0FCEF84F06100CCF9D9F4610045
:1009C000D0F9DAF4610078F306F6610074F307F603
:1009D000890E086FFF0E096F000E0B6F020E0A6F73
:1009E000B7ECF2F0060106510711D8A4FAEF84F033
:1009F000FCEF84F04BEF85F0020E6100CCF9D9F4E6
:100A00006100D0F9DAF4DE26000EDD226100D4F9AF
:100A1000D9F46100D8F9DAF461007CF377F6040EBA
:100A2000DE2661007CF378F6000EDD226100DCF941
:100A3000D9F46100E0F9DAF4610078F379F6610045
:100A400078F37AF6610078F37BF6610078F37CF650
:100A500079C67DF67AC67EF67BC67FF67CC680F6C2
:100A6000816B80BF816981C682F681C683F681C6AB
:100A700084F67DC68EF67EC68FF67FC690F680C65B
:100A800091F681C692F682C693F683C694F684C622
:100A900095F6D3EF83F06100CCF9D9F46100D0F979
:100AA000DAF4610078F306F6610074F307F67C0E61
:100AB000086FFF0E096F000E0B6F030E0A6FB7EC85
:100AC000F2F0060106510711D8B469EF85F06BEF1B
:100AD00085F08BEF85F06100CCF9D9F46100D0F995
:100AE000DAF4610078F306F6610074F307F6880E15
:100AF000086FFF0E096F000E0B6F030E0A6FB7EC45
:100B0000F2F0060106510711D8A489EF85F08BEFAA
:100B100085F0D5EF85F0030E6100CCF9D9F46100C2
:100B2000D0F9DAF4DE26000EDD226100D4F9D9F422
:100B30006100D8F9DAF461007CF377F6080EDE265E
:100B400061007CF378F6000EDD226100DCF9D9F457
:100B50006100E0F9DAF4610078F379F6610078F386
:100B60007AF6610078F37BF6610078F37CF6610039
:100B700078F37DF6610078F37EF6610078F37FF616
:100B8000610078F380F679C68EF67AC68FF67BC65A
:100B900090F67CC691F67DC692F67EC693F67FC629
:100BA00094F680C695F6D3EF83F06100CCF9D9F4C2
:100BB0006100D0F9DAF4610078F306F6610074F3AD
:100BC00007F6C00E086FFF0E096F000E0B6F020EC6
:100BD0000A6FB7ECF2F0060106510711D8B4F3EF33
:100BE00085F0F5EF85F015EF86F06100CCF9D9F4CA
:100BF0006100D0F9DAF4610078F306F6610074F36D
:100C000007F6D20E086FFF0E096F000E0B6F020E73
:100C10000A6FB7ECF2F0060106510711D8A413EFE2
:100C200086F015EF86F05FEF86F0020E6100CCF9DA
:100C3000D9F46100D0F9DAF4DE26000EDD2261007D
:100C4000D4F9D9F46100D8F9DAF461007CF377F6CD
:100C5000080EDE2661007CF378F6000EDD226100CE
:100C6000DCF9D9F46100E0F9DAF4610078F379F69F
:100C7000610078F37AF6610078F37BF6610078F32F
:100C80007CF6610078F37DF6610078F37EF6610012
:100C900078F37FF6610078F380F679C68EF67AC62F
:100CA0008FF67BC690F67CC691F67DC692F67EC620
:100CB00093F67FC694F680C695F6D3EF83F0610075
:100CC000CCF9D9F46100D0F9DAF4610078F306F6D2
:100CD000610074F307F6C30E086FFF0E096F000E74
:100CE0000B6F020E0A6FB7ECF2F006010651071106
:100CF000D8B47DEF86F07FEF86F09FEF86F061003D
:100D0000CCF9D9F46100D0F9DAF4610078F306F691
:100D1000610074F307F6D50E086FFF0E096F000E21
:100D20000B6F020E0A6FB7ECF2F0060106510711C5
:100D3000D8A49DEF86F09FEF86F0D0EF86F0020EEC
:100D40006100CCF9D9F46100D0F9DAF4DE26000EA6
:100D5000DD226100D4F9D9F46100D8F9DAF4610038
:100D60007CF377F6020EDE2661007CF378F6000E47
:100D7000DD226100DCF9D9F46100E0F9DAF4610008
:100D800078F38EF6610074F38FF6000E8FBFFF0EBE
:100D9000906F916F926F936F946F956FD3EF83F015
:100DA0006100CCF9D9F46100D0F9DAF4610078F38C
:100DB00006F6610074F307F6C60E086FFF0E096FA2
:100DC000000E0B6F020E0A6FB7ECF2F0060106512F
:100DD0000711D8B4EEEF86F0F0EF86F010EF87F051
:100DE0006100CCF9D9F46100D0F9DAF4610078F34C
:100DF00006F6610074F307F6D80E086FFF0E096F50
:100E0000000E0B6F020E0A6FB7ECF2F006010651EE
:100E10000711D8A40EEF87F010EF87F042EF87F0AC
:100E2000020E6100CCF9D9F46100D0F9DAF4DE26C3
:100E3000000EDD226100D4F9D9F46100D8F9DAF4AA
:100E400061007CF377F6020EDE2661007CF378F613
:100E5000000EDD226100DCF9D9F46100E0F9DAF47A
:100E6000610078F379F6610074F37AF679C68EF64C
:100E70007AC68FF6906B916B926B936B946B956BBC
:100E8000D3EF83F0650E8B19D8A449EF87F04BEFB1
:100E900087F09CEF87F06100CCF9D9F46100D0F9BC
:100EA000DAF4DEC4F6F4DDC4F7F4000EF86E0800E0
:100EB0006100D4F39CF66100CCF9D9F46100D0F95B
:100EC000DAF4DE2A000EDD226100D4F9D9F46100E3
:100ED000D8F9DAF461007CF377F6040EDE266100BF
:100EE0007CF378F6000EDD226100DCF9D9F46100B4
:100EF000E0F9DAF4610078F398F6610078F399F696
:100F0000610078F39AF6610078F39BF671C633F6C8
:100F100072C634F698C635F699C636F69AC637F6CE
:100F20009BC638F69CC639F692ECB8F033C671F61B
:100F300034C672F642EF99F08B0E066F060E076FFD
:100F4000C90E086FFF0E096F000E0B6F020E0A6FBD
:100F5000B7ECF2F0060106510711D8A4B2EF87F002
:100F6000B4EF87F045EF88F06100CCF9D9F4610067
:100F7000D0F9DAF4610078F377F6610074F378F66B
:100F8000010E7727000E78236100DCF9F6F461008A
:100F9000E0F9F7F4000EF86E08006100D4F39CF657
:100FA000BF0E776FFF0E786F6100CCF9D9F4610046
:100FB000D0F9DAF4DEC4F6F4DDC4F7F4000EF86E0E
:100FC0000800F550796F7A6B7751792778517A2339
:100FD0007A5107E11A0E795DD8B0F1EF87F0F3EF9F
:100FE00087F017EF88F06100D4F9D9F46100D8F9DF
:100FF000DAF461007CF377F6040EDE2661007CF300
:1010000078F6000EDD226100DCF9D9F46100E0F928
:10101000DAF4610078F398F6610078F399F66100EC
:1010200078F39AF6610078F39BF639EF88F0610067
:10103000D4F9D9F46100D8F9DAF461007CF377F6D9
:10104000040EDE2661007CF378F6000EDD226100DE
:10105000DCF9D9F46100E0F9DAF4610078F398F68C
:10106000610078F399F6610078F39AF6610078F3FD
:101070009BF6020E6100CCF9D9F46100D0F9DAF4E4
:10108000DE26000EDD2286EF87F0660E8B19D8A4CF
:101090004CEF88F04EEF88F08BEF88F06100CCF9D0
:1010A000D9F46100D0F9DAF4DEC4F6F4DDC4F7F463
:1010B000000EF86E08006100D4F39CF66100CCF9D4
:1010C000D9F46100D0F9DAF4DE2A000EDD226100E5
:1010D000D4F9D9F46100D8F9DAF461007CF377F639
:1010E000040EDE2661007CF378F6000EDD2261003E
:1010F000DCF9D9F46100E0F9DAF4610078F398F6EC
:10110000610078F399F6610078F39AF6610078F35C
:101110009BF686EF87F08B0E066F060E076FCC0EE0
:10112000086FFF0E096F000E0B6F020E0A6FB7EC0F
:10113000F2F0060106510711D8A4A1EF88F0A3EF41
:1011400088F02AEF89F06100CCF9D9F46100D0F978
:10115000DAF4610078F377F6610074F378F6010E43
:101160007727000E78236100DCF9F6F46100E0F9DE
:10117000F7F4000EF86E08006100D4F39CF6BF0E81
:10118000776FFF0E786F6100CCF9D9F46100D0F968
:10119000DAF4DEC4F6F4DDC4F7F4000EF86E0800ED
:1011A000F550796F7A6B7751792778517A237A5194
:1011B00007E11A0E795DD8B0E0EF88F0E2EF88F031
:1011C00006EF89F06100D4F9D9F46100D8F9DAF4B6
:1011D00061007CF377F6040EDE2661007CF378F67E
:1011E000000EDD226100DCF9D9F46100E0F9DAF4E7
:1011F000610078F398F6610078F399F6610078F36E
:101200009AF6610078F39BF639EF88F06100D4F923
:10121000D9F46100D8F9DAF461007CF377F6040EB2
:10122000DE2661007CF378F6000EDD226100DCF939
:10123000D9F46100E0F9DAF4610078F398F661001E
:1012400078F399F6610078F39AF6610078F39BF6EB
:1012500039EF88F0670E8B19D8A431EF89F033EF9E
:1012600089F070EF89F06100CCF9D9F46100D0F910
:10127000DAF4DEC4F6F4DDC4F7F4000EF86E08000C
:101280006100D4F39CF66100CCF9D9F46100D0F987
:10129000DAF4DE2A000EDD226100D4F9D9F461000F
:1012A000D8F9DAF461007CF377F6040EDE266100EB
:1012B0007CF378F6000EDD226100DCF9D9F46100E0
:1012C000E0F9DAF4610078F398F6610078F399F6C2
:1012D000610078F39AF6610078F39BF686EF87F069
:1012E0008B0E066F060E076FCF0E086FFF0E096F8D
:1012F000000E0B6F020E0A6FB7ECF2F006010651FA
:101300000711D8A486EF89F088EF89F00FEF8AF0F3
:101310006100CCF9D9F46100D0F9DAF4610078F316
:1013200077F6610074F378F6010E7727000E7823C4
:101330006100DCF9F6F46100E0F9F7F4000EF86EF4
:1013400008006100D4F39CF6BF0E776FFF0E786F34
:101350006100CCF9D9F46100D0F9DAF4DEC4F6F416
:10136000DDC4F7F4000EF86E0800F550796F7A6B63
:101370007751792778517A237A5107E11A0E795DEE
:10138000D8B0C5EF89F0C7EF89F0EBEF89F06100C5
:10139000D4F9D9F46100D8F9DAF461007CF377F676
:1013A000040EDE2661007CF378F6000EDD2261007B
:1013B000DCF9D9F46100E0F9DAF4610078F398F629
:1013C000610078F399F6610078F39AF6610078F39A
:1013D0009BF639EF88F06100D4F9D9F46100D8F9AF
:1013E000DAF461007CF377F6040EDE2661007CF30C
:1013F00078F6000EDD226100DCF9D9F46100E0F935
:10140000DAF4610078F398F6610078F399F66100F8
:1014100078F39AF6610078F39BF639EF88F0610073
:10142000CCF9D9F46100D0F9DAF4610078F306F66A
:10143000610074F307F6980E086FFF0E096F000E37
:101440000B6F030E0A6FB7ECF2F00601065107119D
:10145000D8A42DEF8AF02FEF8AF076EF8AF0030EF2
:101460006100CCF9D9F46100D0F9DAF4DE26000E7F
:10147000DD226100D4F9D9F46100D8F9DAF4610011
:101480007CF377F6020EDE2661007CF378F6000E20
:10149000DD226100DCF9D9F46100E0F9DAF4DF5013
:1014A000796F79519D6F9E6B9F6BA06BA16BA26B47
:1014B000A36BA46B71C623F672C624F69DC625F6EF
:1014C0009EC626F69FC627F6A0C628F6A1C629F610
:1014D000A2C62AF6A3C62BF6A4C62CF6E0ECE9F0C9
:1014E00023C671F624C672F642EF99F06100CCF97A
:1014F000D9F46100D0F9DAF4610078F306F66100FE
:1015000074F307F6990E086FFF0E096F000E0B6F4C
:10151000020E0A6FB7ECF2F0060106510711D8A4CB
:1015200094EF8AF096EF8AF0C8EF8AF0020E61001D
:10153000CCF9D9F46100D0F9DAF4DE26000EDD2210
:101540006100D4F9D9F46100D8F9DAF461007CF3D0
:1015500077F6020EDE2661007CF378F6000EDD22BF
:101560006100DCF9D9F46100E0F9DAF4610078F3A4
:1015700079F6610074F37AF679C69DF67AC69EF61E
:101580009F6BA06BA16BA26BA36BA46B5AEF8AF04D
:101590006100CCF9D9F46100D0F9DAF4DEC4F6F4D4
:1015A000DDC4F7F4000EF86E0800F5506F0AD8A4F9
:1015B000DCEF8AF0DEEF8AF00FEF8BF06100CCF900
:1015C000D9F46100D0F9DAF4DE2A000EDD226100E0
:1015D000D4F9D9F46100D8F9DAF461007CF377F634
:1015E000020EDE2661007CF378F6000EDD2261003B
:1015F000DCF9D9F46100E0F9DAF4610078F379F606
:10160000610074F37AF679C69DF67AC69EF69F6BF2
:10161000A06BA16BA26BA36BA46B5AEF8AF0610065
:10162000CCF9D9F46100D0F9DAF4610078F306F668
:10163000610074F307F69D0E086FFF0E096F000E30
:101640000B6F020E0A6FB7ECF2F00601065107119C
:10165000D8A42DEF8BF02FEF8BF069EF8BF0020EFB
:101660006100CCF9D9F46100D0F9DAF4DE26000E7D
:10167000DD226100D4F9D9F46100D8F9DAF461000F
:101680007CF377F6040EDE2661007CF378F6000E1C
:10169000DD226100DCF9D9F46100E0F9DAF46100DF
:1016A00078F379F6610078F37AF6610078F37BF6E7
:1016B000610078F37CF679519D6F7A519E6F7B5172
:1016C0009F6F7C51A06FA16BA26BA36BA46B5AEFB1
:1016D0008AF06100CCF9D9F46100D0F9DAF4610044
:1016E00078F306F6610074F307F69C0E086FFF0EA0
:1016F000096F000E0B6F030E0A6FB7ECF2F00601D4
:1017000006510711D8A487EF8BF089EF8BF0D3EF48
:101710008BF0030E6100CCF9D9F46100D0F9DAF452
:10172000DE26000EDD226100D4F9D9F46100D8F97B
:10173000DAF461007CF377F6080EDE2661007CF3B4
:1017400078F6000EDD226100DCF9D9F46100E0F9E1
:10175000DAF4610078F379F6610078F37AF66100E3
:1017600078F37BF6610078F37CF6610078F37DF620
:10177000610078F37EF6610078F37FF6610078F31C
:1017800080F679C69DF67AC69EF67BC69FF67CC625
:10179000A0F67DC6A1F67EC6A2F67FC6A3F680C6D9
:1017A000A4F65AEF8AF06100CCF9D9F46100D0F9BF
:1017B000DAF4610078F306F6610074F307F6E40EDC
:1017C000086FFF0E096F000E0B6F020E0A6FB7EC69
:1017D000F2F0060106510711D8A4F1EF8BF0F3EFF8
:1017E0008BF03DEF8CF0020E6100CCF9D9F4610072
:1017F000D0F9DAF4DE26000EDD226100D4F9D9F446
:101800006100D8F9DAF461007CF377F6080EDE2681
:1018100061007CF378F6000EDD226100DCF9D9F47A
:101820006100E0F9DAF4610078F379F6610078F3A9
:101830007AF6610078F37BF6610078F37CF661005C
:1018400078F37DF6610078F37EF6610078F37FF639
:10185000610078F380F679C69DF67AC69EF67BC65F
:101860009FF67CC6A0F67DC6A1F67EC6A2F67FC610
:10187000A3F680C6A4F65AEF8AF06100CCF9D9F439
:101880006100D0F9DAF4610078F306F6610074F3D0
:1018900007F6E70E086FFF0E096F000E0B6F020EC2
:1018A0000A6FB7ECF2F0060106510711D8A45BEFFE
:1018B0008CF05DEF8CF08EEF8CF0020E6100CCF9B5
:1018C000D9F46100D0F9DAF4DE26000EDD226100E1
:1018D000D4F9D9F46100D8F9DAF461007CF377F631
:1018E000020EDE2661007CF378F6000EDD22610038
:1018F000DCF9D9F46100E0F9DAF4610078F39DF6DF
:10190000610074F39EF6000E9EBFFF0E9F6FA06FE6
:10191000A16FA26FA36FA46F5AEF8AF06100CCF998
:10192000D9F46100D0F9DAF4610078F306F66100C9
:1019300074F307F6EA0E086FFF0E096F000E0B6FC7
:10194000020E0A6FB7ECF2F0060106510711D8A497
:10195000ACEF8CF0AEEF8CF0E0EF8CF0020E61009B
:10196000CCF9D9F46100D0F9DAF4DE26000EDD22DC
:101970006100D4F9D9F46100D8F9DAF461007CF39C
:1019800077F6020EDE2661007CF378F6000EDD228B
:101990006100DCF9D9F46100E0F9DAF4610078F370
:1019A00079F6610074F37AF679C69DF67AC69EF6EA
:1019B0009F6BA06BA16BA26BA36BA46B5AEF8AF019
:1019C0006100CCF9D9F46100D0F9DAF4610078F360
:1019D00006F6610074F307F6900E086FFF0E096FAC
:1019E000000E0B6F030E0A6FB7ECF2F00601065102
:1019F0000711D8A4FEEF8CF000EF8DF044EF8DF0CE
:101A0000030E6100CCF9D9F46100D0F9DAF4DE26D6
:101A1000000EDD226100D4F9D9F46100D8F9DAF4BE
:101A200061007CF377F6020EDE2661007CF378F627
:101A3000000EDD226100DCF9D9F46100E0F9DAF48E
:101A4000610078F396F6610074F397F6610058FA36
:101A5000F6F461005CFAF7F4000EF86E240EF764F9
:101A600005D0610064FBF5F40C0007D0F6C4E9F47E
:101A7000F7C4EAF4610064FBEFF4000E0601726F34
:101A8000000E716F42EF99F06100CCF9D9F461005A
:101A9000D0F9DAF4610078F306F6610074F307F622
:101AA000910E086FFF0E096F000E0B6F020E0A6F8A
:101AB000B7ECF2F0060106510711D8A462EF8DF0E1
:101AC00064EF8DF0AAEF8DF0020E6100CCF9D9F42D
:101AD0006100D0F9DAF4DE26000EDD226100D4F9CF
:101AE000D9F46100D8F9DAF461007CF377F6020EDC
:101AF000DE2661007CF378F6000EDD226100DCF961
:101B0000D9F46100E0F9DAF4610078F396F6610047
:101B100074F397F6610058FAF6F461005CFAF7F492
:101B2000000EF86E240EF76409D0610064FBF5F432
:101B30000D00610068FBF5F40C000AD0F6C4E9F46E
:101B4000F7C4EAF4610064FBEEF4610068FBEFF4B3
:101B50003DEF8DF06100CCF9D9F46100D0F9DAF4F1
:101B6000DEC4F6F4DDC4F7F4000EF86E0800F5509C
:101B70006E0AD8A4BEEF8DF0C0EF8DF005EF8EF0A9
:101B80006100CCF9D9F46100D0F9DAF4DE2A000E54
:101B9000DD226100D4F9D9F46100D8F9DAF46100EA
:101BA0007CF377F6020EDE2661007CF378F6000EF9
:101BB000DD226100DCF9D9F46100E0F9DAF46100BA
:101BC00078F396F6610074F397F6610058FAF6F42C
:101BD00061005CFAF7F4000EF86E240EF76409D089
:101BE000610064FBF5F40D00610068FBF5F40C0086
:101BF0000AD0F6C4E9F4F7C4EAF4610064FBEEF439
:101C0000610068FBEFF43DEF8DF06100CCF9D9F491
:101C10006100D0F9DAF4610078F306F6610074F33C
:101C200007F6950E086FFF0E096F000E0B6F020E80
:101C30000A6FB7ECF2F0060106510711D8A423EFA2
:101C40008EF025EF8EF082EF8EF0020E6100CCF95F
:101C5000D9F46100D0F9DAF4DE26000EDD2261004D
:101C6000D4F9D9F46100D8F9DAF461007CF377F69D
:101C7000020EDE2661007CF378F6000EDD226100A4
:101C8000DCF9D9F46100E0F9DAF4610078F396F652
:101C9000610074F397F6D9C677F6DAC678F6000EC7
:101CA00078BFFF0E796F7A6F610058FAF6F4610021
:101CB0005CFAF7F4000EF86E240EF76411D06100A0
:101CC000DCF9F5F40D006100E0F9F5F40D006100B8
:101CD000E4F9F5F40D006100E8F9F5F40C0010D01A
:101CE000F6C4E9F4F7C4EAF46100DCF9EEF461004B
:101CF000E0F9EEF46100E4F9EEF46100E8F9EFF4E4
:101D00003DEF8DF06100CCF9D9F46100D0F9DAF43F
:101D1000610078F306F6610074F307F6940E086F1D
:101D2000FF0E096F000E0B6F030E0A6FB7ECF2F097
:101D3000060106510711D8A4A0EF8EF0A2EF8EF095
:101D40001FEF8FF0030E6100CCF9D9F46100D0F9D8
:101D5000DAF4DE26000EDD226100D4F9D9F4610048
:101D6000D8F9DAF461007CF377F6020EDE26610022
:101D70007CF378F6000EDD226100DCF9D9F4610015
:101D8000E0F9DAF4610078F396F6610074F397F6FF
:101D9000D9C677F6DAC678F6000E78BFFF0E796FEF
:101DA0007A6F7B6F7C6F7D6F7E6F610058FAF6F4FF
:101DB00061005CFAF7F4000EF86E240EF76421D08F
:101DC0006100DCF9F5F40D006100E0F9F5F40D00B7
:101DD0006100E4F9F5F40D006100E8F9F5F40D0097
:101DE0006100ECF9F5F40D006100F0F9F5F40D0077
:101DF0006100F4F9F5F40D006100F8F9F5F40C0058
:101E00001CD0F6C4E9F4F7C4EAF46100DCF9EEF49E
:101E10006100E0F9EEF46100E4F9EEF46100E8F944
:101E2000EEF46100ECF9EEF46100F0F9EEF461001B
:101E3000F4F9EEF46100F8F9EFF43DEF8DF0610094
:101E4000CCF9D9F46100D0F9DAF4610078F306F640
:101E5000610074F307F6DB0E086FFF0E096F000ECA
:101E60000B6F020E0A6FB7ECF2F006010651071174
:101E7000D8A43DEF8FF03FEF8FF0BCEF8FF0020E54
:101E80006100CCF9D9F46100D0F9DAF4DE26000E55
:101E9000DD226100D4F9D9F46100D8F9DAF46100E7
:101EA0007CF377F6020EDE2661007CF378F6000EF6
:101EB000DD226100DCF9D9F46100E0F9DAF46100B7
:101EC00078F396F6610074F397F6D9C677F6DAC61A
:101ED00078F6000E78BFFF0E796F7A6F7B6F7C6F9C
:101EE0007D6F7E6F610058FAF6F461005CFAF7F4DA
:101EF000000EF86E240EF76421D06100DCF9F5F4D1
:101F00000D006100E0F9F5F40D006100E4F9F5F46D
:101F10000D006100E8F9F5F40D006100ECF9F5F44D
:101F20000D006100F0F9F5F40D006100F4F9F5F42D
:101F30000D006100F8F9F5F40C001CD0F6C4E9F4CA
:101F4000F7C4EAF46100DCF9EEF46100E0F9EEF4C4
:101F50006100E4F9EEF46100E8F9EEF46100ECF9F7
:101F6000EEF46100F0F9EEF46100F4F9EEF46100D2
:101F7000F8F9EFF43DEF8DF06100CCF9D9F4610090
:101F8000D0F9DAF4610078F306F6610074F307F62D
:101F9000DE0E086FFF0E096F000E0B6F020E0A6F48
:101FA000B7ECF2F0060106510711D8A4DAEF8FF072
:101FB000DCEF8FF022EF90F0020E6100CCF9D9F443
:101FC0006100D0F9DAF4DE26000EDD226100D4F9DA
:101FD000D9F46100D8F9DAF461007CF377F6020EE7
:101FE000DE2661007CF378F6000EDD226100DCF96C
:101FF000D9F46100E0F9DAF4610078F396F6610053
:1020000074F397F6610058FAF6F461005CFAF7F49D
:10201000000EF86E240EF76409D0610064FBF5F43D
:102020000D00610068FBF5F40C000AD0F6C4E9F479
:10203000F7C4EAF4610064FBEEF4610068FBEFF4BE
:102040003DEF8DF06100CCF9D9F46100D0F9DAF4FC
:10205000610078F306F6610074F307F6E10E086F8D
:10206000FF0E096F000E0B6F020E0A6FB7ECF2F055
:10207000060106510711D8A440EF90F042EF90F00E
:1020800088EF90F0020E6100CCF9D9F46100D0F92C
:10209000DAF4DE26000EDD226100D4F9D9F4610005
:1020A000D8F9DAF461007CF377F6020EDE266100DF
:1020B0007CF378F6000EDD226100DCF9D9F46100D2
:1020C000E0F9DAF4610078F396F6610074F397F6BC
:1020D000610058FAF6F461005CFAF7F4000EF86E4D
:1020E000240EF76409D0610064FBF5F40D00610073
:1020F00068FBF5F40C000AD0F6C4E9F4F7C4EAF47E
:10210000610064FBEEF4610068FBEFF43DEF8DF0DD
:102110006100CCF9D9F46100D0F9DAF4DEC4F6F448
:10212000DDC4F7F4000EF86E0800F550700AD8A46C
:102130009CEF90F09EEF90F0EBEF90F06100CCF907
:10214000D9F46100D0F9DAF4DE2A000EDD22610054
:10215000D4F9D9F46100D8F9DAF461007CF377F6A8
:10216000020EDE2661007CF378F6000EDD226100AF
:10217000DCF9D9F46100E0F9DAF4610078F379F67A
:10218000610074F37AF679C69DF67AC69EF69F6B67
:10219000A06BA16BA26BA36BA46B71C623F672C676
:1021A00024F69DC625F69EC626F69FC627F6A0C62F
:1021B00028F6A1C629F6A2C62AF6A3C62BF6A4C6FF
:1021C0002CF6780E2D6FD2ECDEF023C671F624C605
:1021D00072F642EF99F06100CCF9D9F46100D0F9C0
:1021E000DAF4DEC4F6F4DDC4F7F4000EF86E08008D
:1021F000F550730AD8B4FFEF90F001EF91F021EFA2
:1022000091F06100CCF9D9F46100D0F9DAF4610001
:1022100078F306F6610074F307F6A00E086FFF0E60
:10222000096F000E0B6F030E0A6FB7ECF2F0060198
:1022300006510711D8A41FEF91F021EF91F077EF2D
:1022400091F06100CCF9D9F46100D0F9DAF4DEC480
:10225000F6F4DDC4F7F4000EF86E0800F550730ACA
:10226000D8B435EF91F037EF91F03DEF91F0000EDB
:102270008A6F030E896F41EF91F0000E8A6F010E95
:10228000896F6100CCF9D9F46100D0F9DAF4895191
:10229000DE268A51DD226100D4F9D9F46100D8F933
:1022A000DAF461007CF377F6020EDE2661007CF33F
:1022B00078F6000EDD226100DCF9D9F46100E0F966
:1022C000DAF4610078F385F6610074F386F671C67E
:1022D00011F672C612F685C613F686C614F6A3EC7E
:1022E000ECF011C671F612C672F642EF99F0610079
:1022F000CCF9D9F46100D0F9DAF4610078F306F68C
:10230000610074F307F6A40E086FFF0E096F000E4C
:102310000B6F030E0A6FB7ECF2F0060106510711BE
:10232000D8A495EF91F097EF91F0DEEF91F0030EC6
:102330006100CCF9D9F46100D0F9DAF4DE26000EA0
:10234000DD226100D4F9D9F46100D8F9DAF4610032
:102350007CF377F6020EDE2661007CF378F6000E41
:10236000DD226100DCF9D9F46100E0F9DAF4DF5034
:10237000796F79519D6F9E6B9F6BA06BA16BA26B68
:10238000A36BA46B71C623F672C624F69DC625F610
:102390009EC626F69FC627F6A0C628F6A1C629F631
:1023A000A2C62AF6A3C62BF6A4C62CF6E8ECE5F0E6
:1023B00023C671F624C672F642EF99F06100CCF99B
:1023C000D9F46100D0F9DAF4610078F306F661001F
:1023D00074F307F6A50E086FFF0E096F000E0B6F62
:1023E000020E0A6FB7ECF2F0060106510711D8A4ED
:1023F000FCEF91F0FEEF91F030EF92F0020E6100F1
:10240000CCF9D9F46100D0F9DAF4DE26000EDD2231
:102410006100D4F9D9F46100D8F9DAF461007CF3F1
:1024200077F6020EDE2661007CF378F6000EDD22E0
:102430006100DCF9D9F46100E0F9DAF4610078F3C5
:1024400079F6610074F37AF679C69DF67AC69EF63F
:102450009F6BA06BA16BA26BA36BA46BC2EF91F0FF
:102460006100CCF9D9F46100D0F9DAF4DEC4F6F4F5
:10247000DDC4F7F4000EF86E0800F550750AD8A414
:1024800044EF92F046EF92F077EF92F06100CCF9D2
:10249000D9F46100D0F9DAF4DE2A000EDD22610001
:1024A000D4F9D9F46100D8F9DAF461007CF377F655
:1024B000020EDE2661007CF378F6000EDD2261005C
:1024C000DCF9D9F46100E0F9DAF4610078F379F627
:1024D000610074F37AF679C69DF67AC69EF69F6B14
:1024E000A06BA16BA26BA36BA46BC2EF91F0610018
:1024F000CCF9D9F46100D0F9DAF4610078F306F68A
:10250000610074F307F6A90E086FFF0E096F000E45
:102510000B6F020E0A6FB7ECF2F0060106510711BD
:10252000D8A495EF92F097EF92F0D1EF92F0020ECF
:102530006100CCF9D9F46100D0F9DAF4DE26000E9E
:10254000DD226100D4F9D9F46100D8F9DAF4610030
:102550007CF377F6040EDE2661007CF378F6000E3D
:10256000DD226100DCF9D9F46100E0F9DAF4610000
:1025700078F379F6610078F37AF6610078F37BF608
:10258000610078F37CF679519D6F7A519E6F7B5193
:102590009F6F7C51A06FA16BA26BA36BA46BC2EF6A
:1025A00091F06100CCF9D9F46100D0F9DAF461005E
:1025B00078F306F6610074F307F6A80E086FFF0EB5
:1025C000096F000E0B6F030E0A6FB7ECF2F00601F5
:1025D00006510711D8A4EFEF92F0F1EF92F03BEF24
:1025E00093F0030E6100CCF9D9F46100D0F9DAF46C
:1025F000DE26000EDD226100D4F9D9F46100D8F99D
:10260000DAF461007CF377F6080EDE2661007CF3D5
:1026100078F6000EDD226100DCF9D9F46100E0F902
:10262000DAF4610078F379F6610078F37AF6610004
:1026300078F37BF6610078F37CF6610078F37DF641
:10264000610078F37EF6610078F37FF6610078F33D
:1026500080F679C69DF67AC69EF67BC69FF67CC646
:10266000A0F67DC6A1F67EC6A2F67FC6A3F680C6FA
:10267000A4F6C2EF91F06100CCF9D9F46100D0F971
:10268000DAF4610078F306F6610074F307F6ED0EF4
:10269000086FFF0E096F000E0B6F020E0A6FB7EC8A
:1026A000F2F0060106510711D8A459EF93F05BEF41
:1026B00093F0A5EF93F0020E6100CCF9D9F461001C
:1026C000D0F9DAF4DE26000EDD226100D4F9D9F467
:1026D0006100D8F9DAF461007CF377F6080EDE26A3
:1026E00061007CF378F6000EDD226100DCF9D9F49C
:1026F0006100E0F9DAF4610078F379F6610078F3CB
:102700007AF6610078F37BF6610078F37CF661007D
:1027100078F37DF6610078F37EF6610078F37FF65A
:10272000610078F380F679C69DF67AC69EF67BC680
:102730009FF67CC6A0F67DC6A1F67EC6A2F67FC631
:10274000A3F680C6A4F6C2EF91F06100CCF9D9F4EB
:102750006100D0F9DAF4610078F306F6610074F3F1
:1027600007F6F00E086FFF0E096F000E0B6F020EDA
:102770000A6FB7ECF2F0060106510711D8A4C3EFB7
:1027800093F0C5EF93F0F6EF93F0020E6100CCF9F1
:10279000D9F46100D0F9DAF4DE26000EDD22610002
:1027A000D4F9D9F46100D8F9DAF461007CF377F652
:1027B000020EDE2661007CF378F6000EDD22610059
:1027C000DCF9D9F46100E0F9DAF4610078F39DF600
:1027D000610074F39EF6000E9EBFFF0E9F6FA06F08
:1027E000A16FA26FA36FA46FC2EF91F06100CCF94B
:1027F000D9F46100D0F9DAF4610078F306F66100EB
:1028000074F307F6F30E086FFF0E096F000E0B6FDF
:10281000020E0A6FB7ECF2F0060106510711D8A4B8
:1028200014EF94F016EF94F048EF94F0020E61006C
:10283000CCF9D9F46100D0F9DAF4DE26000EDD22FD
:102840006100D4F9D9F46100D8F9DAF461007CF3BD
:1028500077F6020EDE2661007CF378F6000EDD22AC
:102860006100DCF9D9F46100E0F9DAF4610078F391
:1028700079F6610074F37AF679C69DF67AC69EF60B
:102880009F6BA06BA16BA26BA36BA46BC2EF91F0CB
:102890006100CCF9D9F46100D0F9DAF4610078F381
:1028A00006F6610074F307F6AC0E086FFF0E096FB1
:1028B000000E0B6F030E0A6FB7ECF2F00601065123
:1028C0000711D8B466EF94F068EF94F088EF94F0B5
:1028D0006100CCF9D9F46100D0F9DAF4610078F341
:1028E00006F6610074F307F6700E086FFF0E096FAD
:1028F000000E0B6F030E0A6FB7ECF2F006010651E3
:102900000711D8A486EF94F088EF94F0EDEF94F0DF
