:040000000DEF00F010
:0400080039EFF6F0E6
:10001800FF00FEEF06F00601DFA115EF00F017EF75
:1000280000F021EF00F015C50CF516C50DF513C548
:100038000EF514C50FF5F8EC0EF018BE26EF00F01B
:1000480028EF00F02EEF00F017C51CF518C51DF5B8
:1000580032EF00F0000E1D6E000E1C6E000E1B6EBF
:10006800000E1A6E44EF00F0000E046E200E036EB0
:1000780013C505F514C506F576ECFCF01A4A1B2ADB
:100088001C501A5C1B50800A196E1D50800A1958A2
:10009800D8A051EF00F053EF00F038EF00F0060160
:1000A800DFB159EF00F05BEF00F065EF00F015C528
:1000B8000CF516C50DF513C50EF514C50FF5F8ECBE
:1000C8000EF015C501F516C502F551EC0CF01C50E3
:1000D8000124136E1D500220146E1200000E066ECD
:1000E80004BE7BEF00F079EF00F081EF00F0036CC5
:1000F800041ED8B0042A010E066E02BE88EF00F076
:1001080086EF00F08EEF00F0016C021ED8B0022AD4
:10011800010E061A000E086E000E076E035004103A
:10012800D8B499EF00F09BEF00F0C3EF00F0010E98
:10013800056EA3EF00F0D89003360436052A04AE06
:10014800A8EF00F0AAEF00F09FEF00F0D890073674
:1001580008360350015C04500258D8A0B6EF00F0EE
:10016800B8EF00F0BDEF00F00350015E0450025AF2
:100178000780D89004320332052EAAEF00F006500B
:10018800D8B4C9EF00F0CBEF00F0CFEF00F0076C68
:10019800081ED8B0082A07C501F508C502F51200DF
:1001A800D7AED9EF00F089EF04F01EEC15F0000986
:1001B800D8A4E1EF00F0E3EF00F0E6EF00F0040E62
:1001C8002FEF01F007012951030B0009D8B4EFEF15
:1001D80000F0F1EF00F003EF01F0010E0601156FDA
:1001E80007012951030B0601166F1551165F070108
:1001F800295106011619FC0B16190701296F250745
:10020800D8A0260725512611D8B40DEF01F00FEF1D
:1002180001F01DEF01F0BFEC16F061008CFCD9F481
:10022800610090FCDAF4DF6E0701234B242BE3EF27
:1002380000F0E2EC01F00601176FBFEC16F0610068
:100248008CFCD9F4610090FCDAF4DF6E0701234BD3
:10025800242B060117511200A7900A0E0601066FFB
:10026800FD0E076F010E086F00EC16F0A792960EB0
:100278000601066F1C0E076F000E086FF9EC15F0EB
:10028800000E0201CB6F000ECD6F000ECF6FB00EC7
:10029800D16F800ED26F000ED36F440ED46F000E54
:1002A800D56F000ED66F000ED76F000ED86F000EF8
:1002B800D96FFC0E0601066F2D0E076F000E086F32
:1002C8000EEC16F0FA0E0601066F2D0E076F000EE3
:1002D800086F07EC16F0A20E0601066F2D0E076FC9
:1002E800000E086F15EC16F0000E0601EF6F000EF9
:1002F800F46F000EF36F080EF86F000EF26F000E29
:10030800F16F000EF06FA7801200000E06010B6F50
:1003180007BF93EF01F091EF01F099EF01F0066D3F
:10032800071FD8B0072B010E0B6F09BFA0EF01F014
:100338009EEF01F0A4EF01F0086D091FD8B0092B5A
:1003480008510911D8B4ABEF01F0ADEF01F0D1EFCE
:1003580001F0010E0A6FB5EF01F0D89008370937A0
:100368000A2B09AFBAEF01F0BCEF01F0B1EF01F0D1
:100378000851065D09510759D8A0C5EF01F0C7EF2C
:1003880001F0CBEF01F00851065F0951075BD890E7
:10039800093308330A2FBCEF01F00B51D8B4D7EF5B
:1003A80001F0D9EF01F0DDEF01F0066D071FD8B0BD
:1003B800072B06C606F607C607F61200D7AEE7EF04
:1003C80001F0E5EF03F0070129890BEF02F0C2EC19
:1003D80016F0080E39EF02F0C2EC16F0070E39EFEE
:1003E80002F00701252953EC16F0040E39EF02F04C
:1003F800070E07012719D8B404EF02F006EF02F040
:1004080008EF02F0C5EC16F00F0E39EF02F012C734
:1004180011F613C712F602D81CEF02F00500FA6EA7
:100428000051FD6E0151FE6E0251FF6EFA5012002E
:100438000601136F146B1451000AD8B426EF02F0AA
:10044800FCEF01F01351010AD8B4FCEF01F0030AE4
:10045800D8B4F0EF01F0010AD8B4EBEF01F0070AC5
:10046800D8B4F5EF01F0FCEF01F01200000E066EB3
:1004780002BE43EF02F041EF02F049EF02F0016CD7
:10048800021ED8B0022A010E066E04BE50EF02F01A
:100498004EEF02F054EF02F0036C041ED8B0042AA9
:1004A80003500410D8B45BEF02F05DEF02F081EF67
:1004B80002F0010E056E65EF02F0D890033604369F
:1004C800052A04AE6AEF02F06CEF02F061EF02F069
:1004D8000350015C04500258D8A075EF02F077EF82
:1004E80002F07BEF02F00350015E0450025AD890EC
:1004F80004320332052E6CEF02F00650D8B487EFB1
:1005080002F089EF02F08DEF02F0016C021ED8B004
:10051800022A01C501F502C502F512000601066F9F
:10052800010E0601076F070129B79DEF02F09FEF43
:1005380002F0E5EF02F006C622F729952987FC0E9E
:1005480029170F0E276F010E216FF40E206F2989CE
:10055800E40E006F2B0E016F000E026F000E126F7B
:10056800000E136FE40E036F2B0E046F000E056F61
:10057800000E146F000E156FE40E066F2B0E076F3A
:10058800000E086F000E166F000E176FE40E096F4D
:100598002B0E0A6F000E0B6F000E186F000E196FEE
:1005A800D60E0C6F2B0E0D6F000E0E6F000E1A6F0D
:1005B800000E1B6F97EC16F018EC13F0000E0601F6
:1005C800076F060107511200000E060106150E6F8F
:1005D800000E07150F6F800E0815106F7F0E091596
:1005E800116F0E510F1110111111D8A4FEEF02F066
:1005F80000EF03F008EF03F0000E066F000E076F20
:10060800000E086F000E096F000E0A150E6F000E1F
:100618000B150F6F800E0C15106F7F0E0D15116FD7
:100628000E510F1110111111D8A41DEF03F01FEF77
:1006380003F027EF03F0000E0A6F000E0B6F000E99
:100648000C6F000E0D6F0A5106190FE10B510719B7
:100658000CE10C51081909E10D510919D8B437EF0B
:1006680003F039EF03F03CEF03F0D8903DEF03F0CF
:10067800D8801200000E0114096E000E02140A6ED2
:10068800800E03140B6E7F0E04140C6E09500A10B2
:100698000B100C10D8A453EF03F055EF03F05DEFE7
:1006A80003F0000E016E000E026E000E036E000EC7
:1006B800046E000E0514096E000E06140A6E800EF4
:1006C80007140B6E7F0E08140C6E09500A100B10DD
:1006D8000C10D8A472EF03F074EF03F07CEF03F072
:1006E800000E056E000E066E000E076E000E086EF8
:1006F800055001180FE1065002180CE107500318C5
:1007080009E108500418D8B48CEF03F08EEF03F019
:1007180091EF03F0D89092EF03F0D8801200016EA9
:10072800010E026E070129B79CEF03F09EEF03F05C
:10073800E3EF03F001C522F729952987FC0E291755
:100748000F0E276F010E216FF40E206F2989F60E08
:10075800006F2D0E016F000E026F000E126F000E5B
:10076800136FF60E036F2D0E046F000E056F000E4B
:10077800146F000E156FF60E066F2D0E076F000E24
:10078800086F000E166F000E176FF60E096F2D0E0C
:100798000A6F000E0B6F000E186F000E196FF20E25
:1007A8000C6F2D0E0D6F000E0E6F000E1A6F000EDF
:1007B8001B6FABEC16F042EC13F0000E026E025009
:1007C80012000701298909EF04F0E6EC16F0080E7B
:1007D80036EF04F0E6EC16F0070E36EF04F00701EA
:1007E800252984EC16F0040E36EF04F0070E0701F5
:1007F8002719D8B402EF04F004EF04F006EF04F070
:10080800E9EC16F00F0E36EF04F012C70CF513C71B
:100818000DF502D81AEF04F00500FA6E0051FD6ECE
:100828000151FE6E0251FF6EFA5012000E6E0F6AF1
:100838000F50000AD8B423EF04F0FAEF03F00E507B
:10084800010AD8B4FAEF03F0030AD8B4EEEF03F0C4
:10085800010AD8B4E9EF03F0070AD8B4F3EF03F0BC
:10086800FAEF03F01200000E096E000E0A6E000E79
:100878000B6E000E0C6E0550061007100810D8B449
:1008880048EF04F04AEF04F080EF04F0010E0D6E1B
:1008980054EF04F0D89005360636073608360D2A88
:1008A80008AE59EF04F05BEF04F04EEF04F0D89077
:1008B80009360A360B360C360550015C06500258CC
:1008C8000750035808500458D8A06DEF04F06FEF94
:1008D80004F078EF04F00550015E0650025A075004
:1008E800035A0850045A0980D89008320732063251
:1008F80005320D2E5BEF04F009C501F50AC502F5B6
:100908000BC503F50CC504F512006BEC15F00009D6
:10091800D8A491EF04F093EF04F096EF04F0040EDE
:10092800D7EF04F007012951030B0009D8B49FEF52
:1009380004F0A1EF04F0ADEF04F0010E016E2951AF
:10094800030B026E0150025E29510218FC0B0218BB
:10095800296F2507D8A0260725512611D8B4B7EF47
:1009680004F0B9EF04F0C7EF04F0E3EC16F061000F
:100978008CFCD9F4610090FCDAF4DF6E0701234B9C
:10098800242B93EF04F0E5EC03F0036EE3EC16F090
:1009980061008CFCD9F4610090FCDAF4DF6E070189
:1009A800234B242B0350120006010B6F060106513E
:1009B80007110811D8B4E3EF04F0E5EF04F006EFEF
:1009C80005F00B51030D000EF324D96E070EF42029
:1009D800DA6E610018F8DEF461001CF8DEF46100DC
:1009E80020F8DEF40B51020D120EF324D96E070E17
:1009F800F420DA6E610024F8DEF4610028F8DDF4F2
:100A080020EF05F00B51030D000EF324D96E070EED
:100A1800F420DA6EE40EDE6E2B0EDE6E000EDE6E55
:100A28000B51020D120EF324D96E070EF420DA6E64
:100A3800000EDE6E000EDD6E12000601206F1CC671
:100A480023F61DC624F61EC621F61FC622F6060189
:100A5800205192EC02F00009D8B435EF05F037EFD9
:100A680005F02BEF05F0CC0E06010C6F150E0D6F7F
:100A7800000E0E6F210E0F6F060E106F39EC14F07A
:100A88001B0E0601066F060E076F000E096F010E9A
:100A9800086FA7EC13F0000E06010C6F000E0D6F27
:100AA800000E0E6F000E0F6F000E106F2BEC14F07F
:100AB80093EC16F0B9EC11F0E806D8B466EF05F03F
:100AC80068EF05F05EEF05F01200066E01500210A7
:100AD8000310D8B472EF05F074EF05F095EF05F048
:100AE8000650030D000EF324D96E070EF420DA6EBB
:100AF800610004F4DEF4610008F4DEF461000CF433
:100B0800DEF40650020D120EF324D96E070EF420FF
:100B1800DA6E610010F4DEF4610014F4DDF4AFEF76
:100B280005F00650030D000EF324D96E070EF420CD
:100B3800DA6EF60EDE6E2D0EDE6E000EDE6E0650DE
:100B4800020D120EF324D96E070EF420DA6E000E91
:100B5800DE6E000EDD6E120006011C6F000E06012F
:100B68001D6F06011C5192EC02F00009D8B4BFEFCA
:100B780005F0C1EF05F0B5EF05F0320E06010C6F78
:100B88001F0E0D6F000E0E6F1D0E0F6F060E106FED
:100B980039EC14F01B0E0601066F060E076F000EE7
:100BA800096F010E086FA7EC13F0000E06010C6F19
:100BB800000E0D6F000E0E6F000E0F6F000E106FFF
:100BC8002BEC14F093EC16F0B9EC11F0E806D8B45D
:100BD800F0EF05F0F2EF05F0E8EF05F006011D5122
:100BE8001200D7AEFAEF05F03DEF07F007012989AB
:100BF8000FEF06F0C2EC16F0070E39EF06F007010A
:100C0800252953EC16F0030E39EF06F0C5EC16F063
:100C18000A0E39EF06F012C711F613C712F602D8FA
:100C280020EF06F00500FA6E0051FD6E0151FE6ED0
:100C38000251FF6EFA5012000601136F146B145123
:100C4800000AD8B42AEF06F00AEF06F01351010A99
:100C5800D8B40AEF06F0030AD8B4FEEF05F0060A86
:100C6800D8B403EF06F00AEF06F012001B6E17C5A2
:100C78001EF518C51FF519C51CF51AC51DF51B501D
:100C880093EC03F00009D8B44CEF06F04EEF06F0F1
:100C980043EF06F03E0E076E1A0E086E000E096E40
:100CA8001C0E0A6E050E0B6E71EC14F0160E016E1A
:100CB800050E026E000E046E010E036ECBEC13F0EF
:100CC800000E076E000E086E000E096E000E0A6E0A
:100CD800000E0B6E63EC14F09BEC16F002EC13F0B4
:100CE800E806D8B47AEF06F07CEF06F072EF06F06B
:100CF8001200D7AE82EF06F032EF08F097EC16F04C
:100D0800020E0701286F95EF06F0CDEC14F0BDEF49
:100D180006F0E4EC15F0BDEF06F09AEC14F0BDEF28
:100D280006F014C711F615C712F621EE03F302D820
:100D3800A8EF06F00500FA6EDE50FD6EDE50FE6E7E
:100D4800DE50FF6EFA5012000601136F146B145137
:100D5800000AD8B4B2EF06F091EF06F01351020A78
:100D6800D8B489EF06F0010AD8B48DEF06F091EFF8
:100D780006F0120006011D6F06011D5192EC02F0EB
:100D88000009D8B4CAEF06F0CCEF06F0C0EF06F0C1
:100D9800B60E06010C6F1E0E0D6F000E0E6F1C0EA8
:100DA8000F6F060E106F39EC14F01B0E0601066F5C
:100DB800060E076F000E096F010E086FA7EC13F0FF
:100DC800000E06010C6F000E0D6F000E0E6F000E68
:100DD8000F6F000E106F2BEC14F093EC16F0B9ECBB
:100DE80011F0E806D8B4FBEF06F0FDEF06F0F3EFDC
:100DF80006F012005E0EF66E2D0EF76E000EF86EFF
:100E080001EEEAF310EE07F00900F5C4EEF4E55040
:100E1800E150FAE102EE00F210EE00F1EE6AE55060
:100E2800E150FCE1E250FAE102EE00F1800EEE6AD8
:100E3800E806FDE102EE00F0F80EEE6AE806FDE1D4
:100E480001EE00F3CF0EEE6AE806FDE101EED9F2FD
:100E58001D0EEE6AE806FDE10501FE6BFD6B04015F
:100E6800080E5D6F000E5E6F000E5F6F000157EF9A
:100E780013F00701298952EF07F0E6EC16F0070E88
:100E88007BEF07F00701252984EC16F0030E7BEFB2
:100E980007F0E9EC16F00A0E7BEF07F012C70CF525
:100EA80013C70DF502D863EF07F00500FA6E00517D
:100EB800FD6E0151FE6E0251FF6EFA5012000E6E69
:100EC8000F6A0F50000AD8B46CEF07F04DEF07F027
:100ED8000E50010AD8B44DEF07F0030AD8B441EF19
:100EE80007F0060AD8B446EF07F04DEF07F01200F6
:100EF800000E0201A56F000EA66F000EA76F000E70
:100F0800A86F000EA96F000EAA6FA00EAB6F800E1F
:100F1800AC6F000EAD6F820EAE6F060EAF6F000E97
:100F2800B06F000EB16F000EB26F000EB36F000EFF
:100F38000601066F000E076F000E086F23EC16F00F
:100F4800000E0601066F000E076F000E086F1CECFE
:100F580016F0000E0601066F000E076F000E086FF0
:100F68002AEC16F0000E0601F56F1200D7AEBFEF9F
:100F780007F04FEF09F0FC0E07012917020E286F42
:100F88002995CEEF07F0DDEC15F0F6EF07F00F0E20
:100F9800F6EF07F016C711F617C712F621EE06F39B
:100FA80002D8E1EF07F00500FA6EDE50FD6EDE5064
:100FB800FE6EDE50FF6EFA5012000601136F146BBE
:100FC8001451000AD8B4EBEF07F0CBEF07F0135138
:100FD800020AD8B4C7EF07F0010AD8B4C7EF07F080
:100FE800CBEF07F01200186E185093EC03F00009CD
:100FF800D8B401EF08F003EF08F0F8EF07F0A20EFD
:10100800076E230E086E000E096E170E0A6E050E87
:101018000B6E71EC14F0160E016E050E026E000ECA
:10102800046E010E036ECBEC13F0000E076E000E7B
:10103800086E000E096E000E0A6E000E0B6E63EC51
:1010480014F09BEC16F002EC13F0E806D8B42FEF7E
:1010580008F031EF08F027EF08F01200ABEC16F0BB
:10106800020E0701286F45EF08F046EC16F06CEF0A
:1010780008F0F7EC16F06CEF08F0CDEC15F06CEF1B
:1010880008F014C70CF515C70DF521EE03F302D8C7
:1010980058EF08F00500FA6EDE50FD6EDE50FE6E69
:1010A800DE50FF6EFA5012000E6E0F6A0F50000AE3
:1010B800D8B461EF08F041EF08F00E50020AD8B436
:1010C80039EF08F0010AD8B43DEF08F041EF08F015
:1010D80012007BEC0CF007012951030B0009D8B46E
:1010E80078EF08F07AEF08F087EF08F013EC15F0C6
:1010F8000009D8B482EF08F084EF08F087EF08F011
:10110800100E0701276F07012751030DB70EF324AF
:10111800F66EFD0EF420F76EF86A000EF82202D87B
:10112800A3EF08F00500FA6E0900F550FD6E0900FE
:10113800F550FE6E0900F550FF6EFA5012000701D7
:10114800276F1200F1C5F5F5F2C5F6F5000E060198
:10115800DA6F000ED96FC8EF08F0EFC5BBF5F0C520
:10116800BCF5F50E0501BD6F050EBE6FF3C5BFF5E5
:10117800F4C5C0F543EC99F00501BB510601D92728
:101188000501BC510601DA236100D4F7F6F46100C9
:10119800D8F7F7F4000EF86E0800F5500009D8A447
:1011A800D8EF08F0DAEF08F0B1EF08F0D9C6EFF59C
:1011B800DAC6F0F51200F6EC0CF007012951030B22
:1011C8000009D8B4EAEF08F0ECEF08F0F9EF08F0FE
:1011D80060EC15F00009D8B4F4EF08F0F6EF08F069
:1011E800F9EF08F0100E0701276F07012751030DCB
:1011F800B70EF324F66EFD0EF420F76EF86A000EB3
:10120800F82202D815EF09F00500FA6E0900F5502A
:10121800FD6E0900F550FE6E0900F550FF6EFA509C
:1012280012000701276F1200000E0601086FE5EC97
:1012380014F00009D8B423EF09F025EF09F01BEFEB
:1012480009F0A4EC0CF00601076F0A0E0719D8A4E0
:1012580030EF09F032EF09F03CEF09F0780E08257D
:10126800D96EDA6A080EDA22000EDF6E4EEF09F048
:10127800780E0825D96EDA6A080EDA2261001CF8A1
:10128800DFF4082B7F0E08654CEF09F04EEF09F0EC
:101298001BEF09F01200FC0E07012917020E286F38
:1012A80029955EEF09F0F5EC16F085EF09F00F0EC1
:1012B80085EF09F016C70CF517C70DF521EE06F3F3
:1012C80002D871EF09F00500FA6EDE50FD6EDE50AF
:1012D800FE6EDE50FF6EFA5012000E6E0F6A0F504F
:1012E800000AD8B47AEF09F05BEF09F00E50020A51
:1012F800D8B457EF09F0010AD8B457EF09F05BEFFB
:1013080009F01200A7C6ABF6A8C6ACF6000E060197
:10131800DA6F000ED96FA4EF09F0A5C671F6A6C65C
:1013280072F6AB0E736F060E746FA9C675F6AAC671
:1013380076F600EC80F006017151D9277251DA2354
:101348006100ACFAF6F46100B0FAF7F4000EF86E3A
:101358000800F5500009D8A4B4EF09F0B6EF09F079
:1013680091EF09F0D9C6A5F6DAC6A6F61200000E66
:10137800096E000E0A6E000E0B6E000E0C6E01A0B8
:10138800C8EF09F0CAEF09F0D2EF09F005500926B5
:1013980006500A2207500B2208500C22D890053616
:1013A800063607360836D890043203320232013244
:1013B8000150021003100410D8A4E5EF09F0E7EF7C
:1013C80009F0C3EF09F009C501F50AC502F50BC517
:1013D80003F50CC504F5120008C60CF609C60DF68F
:1013E80006C60EF607C60FF606010C510A6F0D5118
:1013F8000B6F0C4B0D2B610028F8F6F461002CF8EC
:10140800F7F4000EF86E610038F8D9F461003CF882
:10141800DAF40E4B0F2B240EF76403D00800F550B6
:1014280005D0F6C4E9F4F7C4EAF4EF50DF6EDF50F4
:10143800D8A421EF0AF023EF0AF0F8EF09F0120020
:1014480003C507F504C508F501C509F502C50AF580
:101458000750056E0850066E074A082A610014F402
:10146800F6F4610018F4F7F4000EF86E610024F445
:10147800D9F4610028F4DAF4094A0A2A240EF76438
:1014880003D00800F55005D0F6C4E9F4F7C4EAF42F
:10149800EF50DF6EDF50D8A454EF0AF056EF0AF091
:1014A8002CEF0AF012007CECE1F00DC542F50EC5F8
:1014B80043F50FC544F510C545F5010EACECEBF04E
:1014C80042C550F543C551F544C552F545C553F5D8
:1014D800000E546E000E556EC80E566E420E576EB4
:1014E8001EECDAF050C56DF551C56EF552C56FF5B5
:1014F80053C570F56DC55CF56EC55DF56FC55EF5D8
:1015080070C55FF51200D6ECD1F00DC542F50EC5D9
:1015180043F50FC544F510C545F5000EACECEBF0EE
:1015280042C550F543C551F544C552F545C553F577
:10153800000E546E000E556E800E566E440E576E99
:101548001EECDAF050C56DF551C56EF552C56FF554
:1015580053C570F56DC55CF56EC55DF56FC55EF577
:1015680070C55FF512000601196F010E06011A6FAA
:10157800070129B5C2EF0AF0C4EF0AF0E3EF0AF059
:101588002985000E06011A6F0701255153EC16F044
:1015980006011951D8B4D3EF0AF0D5EF0AF0DCEF01
:1015A8000AF0040E0701276FE6EC10F0E1EF0AF0ED
:1015B800030E0701276FEEEC13F0FEEC13F00601A3
:1015C8001A511200D7AEEBEF0AF01FEF0DF006012B
:1015D80020EE02F01151D9261251DA22610078F377
:1015E80006F6610074F307F6610044F8D9F4610067
:1015F80048F8DAF4610078F308F6610074F309F644
:10160800A7EC13F0000E06010C6F000E0D6F000E14
:101618000E6F000E0F6F000E106F39EC14F0020EF3
:101628001200D7AE1AEF0BF047EF0DF0060120EECF
:1016380002F01151D9261251DA22610078F306F628
:10164800610074F307F6610044F8D9F4610048F8C2
:10165800DAF4610078F308F6610074F309F6A7EC90
:1016680013F0000E06010C6F000E0D6F000E0E6FCA
:10167800000E0F6F000E106F39EC14F0020E1200FE
:101688000601066F0601F851D8B44DEF0BF04FEF85
:101698000BF046EF0BF0A7B254EF0BF056EF0BF040
:1016A8005BEF0BF0610018F8C9F271EF0BF0A7922D
:1016B8003A0EF425D96EDA6A070EDA22610018F8B4
:1016C800DFF4F42B070EF4656CEF0BF06EEF0BF004
:1016D80070EF0BF0000EF46FF807A7821200000EEF
:1016E8000301D96F000EDA6F000EDB6F000EDC6F9E
:1016F800000EDF6F000EE06F000EE56F000EE76F63
:10170800000EEC6F000EEE6F000EEF6F000EF06F24
:10171800000EF16F000EF26F000EF46F100EF56FF1
:10172800000EF66F000EF76F000EF86F000EF96FDF
:10173800090EFA6F940EF36F1200B5A2A6EF0BF024
:10174800A8EF0BF0AAEF0BF0CDEF0BF0B5A0AFEFC1
:101758000BF0B1EF0BF0B3EF0BF0CDEF0BF0020194
:101768009AA5B9EF0BF0BBEF0BF0BDEF0BF0CDEF87
:101778000BF09AAFC2EF0BF0C4EF0BF0C6EF0BF013
:10178800CDEF0BF097A9CBEF0BF0CDEF0BF0A1EF5E
:101798000BF01200B5A2D3EF0BF0D5EF0BF0D7EF9B
:1017A8000BF0FAEF0BF0B5A0DCEF0BF0DEEF0BF06F
:1017B800E0EF0BF0FAEF0BF002019AA5E6EF0BF061
:1017C800E8EF0BF0EAEF0BF0FAEF0BF09AAFEFEF60
:1017D8000BF0F1EF0BF0F3EF0BF0FAEF0BF097A92A
:1017E800F8EF0BF0FAEF0BF0CEEF0BF0120006C695
:1017F80008F607C609F604EF0CF00601064B072B9E
:10180800610018F8F6F461001CF8F7F4000EF86EA1
:10181800240EF76403D00800F55005D0F6C4E9F4A7
:10182800F7C4EAF4EF500009D8A41DEF0CF01FEF3D
:101838000CF001EF0CF006010851065D066F095126
:101848000759076F1200010E06010C6F200E0619CA
:101858000711D8B432EF0CF034EF0CF04DEF0CF068
:10186800F70E086FFF0E096F06C60AF607C60BF6D5
:1018780008510A2709510B230B5109E1050E0A5D8E
:10188800D8A049EF0CF04BEF0CF04DEF0CF0000E28
:101898000C6F0CC606F6076B120001C503F502C5EE
:1018A80004F559EF0CF0014A022A610004F4F6F439
:1018B800610008F4F7F4000EF86E240EF76403D004
:1018C8000800F55005D0F6C4E9F4F7C4EAF4EF507F
:1018D8000009D8A472EF0CF074EF0CF057EF0CF07D
:1018E8000350015C016E04500258026E12003FEC76
:1018F80015F00009D8B483EF0CF085EF0CF089EFF0
:101908000CF0CEEC16F0A3EF0CF029EC15F0000962
:10191800D8B491EF0CF093EF0CF097EF0CF0C8EC03
:1019280016F0A3EF0CF034EC15F00009D8B49FEFD3
:101938000CF0A1EF0CF0A3EF0CF0CBEC16F01200BA
:101948000601F051D8B4ABEF0CF0ADEF0CF0A4EFFA
:101958000CF02A0EF125D96EDA6A070EDA22DF506A
:10196800EF6F320EF125D96EDA6A070EDA22DF50F0
:10197800066FF12B070EF165C4EF0CF0C6EF0CF003
:10198800C8EF0CF0000EF16FA790F007A780065182
:101998001200146E010E156E070129B5D6EF0CF072
:1019A800D8EF0CF0F4EF0CF02985000E156E2551D8
:1019B80084EC16F01450D8B4E4EF0CF0E6EF0CF019
:1019C800EDEF0CF0040E0701276FBFEC12F0F2EFF9
:1019D8000CF0030E0701276F4AEC15F01CEC14F00D
:1019E800155012008CEC15F00009D8B4FEEF0CF07D
:1019F80000EF0DF004EF0DF0F2EC16F01EEF0DF015
:101A080076EC15F00009D8B40CEF0DF00EEF0DF0E0
:101A180012EF0DF0ECEC16F01EEF0DF081EC15F066
:101A28000009D8B41AEF0DF01CEF0DF01EEF0DF001
:101A3800EFEC16F0120020EE02F00C50D9260D50F3
:101A4800DA22610078F301F5610074F302F56100B0
:101A580030F4D9F4610034F4DAF4610078F303F572
:101A6800610074F304F5CBEC13F0000E076E000E62
:101A7800086E000E096E000E0A6E000E0B6E71ECF9
:101A880014F0020E120020EE02F00C50D9260D5070
:101A9800DA22610078F301F5610074F302F5610060
:101AA80030F4D9F4610034F4DAF4610078F303F522
:101AB800610074F304F5CBEC13F0000E076E000E12
:101AC800086E000E096E000E0A6E000E0B6E71ECA9
:101AD80014F0020E1200A1EC15F0050E0601416F7C
:101AE8000F0E406FF10EE82EFED7402FFCD7412F86
:101AF800FAD7E5ECE7F0000E0601066F000E6BEC76
:101B080013F0010E0601066F010E076F010E3AEC85
:101B180011F0010E70EC16F055EC11F0010E0601F3
:101B2800EB6F1200000E03011F6F000E206F040EF2
:101B3800216F860E1D6FE80E1C6FB1981C51600056
:101B480074FC09F606010A6B09C60AF6096B091145
:101B5800F66F0A51F76FA188FE0E066F2D0E076FFC
:101B6800000E086F31EC16F0010E03011E6F120013
:101B7800BF0E06010E6FFF0E0F6F0CC610F60DC6D6
:101B880011F60E5110270F511123115107E11A0EAA
:101B9800105DD8B0D2EF0DF0D4EF0DF0DBEF0DF003
:101BA800200E0C110C6F0D510D6FDFEF0DF00CC6F0
:101BB8000CF60DC60DF61200000E0601176F000E8A
:101BC800166FF3EF0DF015C608F6096B13C60AF683
:101BD80014C60BF69DECFBF00601164B172B16519D
:101BE8001125D96E17511221DA6EDF50156F155174
:101BF800D8A401EF0EF003EF0EF0E7EF0DF012009E
:101C0800000E0601231B000E241B000E251B800E50
:101C1800261B1FC606F620C607F621C608F622C6EA
:101C280009F623C60AF624C60BF625C60CF626C600
:101C38000DF615ECCDF006C61FF607C620F608C649
:101C480021F609C622F612009F0E06010E6FFF0E3E
:101C58000F6F0CC610F60DC611F60E5110270F5156
:101C68001123115107E11A0E105DD8B03EEF0EF0A6
:101C780040EF0EF046EF0EF05F0E0C150C6F0D6B7B
:101C88004AEF0EF00CC60CF60DC60DF61200080E43
:101C98000601F86152EF0EF054EF0EF06CEF0EF003
:101CA8003A0EF325D96EDA6A070EDA22DF500201FE
:101CB800C96F0601F32B070EF36565EF0EF067EFAA
:101CC8000EF069EF0EF0000EF36FF82B6DEF0EF0CB
:101CD800A7921200BF0E056EFF0E066E03C507F52C
:101CE80004C508F50550072606500822085007E1E4
:101CF8001A0E075CD8B083EF0EF085EF0EF08CEF6C
:101D08000EF0200E0310036E0450046E90EF0EF0D8
:101D180003C503F504C504F51200000E1E1A000ED3
:101D28001F1A000E201A800E211A1AC501F51BC5AC
:101D380002F51CC503F51DC504F51EC505F51FC52F
:101D480006F520C507F521C508F576ECCFF001C5E5
:101D58001AF502C51BF503C51CF504C51DF51200CF
:101D6800200E01180210D8B4BCEF0EF0BEEF0EF032
:101D7800D5EF0EF0F70E036EFF0E046E01C505F5E4
:101D880002C506F50350052604500622065009E14F
:101D9800050E055CD8A0D3EF0EF0D5EF0EF0D5EF09
:101DA8000EF012009F0E056EFF0E066E03C507F5B6
:101DB80004C508F50550072606500822085007E113
:101DC8001A0E075CD8B0EBEF0EF0EDEF0EF0F3EF64
:101DD8000EF05F0E0314036E046AF7EF0EF003C5EE
:101DE80003F504C504F51200000E126E000E116E04
:101DF80009EF0FF010C503F5046A0EC505F50FC508
:101E080006F576ECFCF0114A122A11500C24D96E12
:101E180012500D20DA6EDF50106E1050D8A417EF54
:101E28000FF019EF0FF0FEEF0EF01200060119BFC8
:101E380028EF0FF0195106E11805D8B026EF0FF07A
:101E480028EF0FF036EF0FF018C61AF619C61BF672
:101E58001A1F1B1F1A4B1B2B1AC618F61BC619F67E
:101E68003AEF0FF018C618F619C619F6120014BE84
:101E780048EF0FF0145006E11304D8B046EF0FF006
:101E880048EF0FF056EF0FF013C515F514C516F50A
:101E9800151E161E154A162A15C513F516C514F56E
:101EA8005AEF0FF013C513F514C514F51200D7AE89
:101EB80060EF0FF0D1EF11F011C606F612C607F663
:101EC800000E0601096F010E086FA7EC13F0000E53
:101ED80006010C6F000E0D6F000E0E6F000E0F6FD7
:101EE800000E106F39EC14F0040E1200D7AE7FEF1D
:101EF8000FF0E9EF11F011C606F612C607F6000E4C
:101F08000601096F020E086FA7EC13F0000E060118
:101F18000C6F000E0D6F000E0E6F000E0F6F000E8F
:101F2800106F39EC14F0020E1200D7AE9EEF0FF0CE
:101F380001EF12F011C606F612C607F6000E0601EA
:101F4800096F010E086FA7EC13F0000E06010C6F65
:101F5800000E0D6F000E0E6F000E0F6F000E106F4B
:101F680039EC14F0020E1200D7AEBDEF0FF019EFE6
:101F780012F011C606F612C607F6000E0601096F22
:101F8800020E086FA7EC13F0000E06010C6F000E8E
:101F98000D6F000E0E6F000E0F6F000E106F39ECF4
:101FA80014F0040E1200D7AEDCEF0FF031EF12F090
:101FB80011C606F612C607F6000E0601096F020ED4
:101FC800086FA7EC13F0000E06010C6F000E0D6FE2
:101FD800000E0E6F000E0F6F000E106F39EC14F02C
:101FE800020E1200D7AEFBEF0FF049EF12F011C648
:101FF80006F612C607F6000E0601096F010E086FF5
:10200800A7EC13F0000E06010C6F000E0D6F000E0A
:102018000E6F000E0F6F000E106F39EC14F0020EE9
:102028001200D7AE1AEF10F061EF12F011C606F6E3
:1020380012C607F6000E0601096F010E086FA7EC1D
:1020480013F0000E06010C6F000E0D6F000E0E6FE0
:10205800000E0F6F000E106F39EC14F0040E120012
:10206800D7AE39EF10F079EF12F011C606F612C6A6
:1020780007F6000E0601096F020E086FA7EC13F0B1
:10208800000E06010C6F000E0D6F000E0E6F000E95
:102098000F6F000E106F39EC14F0040E12009F0E33
:1020A8000601086FFF0E096F200E06110A6F000E59
:1020B80007110B6F08510A2709510B230B510AE12D
:1020C8001A0E0A5DD8A06BEF10F06EEF10F0010E3B
:1020D8006FEF10F0000E066F076B1200D00E0601AE
:1020E800086FFF0E096F06C60AF607C60BF60851F9
:1020F8000A2709510B230B510AE10A0E0A5DD8A0E1
:1021080088EF10F08BEF10F0010E8CEF10F0000E3E
:10211800066F076B12009F0E0601086FFF0E096F0E
:1021280006C60AF607C60BF608510A2709510B23FB
:102138000B510AE11A0E0A5DD8A0A5EF10F0A8EF1E
:1021480010F0010EA9EF10F0000E066F076B1200D9
:10215800BF0E0601086FFF0E096F06C60AF607C60E
:102168000BF608510A2709510B230B510AE11A0EE5
:102178000A5DD8A0C2EF10F0C5EF10F0010EC6EF4F
:1021880010F0000E066F076B1200060106510711CA
:1021980008110911D8B4D3EF10F0D5EF10F0DDEF26
:1021A80010F0000E061B000E071B000E081B800E09
:1021B800091B06C606F607C607F608C608F609C6C6
:1021C80009F61200D7AEEBEF10F0BFEF12F00701DF
:1021D8002951FC0B0209296F25052611D8A4F7EF10
:1021E80010F0F9EF10F0FBEF10F0E2EC01F0D880FE
:1021F800070122354DEC16F0040E1200000E000106
:10220800D56F8A0ED76F160ED86F000ED96F000ED5
:10221800DA6F000EDB6F020EDC6F000EDD6F000E52
:10222800DE6F000EDF6F000ED46F9E0ED66FAE9A73
:102238009E8A12000150021003100410D8B427EF30
:1022480011F029EF11F031EF11F0000E011A000E14
:10225800021A000E031A800E041A01C501F502C500
:1022680002F503C503F504C504F512000601096F5C
:1022780009C608F60601083B0847EC5108191F0B68
:102288000819EC6F06C608F608470847EC51081904
:10229800E30B0819EC6FEC510719FC0B0719EC6FED
:1022A8001200F50E06011B6FEEC61CF6760EBEEC8C
:1022B80006F0F20E06011B6FEDC61CF6760EBEEC9C
:1022C80006F0F40E06011B6FECC61CF6760EBEEC8B
:1022D80006F01200D7AE73EF11F093EF13F0B6ECDF
:1022E80016F0B3EC16F00009D8B47DEF11F07FEFCB
:1022F80011F085EF11F0000E53EC16F0000E4DECC6
:1023080016F0000E12000701D851D911DA11D8B40D
:1023180090EF11F092EF11F09FEF11F002D89FEFBC
:1023280011F00500FA6ED851FD6ED951FE6EDA51E2
:10233800FF6EFA5012001200056E610014F4ECF3FF
:102348000301F38FF39DF381F3B1ADEF11F0AFEF1C
:1023580011F0A8EF11F0EB51046E036AEA5103245F
:10236800016E000E0420026E1200010E0601066FB7
:10237800070129B5C2EF11F0C4EF11F0CEEF11F04B
:102388002997226997EC16F047EC14F059EC16F0EF
:1023980028C706F60601065112000CC501F50DC541
:1023A80002F5000E046E010E036ECBEC13F0000E66
:1023B800076E000E086E000E096E000E0A6E000E03
:1023C8000B6E71EC14F0040E12000CC501F50DC56E
:1023D80002F5000E046E020E036ECBEC13F0000E35
:1023E800076E000E086E000E096E000E0A6E000ED3
:1023F8000B6E71EC14F0020E12000CC501F50DC540
:1024080002F5000E046E010E036ECBEC13F0000E05
:10241800076E000E086E000E096E000E0A6E000EA2
:102428000B6E71EC14F0020E12000CC501F50DC50F
:1024380002F5000E046E020E036ECBEC13F0000ED4
:10244800076E000E086E000E096E000E0A6E000E72
:102458000B6E71EC14F0040E12000CC501F50DC5DD
:1024680002F5000E046E020E036ECBEC13F0000EA4
:10247800076E000E086E000E096E000E0A6E000E42
:102488000B6E71EC14F0020E12000CC501F50DC5AF
:1024980002F5000E046E010E036ECBEC13F0000E75
:1024A800076E000E086E000E096E000E0A6E000E12
:1024B8000B6E71EC14F0020E12000CC501F50DC57F
:1024C80002F5000E046E010E036ECBEC13F0000E45
:1024D800076E000E086E000E096E000E0A6E000EE2
:1024E8000B6E71EC14F0040E12000CC501F50DC54D
:1024F80002F5000E046E020E036ECBEC13F0000E14
:10250800076E000E086E000E096E000E0A6E000EB1
:102518000B6E71EC14F0040E1200FEECFFF0B9EC37
:1025280013F0DDEC13F0E2ECFCF055EC14F002ECE7
:1025380011F073EC0BF00DEC14F096EC0DF07CEC54
:1025480007F030EC01F0120003011EA5AEEF12F007
:10255800B0EF12F0B9EF12F01E9102501D6F61003A
:1025680004F41CF31E81BEEF12F002501D6F6100CF
:1025780004F41CF3120007012951FC0B0209296F0E
:1025880025052611D8A4CBEF12F0CDEF12F0CFEF2E
:1025980012F0E5EC03F0D880070122357FEC16F045
:1025A800040E12000601065108036100CCF30AF676
:1025B8006100D0F30BF606510903F3500B270751BE
:1025C8000803F3500B270AC606F60BC607F61200D7
:1025D800320E0601F225D96EDA6A070EDA22C7C270
:1025E800DFF4F22B070EF265FCEF12F0FEEF12F0AB
:1025F80000EF13F0000EF26FF02B1200010E016EC7
:10260800070129B50AEF13F00CEF13F016EF13F0DA
:1026180029972269ABEC16F07FEC14F065EC16F004
:1026280028C701F501501200020194BF1EEF13F0F4
:1026380020EF13F02CEF13F0000E9A6F000E9B6F33
:10264800000E976F8D69510E896F510E886F948FA8
:102658001200015003026100CCF305F56100D0F3CC
:1026680006F501500402F350062602500302F35007
:10267800062605C501F506C502F51200020194BF3C
:1026880048EF13F04AEF13F056EF13F0000E9A6F6D
:10269800000E9B6F000E976F8D69510E896F510E5A
:1026A800886F948F120091EC12F0D68EA80E060156
:1026B800066F2D0E076F000E086F31EC16F06FECE9
:1026C8000DF0B5ECE2F065EF13F00DEF00F0060148
:1026D800086F08C607F60601073BEE5107198F0B6E
:1026E8000719EE6F06C607F60747EE510719F10BF3
:1026F8000719EE6F1200F90E0501FB6F050EFC6F4E
:10270800000EEF6F000EF06FF7C5F1F5F8C5F2F5A2
:10271800FB0EF36F050EF46FA6EC08F01200DAEC6E
:1027280016F0D7EC16F00009D8B49DEF13F09FEF20
:1027380013F0A5EF13F0000E84EC16F0000E7FECFA
:1027480016F0000E1200070129A9ADEF13F0AFEF44
:1027580013F0B8EF13F006C623F707C624F708C628
:1027680025F709C626F729991200000E0001606FA7
:10277800000E616F000E636F000E646F000E656FD0
:10278800000E666F000E676F000E686F120007017B
:1027980029A9D1EF13F0D3EF13F0DCEF13F001C543
:1027A80023F702C524F703C525F704C526F7299999
:1027B8001200040E0201946F800E956F180E966F2A
:1027C800030E9C6F000E9A6F000E9B6F000E976FA2
:1027D8008D691200D7AEF3EF13F04AEF15F0070139
:1027E8002951FC0B0209296F225122254DEC16F0C4
:1027F800030E120004EF14F0A1EC0BF06DEC08F0DE
:10280800070129B50AEF14F00CEF14F000EF14F0EB
:102818001200040E0301326F120E316F000E336F77
:10282800C10E2F6F000E2E6FB996C00E306F1200BA
:1028380022EF14F0CEEC0BF0DFEC08F0070129B51D
:1028480028EF14F02AEF14F01EEF14F012000CC653
:1028580006F60DC607F60EC608F60FC609F610C628
:102868000AF6020ED8EC04F012000CC606F60DC6E5
:1028780007F60EC608F60FC609F610C60AF6000EC9
:10288800D8EC04F01200A594A596A590A592020193
:102898009B919B959B9F9B9D9B93979397959791B6
:1028A8001200600E0001AD6F000EAF6F000EB36F27
:1028B800080EB16F000EB06F000EAC6F120007C5A6
:1028C80001F508C502F509C503F50AC504F50BC5E8
:1028D80005F5020E69EC05F0120007C501F508C5FB
:1028E80002F509C503F50AC504F50BC505F5000E83
:1028F80069EC05F01200A594A596A590A592020191
:102908009B919B959B9F9B9D9B9397939795979145
:102918001200D7AE92EF14F0C5EF15F06BEC16F07D
:1029280007012995020E286F0F0E1200D7AE9FEFF0
:1029380014F0CDEF15F06BEC16F007012995000E99
:10294800286F0F0E12000601066FB2A2AEEF14F048
:10295800B0EF14F0A9EF14F0610018F8A3F2120018
:102968000601EC51FC0B0109EC6FF40E166EECC677
:1029780017F5760EF7EC07F01200D7AEC6EF14F095
:102988003FEF16F0B9EC16F0B6EC16F0FDEC14F0CB
:102998001200D7AED2EF14F046EF16F0070125511A
:1029A80053EC16F0E6EC10F012000601F851D8A42A
:1029B800E0EF14F0E3EF14F0010EE4EF14F0000E72
:1029C80012000601F051D8A4ECEF14F0EFEF14F068
:1029D800010EF0EF14F0000E1200016EB2A2F7EF34
:1029E80014F0F9EF14F0F2EF14F0610004F4A3F21C
:1029F8001200D7AE02EF15F05FEF16F00701299528
:102A0800000E286F0F0E1200020199BB0EEF15F091
:102A180011EF15F0010E12EF15F0000E1200020171
:102A280095BB19EF15F01CEF15F0010E1DEF15F011
:102A3800000E1200020199B124EF15F027EF15F0EE
:102A4800010E28EF15F0000E120002019AB52FEFC3
:102A580015F032EF15F0010E33EF15F0000E1200ED
:102A6800020197B93AEF15F03DEF15F0010E3EEF70
:102A780015F0000E120002019ABF45EF15F048EF5D
:102A880015F0010E49EF15F0000E1200070129514B
:102A9800FC0B0209296F225122257FEC16F0030E48
:102AA8001200020199BB5BEF15F05EEF15F0010E05
:102AB8005FEF15F0000E1200020195BB66EF15F0EE
:102AC80069EF15F0010E6AEF15F0000E1200020111
:102AD80099B171EF15F074EF15F0010E75EF15F05F
:102AE800000E120002019AB57CEF15F07FEF15F089
:102AF800010E80EF15F0000E1200020197B987EF62
:102B080015F08AEF15F0010E8BEF15F0000E12008C
:102B180002019ABF92EF15F095EF15F0010E96EFAE
:102B280015F0000E1200B198F6C601F5F7C602F5C9
:102B3800A8EC12F087EC11F01200E00E06011B6FF2
:102B4800B60E1C6F760EBEEC06F01200D7AEAFEFD5
:102B580015F09FEF16F0B9EC16F0090E1200D7AE7B
:102B6800B8EF15F0A3EF16F0BCEC16F0040E120047
:102B7800D7AEC1EF15F0A7EF16F0BCEC16F0030EB8
:102B8800120089EC16F007012995020E286F0F0E26
:102B9800120089EC16F007012995000E286F0F0E18
:102BA8001200010EA0EC11F001C5E1F602C5E2F633
:102BB8001200D7AEE2EF15F0F5EF16F0010E120095
:102BC800D7AEE9EF15F0F7EF16F0020E1200D7AE08
:102BD800F0EF15F0F9EF16F0050E1200D7AEF7EF8B
:102BE80015F0FBEF16F0010E120006C6E4F707C653
:102BF800E5F708C6E6F7120006C6E7F707C6E8F7DE
:102C080008C6E9F7120006C6D2F707C6D3F708C602
:102C1800D4F7120006C6D5F707C6D6F708C6D7F701
:102C2800120006C6CFF707C6D0F708C6D1F71200BC
:102C380006C6DEF707C6DFF708C6E0F7120006C6C5
:102C4800E1F707C6E2F708C6E3F7120006C6DBF7A6
:102C580007C6DCF708C6DDF7120006C6D8F707C6B0
:102C6800D9F708C6DAF712000601076F06010751FF
:102C7800A7EC14F01200DDEC16F0DAEC16F05FECBD
:102C880016F012000701255184EC16F0BFEC12F083
:102C980012000601066F610018F88CF21200060196
:102CA800066F610018F88DF212000201949F000E61
:102CB8009A6F9985120007012995000E286F0F0E4B
:102CC80012000201949F000E9A6F9985120002016A
:102CD800949F9985948F12000601066F06C6EDF63B
:102CE8001200026E0250F1EC14F01200B4EC14F071
:102CF8001BECF5F01200016E610004F48CF2120076
:102D0800016E610004F48DF212000201949F99850E
:102D1800948F1200AE9A010E0501FD6F1200000E8D
:102D2800B7EC0AF01200000E02019A6F1200000EB2
:102D3800CDEC0CF01200DDEC16F0090E1200E0EC00
:102D480016F0040E1200E0EC16F0030E1200000E4E
:0D2D580002019A6F1200286E756C6C290044
:102D660002018D5112000201949B12000201958D01
:102D760012000201959D120002018B511200020100
:102D8600948D12000201949D120002019A95120080
:102D960002019799120002019A9F1200ECEC12F0C0
:102DA6001200B4ECFDF0120002018D511200020176
:102DB600949B12000201958D12000201959D12004E
:102DC60002018B5112000201948D12000201949DA2
:102DD600120002019A95120002019799120002014F
:102DE6009A9F1200010E1200020E1200050E12002A
:102DF600010E120012001200120012001200120040
:022E06001200B8
:10FDB60000FA2900CC2100DC270082E601A8010018
:10FDC600EA0B00C403009A2900C82B00BA2B00DCFA
:10FDD6002200662B00782B00822900542B00342940
:10FDE60000740F00FA0C001A29004F4B0D0A3E0052
:10FDF600613361326333717839756F69356B2D61A3
:10FE060074732E696F742E75732D656173742D323C
:10FE16002E616D617A6F6E6177732E636F6D007000
:10FE26006F6F6C2E6E74702E6F72670065646479E6
:10FE36006D65736861636B006950686F6E65313319
:10FE460000706963333200224C69676874223A2570
:10FE5600752C2254656D70223A25642C22507265E9
:10FE66007373223A25752C2248756D6964223A25EA
:10FE7600752C0041542B4D5154545055423D256428
:10FE86002C25642C25642C222573222C22257322F2
:10FE96000D0A0041542B57535441433D25642C22EF
:10FEA6002573220D0A0041542B4D515454433D25D0
:10FEB600642C222573220D0A0050726573733A2052
:10FEC600257520696E4867200A0D0041542B57534B
:10FED6005441433D25642C25640D0A0041542B4DA5
:10FEE600515454433D25642C25640D0A0041542B7E
:10FEF6004D515454434F4E4E3D25640D0A004875EE
:10FF06006D69643A2025752525200A0D004C696720
:10FF160068743A202575200A0A0D0054656D703AFA
:10FF26002025692043200A0D0041542B5753544184
:10FF36003D25640D0A0054657374204D6573736125
:10FF4600676500746573742F546F7069630041545C
:10FF56002B575354410D0A002B575354414C440D13
:10FF66000A00494E46004E414E00686858006C6CC7
:10FF76005800686864006C6C6400696E66006868A6
:10FF860069006C6C69006E616E0068686E006C6C6E
:10FF96006E0068686F006C6C6F006C6C730068684C
:10FFA60075006C6C7500686878006C6C78006A582F
:10FFB600007458007A58006C61006A64007464002A
:10FFC6007A64006C65006C66006C67006A69007490
:10FFD60069007A69006A6E00746E007A6E006A6F54
:10FFE60000746F007A6F006A75007475007A750088
:0AFFF6006A78007478007A78000041
:020000040001F9
:100000006100CCF9D9F46100D0F9DAF4DEC4F6F479
:10001000DDC4F7F4000EF86E0800F550250AD8A4E8
:1000200014EF80F016EF80F020EF99F06100CCF92A
:10003000D9F46100D0F9DAF4DE2A000EDD22000ED8
:100040000601DC6F000EDB6FDBC6DFF6DCC6E0F618
:10005000DD69DE69000E886F000E876F7CEF80F02F
:10006000DF816100CCF9D9F46100D0F9DAF4DE2A3D
:10007000000EDD227CEF80F0DF8331EF80F0DF8542
:1000800031EF80F0DF8731EF80F0DF8931EF80F0F2
:10009000000E886F010E876F7CEF80F06100CCF955
:1000A000D9F46100D0F9DAF4DEC4F6F4DDC4F7F473
:1000B000000EF86E0800F550776F786B7851000AE3
:1000C000D8B465EF80F048EF80F07751200AD8B4BB
:1000D00042EF80F0030AD8B445EF80F0080AD8B4A4
:1000E0003FEF80F0060AD8B430EF80F01D0AD8B494
:1000F0003CEF80F048EF80F087518811D8B483EF4F
:1001000080F085EF80F04EEF80F0DFA18AEF80F085
:100110008CEF80F08DEF80F0DF936100CCF9D9F4A3
:100120006100D0F9DAF4DEC4F6F4DDC4F7F4000EB1
:10013000F86E0800F5502A0AD8A4A1EF80F0A3EFCA
:1001400080F0D6EF80F06100CCF9D9F46100D0F9ED
:10015000DAF4DE2A000EDD226100D4F9D9F4610060
:10016000D8F9DAF461007CF377F6020EDE2661003E
:100170007CF378F6000EDD226100DCF9D9F4610031
:10018000E0F9DAF4610078F3DBF6610074F3DCF691
:10019000DCBFCFEF80F0CDEF80F017EF81F0DF8193
:1001A000DB6DDC1FD8B0DC2B17EF81F06100CCF9E0
:1001B000D9F46100D0F9DAF4610078F30DF661004A
:1001C00074F30EF6B5ECEFF00DC6DBF60EC6DCF6FA
:1001D000F3EF80F06100CCF9D9F46100D0F9DAF4E2
:1001E000DE2A000EDD22D00E0601776FFF0E786F3B
:1001F0006100CCF9D9F46100D0F9DAF4DEC4F6F488
:10020000DDC4F7F4000EF86E0800F550796F7A6BD4
:100210007751792778517A237A5109E10A0E795D6D
:10022000D8A015EF81F017EF81F0EAEF80F06100C0
:10023000CCF9D9F46100D0F9DAF4DEC4F6F4DDC407
:10024000F7F4000EF86E0800F5502E0AD8A42BEF34
:1002500081F02DEF81F0B8EF81F0000EDE6F000E1F
:10026000DD6F6100CCF9D9F46100D0F9DAF4DE2A4F
:10027000000EDD226100CCF9D9F46100D0F9DAF486
:10028000DEC4F6F4DDC4F7F4000EF86E0800F55095
:100290002A0AD8A44EEF81F050EF81F077EF81F079
:1002A0006100CCF9D9F46100D0F9DAF4DE2A000E4D
:1002B000DD226100D4F9D9F46100D8F9DAF46100E3
:1002C0007CF377F6020EDE2661007CF378F6000EF2
:1002D000DD226100DCF9D9F46100E0F9DAF46100B3
:1002E00078F3DDF6610074F3DEF6B8EF81F06100BB
:1002F000CCF9D9F46100D0F9DAF4610078F30DF6A5
:10030000610074F30EF6B5ECEFF00DC6DDF60EC627
:10031000DEF694EF81F06100CCF9D9F46100D0F9F8
:10032000DAF4DE2A000EDD22D00E0601776FFF0E12
:10033000786F6100CCF9D9F46100D0F9DAF4DEC449
:10034000F6F4DDC4F7F4000EF86E0800F550796F8E
:100350007A6B7751792778517A237A5109E10A0E1D
:10036000795DD8A0B6EF81F0B8EF81F08BEF81F026
:100370006100CCF9D9F46100D0F9DAF4DEC4F6F406
:10038000DDC4F7F4000EF86E0800F5500C6F0D6B2D
:10039000BCEC0DF006010C518B6F8B51D8B4D3EF30
:1003A00081F0D5EF81F01FEF82F06100CCF9D9F434
:1003B0006100D0F9DAF4610078F377F6610074F344
:1003C00078F6010E7727000E78236100DCF9F6F449
:1003D0006100E0F9F7F4000EF86E0800F5500C6FBC
:1003E0000D6BBCEC0DF006010C518C6F8C51D8B428
:1003F000FCEF81F0FEEF81F01FEF82F06100CCF99D
:10040000D9F46100D0F9DAF4610078F377F661008D
:1004100074F378F6020E7727000E78236100DCF97A
:10042000F6F46100E0F9F7F4000EF86E0800F550FC
:100430000C6F0D6BBCEC0DF006010C518D6F610E55
:100440008B19D8A426EF82F028EF82F079EF82F0A2
:100450006100CCF9D9F46100D0F9DAF4DEC4F6F425
:10046000DDC4F7F4000EF86E08006100D4F39CF6CA
:100470006100CCF9D9F46100D0F9DAF4DE2A000E7B
:10048000DD226100D4F9D9F46100D8F9DAF4610011
:100490007CF377F6040EDE2661007CF378F6000E1E
:1004A000DD226100DCF9D9F46100E0F9DAF46100E1
:1004B00078F398F6610078F399F6610078F39AF68C
:1004C000610078F39BF671C633F672C634F698C6AF
:1004D00035F699C636F69AC637F69BC638F69CC6E8
:1004E00039F61CECC4F033C671F634C672F642EF2E
:1004F00099F08B0E066F060E076FBD0E086FFF0E8C
:10050000096F000E0B6F020E0A6F9AECF2F00601F3
:1005100006510711D8A48FEF82F091EF82F022EFFD
:1005200083F06100CCF9D9F46100D0F9DAF461000C
:1005300078F377F6610074F378F6010E7727000EF2
:1005400078236100DCF9F6F46100E0F9F7F4000EBD
:10055000F86E08006100D4F39CF6BF0E776FFF0EB3
:10056000786F6100CCF9D9F46100D0F9DAF4DEC417
:10057000F6F4DDC4F7F4000EF86E0800F550796F5C
:100580007A6B7751792778517A237A5107E11A0EDD
:10059000795DD8B0CEEF82F0D0EF82F0F4EF82F048
:1005A0006100D4F9D9F46100D8F9DAF461007CF380
:1005B00077F6040EDE2661007CF378F6000EDD226D
:1005C0006100DCF9D9F46100E0F9DAF4610078F354
:1005D00098F6610078F399F6610078F39AF6610075
:1005E00078F39BF616EF83F06100D4F9D9F461003B
:1005F000D8F9DAF461007CF377F6040EDE266100A8
:100600007CF378F6000EDD226100DCF9D9F461009C
:10061000E0F9DAF4610078F398F6610078F399F67E
:10062000610078F39AF6610078F39BF6020E6100A0
:10063000CCF9D9F46100D0F9DAF4DE26000EDD221F
:1006400063EF82F06100CCF9D9F46100D0F9DAF4FB
:10065000DEC4F6F4DDC4F7F4000EF86E0800F550C1
:10066000630AD8A436EF83F038EF83F067EF83F0A6
:100670006100CCF9D9F46100D0F9DAF4DE2A000E79
:10068000DD226100D4F9D9F46100D8F9DAF461000F
:100690007CF377F6020EDE2661007CF378F6000E1E
:1006A000DD226100DCF9D9F46100E0F9DAF4DF5011
:1006B0009C6F71C611F672C612F69CC613F62FEC2B
:1006C000FBF011C671F612C672F642EF99F06100A6
:1006D000CCF9D9F46100D0F9DAF4610078F306F6C8
:1006E000610074F307F6780E086FFF0E096F000EB5
:1006F0000B6F030E0A6F9AECF2F006010651071118
:10070000D8B485EF83F087EF83F0A7EF83F0610023
:10071000CCF9D9F46100D0F9DAF4610078F306F687
:10072000610074F307F6840E086FFF0E096F000E68
:100730000B6F030E0A6F9AECF2F0060106510711D7
:10074000D8A4A5EF83F0A7EF83F0EFEF83F0030EBB
:100750006100CCF9D9F46100D0F9DAF4DE26000E9C
:10076000DD226100D4F9D9F46100D8F9DAF461002E
:100770007CF377F6020EDE2661007CF378F6000E3D
:10078000DD226100DCF9D9F46100E0F9DAF4DF5030
:100790008E6F000E8EBFFF0E8F6F906F916F926FF6
:1007A000936F946F956F71C623F672C624F68EC64A
:1007B00025F68FC626F690C627F691C628F692C66D
:1007C00029F693C62AF694C62BF695C62CF6ECECC1
:1007D000DBF023C671F624C672F642EF99F0610091
:1007E000CCF9D9F46100D0F9DAF4610078F306F6B7
:1007F000610074F307F6790E086FFF0E096F000EA3
:100800000B6F020E0A6F9AECF2F006010651071107
:10081000D8B40DEF84F00FEF84F02FEF84F0610077
:10082000CCF9D9F46100D0F9DAF4610078F306F676
:10083000610074F307F6850E086FFF0E096F000E56
:100840000B6F020E0A6F9AECF2F0060106510711C7
:10085000D8A42DEF84F02FEF84F060EF84F0020E27
:100860006100CCF9D9F46100D0F9DAF4DE26000E8B
:10087000DD226100D4F9D9F46100D8F9DAF461001D
:100880007CF377F6020EDE2661007CF378F6000E2C
:10089000DD226100DCF9D9F46100E0F9DAF46100ED
:1008A00078F38EF6610074F38FF6000E8FBFFF0EA3
:1008B000906F916F926F936F946F956FD3EF83F0FA
:1008C0006100CCF9D9F46100D0F9DAF4DEC4F6F4B1
:1008D000DDC4F7F4000EF86E0800F550640AD8B4D1
:1008E00074EF84F076EF84F08CEF84F06100CCF943
:1008F000D9F46100D0F9DAF4DEC4F6F4DDC4F7F41B
:10090000000EF86E0800F550690AD8A48AEF84F04A
:100910008CEF84F0BCEF84F06100CCF9D9F4610075
:10092000D0F9DAF4DE2A000EDD226100D4F9D9F420
:100930006100D8F9DAF461007CF377F6020EDE2666
:1009400061007CF378F6000EDD226100DCF9D9F459
:100950006100E0F9DAF4610078F38EF6610074F377
:100960008FF6000E8FBFFF0E906F916F926F936F97
:10097000946F956FD3EF83F06100CCF9D9F46100E7
:10098000D0F9DAF4610078F306F6610074F307F643
:100990007D0E086FFF0E096F000E0B6F020E0A6FBF
:1009A0009AECF2F0060106510711D8B4DAEF84F0A0
:1009B000DCEF84F0FCEF84F06100CCF9D9F4610045
:1009C000D0F9DAF4610078F306F6610074F307F603
:1009D000890E086FFF0E096F000E0B6F020E0A6F73
:1009E0009AECF2F0060106510711D8A4FAEF84F050
:1009F000FCEF84F04BEF85F0020E6100CCF9D9F4E6
:100A00006100D0F9DAF4DE26000EDD226100D4F9AF
:100A1000D9F46100D8F9DAF461007CF377F6040EBA
:100A2000DE2661007CF378F6000EDD226100DCF941
:100A3000D9F46100E0F9DAF4610078F379F6610045
:100A400078F37AF6610078F37BF6610078F37CF650
:100A500079C67DF67AC67EF67BC67FF67CC680F6C2
:100A6000816B80BF816981C682F681C683F681C6AB
:100A700084F67DC68EF67EC68FF67FC690F680C65B
:100A800091F681C692F682C693F683C694F684C622
:100A900095F6D3EF83F06100CCF9D9F46100D0F979
:100AA000DAF4610078F306F6610074F307F67C0E61
:100AB000086FFF0E096F000E0B6F030E0A6F9AECA2
:100AC000F2F0060106510711D8B469EF85F06BEF1B
:100AD00085F08BEF85F06100CCF9D9F46100D0F995
:100AE000DAF4610078F306F6610074F307F6880E15
:100AF000086FFF0E096F000E0B6F030E0A6F9AEC62
:100B0000F2F0060106510711D8A489EF85F08BEFAA
:100B100085F0D5EF85F0030E6100CCF9D9F46100C2
:100B2000D0F9DAF4DE26000EDD226100D4F9D9F422
:100B30006100D8F9DAF461007CF377F6080EDE265E
:100B400061007CF378F6000EDD226100DCF9D9F457
:100B50006100E0F9DAF4610078F379F6610078F386
:100B60007AF6610078F37BF6610078F37CF6610039
:100B700078F37DF6610078F37EF6610078F37FF616
:100B8000610078F380F679C68EF67AC68FF67BC65A
:100B900090F67CC691F67DC692F67EC693F67FC629
:100BA00094F680C695F6D3EF83F06100CCF9D9F4C2
:100BB0006100D0F9DAF4610078F306F6610074F3AD
:100BC00007F6C00E086FFF0E096F000E0B6F020EC6
:100BD0000A6F9AECF2F0060106510711D8B4F3EF50
:100BE00085F0F5EF85F015EF86F06100CCF9D9F4CA
:100BF0006100D0F9DAF4610078F306F6610074F36D
:100C000007F6D20E086FFF0E096F000E0B6F020E73
:100C10000A6F9AECF2F0060106510711D8A413EFFF
:100C200086F015EF86F05FEF86F0020E6100CCF9DA
:100C3000D9F46100D0F9DAF4DE26000EDD2261007D
:100C4000D4F9D9F46100D8F9DAF461007CF377F6CD
:100C5000080EDE2661007CF378F6000EDD226100CE
:100C6000DCF9D9F46100E0F9DAF4610078F379F69F
:100C7000610078F37AF6610078F37BF6610078F32F
:100C80007CF6610078F37DF6610078F37EF6610012
:100C900078F37FF6610078F380F679C68EF67AC62F
:100CA0008FF67BC690F67CC691F67DC692F67EC620
:100CB00093F67FC694F680C695F6D3EF83F0610075
:100CC000CCF9D9F46100D0F9DAF4610078F306F6D2
:100CD000610074F307F6C30E086FFF0E096F000E74
:100CE0000B6F020E0A6F9AECF2F006010651071123
:100CF000D8B47DEF86F07FEF86F09FEF86F061003D
:100D0000CCF9D9F46100D0F9DAF4610078F306F691
:100D1000610074F307F6D50E086FFF0E096F000E21
:100D20000B6F020E0A6F9AECF2F0060106510711E2
:100D3000D8A49DEF86F09FEF86F0D0EF86F0020EEC
:100D40006100CCF9D9F46100D0F9DAF4DE26000EA6
:100D5000DD226100D4F9D9F46100D8F9DAF4610038
:100D60007CF377F6020EDE2661007CF378F6000E47
:100D7000DD226100DCF9D9F46100E0F9DAF4610008
:100D800078F38EF6610074F38FF6000E8FBFFF0EBE
:100D9000906F916F926F936F946F956FD3EF83F015
:100DA0006100CCF9D9F46100D0F9DAF4610078F38C
:100DB00006F6610074F307F6C60E086FFF0E096FA2
:100DC000000E0B6F020E0A6F9AECF2F0060106514C
:100DD0000711D8B4EEEF86F0F0EF86F010EF87F051
:100DE0006100CCF9D9F46100D0F9DAF4610078F34C
:100DF00006F6610074F307F6D80E086FFF0E096F50
:100E0000000E0B6F020E0A6F9AECF2F0060106510B
:100E10000711D8A40EEF87F010EF87F042EF87F0AC
:100E2000020E6100CCF9D9F46100D0F9DAF4DE26C3
:100E3000000EDD226100D4F9D9F46100D8F9DAF4AA
:100E400061007CF377F6020EDE2661007CF378F613
:100E5000000EDD226100DCF9D9F46100E0F9DAF47A
:100E6000610078F379F6610074F37AF679C68EF64C
:100E70007AC68FF6906B916B926B936B946B956BBC
:100E8000D3EF83F0650E8B19D8A449EF87F04BEFB1
:100E900087F09CEF87F06100CCF9D9F46100D0F9BC
:100EA000DAF4DEC4F6F4DDC4F7F4000EF86E0800E0
:100EB0006100D4F39CF66100CCF9D9F46100D0F95B
:100EC000DAF4DE2A000EDD226100D4F9D9F46100E3
:100ED000D8F9DAF461007CF377F6040EDE266100BF
:100EE0007CF378F6000EDD226100DCF9D9F46100B4
:100EF000E0F9DAF4610078F398F6610078F399F696
:100F0000610078F39AF6610078F39BF671C633F6C8
:100F100072C634F698C635F699C636F69AC637F6CE
:100F20009BC638F69CC639F692ECB8F033C671F61B
:100F300034C672F642EF99F08B0E066F060E076FFD
:100F4000C90E086FFF0E096F000E0B6F020E0A6FBD
:100F50009AECF2F0060106510711D8A4B2EF87F01F
:100F6000B4EF87F045EF88F06100CCF9D9F4610067
:100F7000D0F9DAF4610078F377F6610074F378F66B
:100F8000010E7727000E78236100DCF9F6F461008A
:100F9000E0F9F7F4000EF86E08006100D4F39CF657
:100FA000BF0E776FFF0E786F6100CCF9D9F4610046
:100FB000D0F9DAF4DEC4F6F4DDC4F7F4000EF86E0E
:100FC0000800F550796F7A6B7751792778517A2339
:100FD0007A5107E11A0E795DD8B0F1EF87F0F3EF9F
:100FE00087F017EF88F06100D4F9D9F46100D8F9DF
:100FF000DAF461007CF377F6040EDE2661007CF300
:1010000078F6000EDD226100DCF9D9F46100E0F928
:10101000DAF4610078F398F6610078F399F66100EC
:1010200078F39AF6610078F39BF639EF88F0610067
:10103000D4F9D9F46100D8F9DAF461007CF377F6D9
:10104000040EDE2661007CF378F6000EDD226100DE
:10105000DCF9D9F46100E0F9DAF4610078F398F68C
:10106000610078F399F6610078F39AF6610078F3FD
:101070009BF6020E6100CCF9D9F46100D0F9DAF4E4
:10108000DE26000EDD2286EF87F0660E8B19D8A4CF
:101090004CEF88F04EEF88F08BEF88F06100CCF9D0
:1010A000D9F46100D0F9DAF4DEC4F6F4DDC4F7F463
:1010B000000EF86E08006100D4F39CF66100CCF9D4
:1010C000D9F46100D0F9DAF4DE2A000EDD226100E5
:1010D000D4F9D9F46100D8F9DAF461007CF377F639
:1010E000040EDE2661007CF378F6000EDD2261003E
:1010F000DCF9D9F46100E0F9DAF4610078F398F6EC
:10110000610078F399F6610078F39AF6610078F35C
:101110009BF686EF87F08B0E066F060E076FCC0EE0
:10112000086FFF0E096F000E0B6F020E0A6F9AEC2C
:10113000F2F0060106510711D8A4A1EF88F0A3EF41
:1011400088F02AEF89F06100CCF9D9F46100D0F978
:10115000DAF4610078F377F6610074F378F6010E43
:101160007727000E78236100DCF9F6F46100E0F9DE
:10117000F7F4000EF86E08006100D4F39CF6BF0E81
:10118000776FFF0E786F6100CCF9D9F46100D0F968
:10119000DAF4DEC4F6F4DDC4F7F4000EF86E0800ED
:1011A000F550796F7A6B7751792778517A237A5194
:1011B00007E11A0E795DD8B0E0EF88F0E2EF88F031
:1011C00006EF89F06100D4F9D9F46100D8F9DAF4B6
:1011D00061007CF377F6040EDE2661007CF378F67E
:1011E000000EDD226100DCF9D9F46100E0F9DAF4E7
:1011F000610078F398F6610078F399F6610078F36E
:101200009AF6610078F39BF639EF88F06100D4F923
:10121000D9F46100D8F9DAF461007CF377F6040EB2
:10122000DE2661007CF378F6000EDD226100DCF939
:10123000D9F46100E0F9DAF4610078F398F661001E
:1012400078F399F6610078F39AF6610078F39BF6EB
:1012500039EF88F0670E8B19D8A431EF89F033EF9E
:1012600089F070EF89F06100CCF9D9F46100D0F910
:10127000DAF4DEC4F6F4DDC4F7F4000EF86E08000C
:101280006100D4F39CF66100CCF9D9F46100D0F987
:10129000DAF4DE2A000EDD226100D4F9D9F461000F
:1012A000D8F9DAF461007CF377F6040EDE266100EB
:1012B0007CF378F6000EDD226100DCF9D9F46100E0
:1012C000E0F9DAF4610078F398F6610078F399F6C2
:1012D000610078F39AF6610078F39BF686EF87F069
:1012E0008B0E066F060E076FCF0E086FFF0E096F8D
:1012F000000E0B6F020E0A6F9AECF2F00601065117
:101300000711D8A486EF89F088EF89F00FEF8AF0F3
:101310006100CCF9D9F46100D0F9DAF4610078F316
:1013200077F6610074F378F6010E7727000E7823C4
:101330006100DCF9F6F46100E0F9F7F4000EF86EF4
:1013400008006100D4F39CF6BF0E776FFF0E786F34
:101350006100CCF9D9F46100D0F9DAF4DEC4F6F416
:10136000DDC4F7F4000EF86E0800F550796F7A6B63
:101370007751792778517A237A5107E11A0E795DEE
:10138000D8B0C5EF89F0C7EF89F0EBEF89F06100C5
:10139000D4F9D9F46100D8F9DAF461007CF377F676
:1013A000040EDE2661007CF378F6000EDD2261007B
:1013B000DCF9D9F46100E0F9DAF4610078F398F629
:1013C000610078F399F6610078F39AF6610078F39A
:1013D0009BF639EF88F06100D4F9D9F46100D8F9AF
:1013E000DAF461007CF377F6040EDE2661007CF30C
:1013F00078F6000EDD226100DCF9D9F46100E0F935
:10140000DAF4610078F398F6610078F399F66100F8
:1014100078F39AF6610078F39BF639EF88F0610073
:10142000CCF9D9F46100D0F9DAF4610078F306F66A
:10143000610074F307F6980E086FFF0E096F000E37
:101440000B6F030E0A6F9AECF2F0060106510711BA
:10145000D8A42DEF8AF02FEF8AF076EF8AF0030EF2
:101460006100CCF9D9F46100D0F9DAF4DE26000E7F
:10147000DD226100D4F9D9F46100D8F9DAF4610011
:101480007CF377F6020EDE2661007CF378F6000E20
:10149000DD226100DCF9D9F46100E0F9DAF4DF5013
:1014A000796F79519D6F9E6B9F6BA06BA16BA26B47
:1014B000A36BA46B71C623F672C624F69DC625F6EF
:1014C0009EC626F69FC627F6A0C628F6A1C629F610
:1014D000A2C62AF6A3C62BF6A4C62CF6D8ECE9F0D1
:1014E00023C671F624C672F642EF99F06100CCF97A
:1014F000D9F46100D0F9DAF4610078F306F66100FE
:1015000074F307F6990E086FFF0E096F000E0B6F4C
:10151000020E0A6F9AECF2F0060106510711D8A4E8
:1015200094EF8AF096EF8AF0C8EF8AF0020E61001D
:10153000CCF9D9F46100D0F9DAF4DE26000EDD2210
:101540006100D4F9D9F46100D8F9DAF461007CF3D0
:1015500077F6020EDE2661007CF378F6000EDD22BF
:101560006100DCF9D9F46100E0F9DAF4610078F3A4
:1015700079F6610074F37AF679C69DF67AC69EF61E
:101580009F6BA06BA16BA26BA36BA46B5AEF8AF04D
:101590006100CCF9D9F46100D0F9DAF4DEC4F6F4D4
:1015A000DDC4F7F4000EF86E0800F5506F0AD8A4F9
:1015B000DCEF8AF0DEEF8AF00FEF8BF06100CCF900
:1015C000D9F46100D0F9DAF4DE2A000EDD226100E0
:1015D000D4F9D9F46100D8F9DAF461007CF377F634
:1015E000020EDE2661007CF378F6000EDD2261003B
:1015F000DCF9D9F46100E0F9DAF4610078F379F606
:10160000610074F37AF679C69DF67AC69EF69F6BF2
:10161000A06BA16BA26BA36BA46B5AEF8AF0610065
:10162000CCF9D9F46100D0F9DAF4610078F306F668
:10163000610074F307F69D0E086FFF0E096F000E30
:101640000B6F020E0A6F9AECF2F0060106510711B9
:10165000D8A42DEF8BF02FEF8BF069EF8BF0020EFB
:101660006100CCF9D9F46100D0F9DAF4DE26000E7D
:10167000DD226100D4F9D9F46100D8F9DAF461000F
:101680007CF377F6040EDE2661007CF378F6000E1C
:10169000DD226100DCF9D9F46100E0F9DAF46100DF
:1016A00078F379F6610078F37AF6610078F37BF6E7
:1016B000610078F37CF679519D6F7A519E6F7B5172
:1016C0009F6F7C51A06FA16BA26BA36BA46B5AEFB1
:1016D0008AF06100CCF9D9F46100D0F9DAF4610044
:1016E00078F306F6610074F307F69C0E086FFF0EA0
:1016F000096F000E0B6F030E0A6F9AECF2F00601F1
:1017000006510711D8A487EF8BF089EF8BF0D3EF48
:101710008BF0030E6100CCF9D9F46100D0F9DAF452
:10172000DE26000EDD226100D4F9D9F46100D8F97B
:10173000DAF461007CF377F6080EDE2661007CF3B4
:1017400078F6000EDD226100DCF9D9F46100E0F9E1
:10175000DAF4610078F379F6610078F37AF66100E3
:1017600078F37BF6610078F37CF6610078F37DF620
:10177000610078F37EF6610078F37FF6610078F31C
:1017800080F679C69DF67AC69EF67BC69FF67CC625
:10179000A0F67DC6A1F67EC6A2F67FC6A3F680C6D9
:1017A000A4F65AEF8AF06100CCF9D9F46100D0F9BF
:1017B000DAF4610078F306F6610074F307F6E40EDC
:1017C000086FFF0E096F000E0B6F020E0A6F9AEC86
:1017D000F2F0060106510711D8A4F1EF8BF0F3EFF8
:1017E0008BF03DEF8CF0020E6100CCF9D9F4610072
:1017F000D0F9DAF4DE26000EDD226100D4F9D9F446
:101800006100D8F9DAF461007CF377F6080EDE2681
:1018100061007CF378F6000EDD226100DCF9D9F47A
:101820006100E0F9DAF4610078F379F6610078F3A9
:101830007AF6610078F37BF6610078F37CF661005C
:1018400078F37DF6610078F37EF6610078F37FF639
:10185000610078F380F679C69DF67AC69EF67BC65F
:101860009FF67CC6A0F67DC6A1F67EC6A2F67FC610
:10187000A3F680C6A4F65AEF8AF06100CCF9D9F439
:101880006100D0F9DAF4610078F306F6610074F3D0
:1018900007F6E70E086FFF0E096F000E0B6F020EC2
:1018A0000A6F9AECF2F0060106510711D8A45BEF1B
:1018B0008CF05DEF8CF08EEF8CF0020E6100CCF9B5
:1018C000D9F46100D0F9DAF4DE26000EDD226100E1
:1018D000D4F9D9F46100D8F9DAF461007CF377F631
:1018E000020EDE2661007CF378F6000EDD22610038
:1018F000DCF9D9F46100E0F9DAF4610078F39DF6DF
:10190000610074F39EF6000E9EBFFF0E9F6FA06FE6
:10191000A16FA26FA36FA46F5AEF8AF06100CCF998
:10192000D9F46100D0F9DAF4610078F306F66100C9
:1019300074F307F6EA0E086FFF0E096F000E0B6FC7
:10194000020E0A6F9AECF2F0060106510711D8A4B4
:10195000ACEF8CF0AEEF8CF0E0EF8CF0020E61009B
:10196000CCF9D9F46100D0F9DAF4DE26000EDD22DC
:101970006100D4F9D9F46100D8F9DAF461007CF39C
:1019800077F6020EDE2661007CF378F6000EDD228B
:101990006100DCF9D9F46100E0F9DAF4610078F370
:1019A00079F6610074F37AF679C69DF67AC69EF6EA
:1019B0009F6BA06BA16BA26BA36BA46B5AEF8AF019
:1019C0006100CCF9D9F46100D0F9DAF4610078F360
:1019D00006F6610074F307F6900E086FFF0E096FAC
:1019E000000E0B6F030E0A6F9AECF2F0060106511F
:1019F0000711D8A4FEEF8CF000EF8DF044EF8DF0CE
:101A0000030E6100CCF9D9F46100D0F9DAF4DE26D6
:101A1000000EDD226100D4F9D9F46100D8F9DAF4BE
:101A200061007CF377F6020EDE2661007CF378F627
:101A3000000EDD226100DCF9D9F46100E0F9DAF48E
:101A4000610078F396F6610074F397F6610058FA36
:101A5000F6F461005CFAF7F4000EF86E240EF764F9
:101A600005D0610064FBF5F40C0007D0F6C4E9F47E
:101A7000F7C4EAF4610064FBEFF4000E0601726F34
:101A8000000E716F42EF99F06100CCF9D9F461005A
:101A9000D0F9DAF4610078F306F6610074F307F622
:101AA000910E086FFF0E096F000E0B6F020E0A6F8A
:101AB0009AECF2F0060106510711D8A462EF8DF0FE
:101AC00064EF8DF0AAEF8DF0020E6100CCF9D9F42D
:101AD0006100D0F9DAF4DE26000EDD226100D4F9CF
:101AE000D9F46100D8F9DAF461007CF377F6020EDC
:101AF000DE2661007CF378F6000EDD226100DCF961
:101B0000D9F46100E0F9DAF4610078F396F6610047
:101B100074F397F6610058FAF6F461005CFAF7F492
:101B2000000EF86E240EF76409D0610064FBF5F432
:101B30000D00610068FBF5F40C000AD0F6C4E9F46E
:101B4000F7C4EAF4610064FBEEF4610068FBEFF4B3
:101B50003DEF8DF06100CCF9D9F46100D0F9DAF4F1
:101B6000DEC4F6F4DDC4F7F4000EF86E0800F5509C
:101B70006E0AD8A4BEEF8DF0C0EF8DF005EF8EF0A9
:101B80006100CCF9D9F46100D0F9DAF4DE2A000E54
:101B9000DD226100D4F9D9F46100D8F9DAF46100EA
:101BA0007CF377F6020EDE2661007CF378F6000EF9
:101BB000DD226100DCF9D9F46100E0F9DAF46100BA
:101BC00078F396F6610074F397F6610058FAF6F42C
:101BD00061005CFAF7F4000EF86E240EF76409D089
:101BE000610064FBF5F40D00610068FBF5F40C0086
:101BF0000AD0F6C4E9F4F7C4EAF4610064FBEEF439
:101C0000610068FBEFF43DEF8DF06100CCF9D9F491
:101C10006100D0F9DAF4610078F306F6610074F33C
:101C200007F6950E086FFF0E096F000E0B6F020E80
:101C30000A6F9AECF2F0060106510711D8A423EFBF
:101C40008EF025EF8EF082EF8EF0020E6100CCF95F
:101C5000D9F46100D0F9DAF4DE26000EDD2261004D
:101C6000D4F9D9F46100D8F9DAF461007CF377F69D
:101C7000020EDE2661007CF378F6000EDD226100A4
:101C8000DCF9D9F46100E0F9DAF4610078F396F652
:101C9000610074F397F6D9C677F6DAC678F6000EC7
:101CA00078BFFF0E796F7A6F610058FAF6F4610021
:101CB0005CFAF7F4000EF86E240EF76411D06100A0
:101CC000DCF9F5F40D006100E0F9F5F40D006100B8
:101CD000E4F9F5F40D006100E8F9F5F40C0010D01A
:101CE000F6C4E9F4F7C4EAF46100DCF9EEF461004B
:101CF000E0F9EEF46100E4F9EEF46100E8F9EFF4E4
:101D00003DEF8DF06100CCF9D9F46100D0F9DAF43F
:101D1000610078F306F6610074F307F6940E086F1D
:101D2000FF0E096F000E0B6F030E0A6F9AECF2F0B4
:101D3000060106510711D8A4A0EF8EF0A2EF8EF095
:101D40001FEF8FF0030E6100CCF9D9F46100D0F9D8
:101D5000DAF4DE26000EDD226100D4F9D9F4610048
:101D6000D8F9DAF461007CF377F6020EDE26610022
:101D70007CF378F6000EDD226100DCF9D9F4610015
:101D8000E0F9DAF4610078F396F6610074F397F6FF
:101D9000D9C677F6DAC678F6000E78BFFF0E796FEF
:101DA0007A6F7B6F7C6F7D6F7E6F610058FAF6F4FF
:101DB00061005CFAF7F4000EF86E240EF76421D08F
:101DC0006100DCF9F5F40D006100E0F9F5F40D00B7
:101DD0006100E4F9F5F40D006100E8F9F5F40D0097
:101DE0006100ECF9F5F40D006100F0F9F5F40D0077
:101DF0006100F4F9F5F40D006100F8F9F5F40C0058
:101E00001CD0F6C4E9F4F7C4EAF46100DCF9EEF49E
:101E10006100E0F9EEF46100E4F9EEF46100E8F944
:101E2000EEF46100ECF9EEF46100F0F9EEF461001B
:101E3000F4F9EEF46100F8F9EFF43DEF8DF0610094
:101E4000CCF9D9F46100D0F9DAF4610078F306F640
:101E5000610074F307F6DB0E086FFF0E096F000ECA
:101E60000B6F020E0A6F9AECF2F006010651071191
:101E7000D8A43DEF8FF03FEF8FF0BCEF8FF0020E54
:101E80006100CCF9D9F46100D0F9DAF4DE26000E55
:101E9000DD226100D4F9D9F46100D8F9DAF46100E7
:101EA0007CF377F6020EDE2661007CF378F6000EF6
:101EB000DD226100DCF9D9F46100E0F9DAF46100B7
:101EC00078F396F6610074F397F6D9C677F6DAC61A
:101ED00078F6000E78BFFF0E796F7A6F7B6F7C6F9C
:101EE0007D6F7E6F610058FAF6F461005CFAF7F4DA
:101EF000000EF86E240EF76421D06100DCF9F5F4D1
:101F00000D006100E0F9F5F40D006100E4F9F5F46D
:101F10000D006100E8F9F5F40D006100ECF9F5F44D
:101F20000D006100F0F9F5F40D006100F4F9F5F42D
:101F30000D006100F8F9F5F40C001CD0F6C4E9F4CA
:101F4000F7C4EAF46100DCF9EEF46100E0F9EEF4C4
:101F50006100E4F9EEF46100E8F9EEF46100ECF9F7
:101F6000EEF46100F0F9EEF46100F4F9EEF46100D2
:101F7000F8F9EFF43DEF8DF06100CCF9D9F4610090
:101F8000D0F9DAF4610078F306F6610074F307F62D
:101F9000DE0E086FFF0E096F000E0B6F020E0A6F48
:101FA0009AECF2F0060106510711D8A4DAEF8FF08F
:101FB000DCEF8FF022EF90F0020E6100CCF9D9F443
:101FC0006100D0F9DAF4DE26000EDD226100D4F9DA
:101FD000D9F46100D8F9DAF461007CF377F6020EE7
:101FE000DE2661007CF378F6000EDD226100DCF96C
:101FF000D9F46100E0F9DAF4610078F396F6610053
:1020000074F397F6610058FAF6F461005CFAF7F49D
:10201000000EF86E240EF76409D0610064FBF5F43D
:102020000D00610068FBF5F40C000AD0F6C4E9F479
:10203000F7C4EAF4610064FBEEF4610068FBEFF4BE
:102040003DEF8DF06100CCF9D9F46100D0F9DAF4FC
:10205000610078F306F6610074F307F6E10E086F8D
:10206000FF0E096F000E0B6F020E0A6F9AECF2F072
:10207000060106510711D8A440EF90F042EF90F00E
:1020800088EF90F0020E6100CCF9D9F46100D0F92C
:10209000DAF4DE26000EDD226100D4F9D9F4610005
:1020A000D8F9DAF461007CF377F6020EDE266100DF
:1020B0007CF378F6000EDD226100DCF9D9F46100D2
:1020C000E0F9DAF4610078F396F6610074F397F6BC
:1020D000610058FAF6F461005CFAF7F4000EF86E4D
:1020E000240EF76409D0610064FBF5F40D00610073
:1020F00068FBF5F40C000AD0F6C4E9F4F7C4EAF47E
:10210000610064FBEEF4610068FBEFF43DEF8DF0DD
:102110006100CCF9D9F46100D0F9DAF4DEC4F6F448
:10212000DDC4F7F4000EF86E0800F550700AD8A46C
:102130009CEF90F09EEF90F0EBEF90F06100CCF907
:10214000D9F46100D0F9DAF4DE2A000EDD22610054
:10215000D4F9D9F46100D8F9DAF461007CF377F6A8
:10216000020EDE2661007CF378F6000EDD226100AF
:10217000DCF9D9F46100E0F9DAF4610078F379F67A
:10218000610074F37AF679C69DF67AC69EF69F6B67
:10219000A06BA16BA26BA36BA46B71C623F672C676
:1021A00024F69DC625F69EC626F69FC627F6A0C62F
:1021B00028F6A1C629F6A2C62AF6A3C62BF6A4C6FF
:1021C0002CF6780E2D6FD2ECDEF023C671F624C605
:1021D00072F642EF99F06100CCF9D9F46100D0F9C0
:1021E000DAF4DEC4F6F4DDC4F7F4000EF86E08008D
:1021F000F550730AD8B4FFEF90F001EF91F021EFA2
:1022000091F06100CCF9D9F46100D0F9DAF4610001
:1022100078F306F6610074F307F6A00E086FFF0E60
:10222000096F000E0B6F030E0A6F9AECF2F00601B5
:1022300006510711D8A41FEF91F021EF91F077EF2D
:1022400091F06100CCF9D9F46100D0F9DAF4DEC480
:10225000F6F4DDC4F7F4000EF86E0800F550730ACA
:10226000D8B435EF91F037EF91F03DEF91F0000EDB
:102270008A6F030E896F41EF91F0000E8A6F010E95
:10228000896F6100CCF9D9F46100D0F9DAF4895191
:10229000DE268A51DD226100D4F9D9F46100D8F933
:1022A000DAF461007CF377F6020EDE2661007CF33F
:1022B00078F6000EDD226100DCF9D9F46100E0F966
:1022C000DAF4610078F385F6610074F386F671C67E
:1022D00011F672C612F685C613F686C614F686EC9B
:1022E000ECF011C671F612C672F642EF99F0610079
:1022F000CCF9D9F46100D0F9DAF4610078F306F68C
:10230000610074F307F6A40E086FFF0E096F000E4C
:102310000B6F030E0A6F9AECF2F0060106510711DB
:10232000D8A495EF91F097EF91F0DEEF91F0030EC6
:102330006100CCF9D9F46100D0F9DAF4DE26000EA0
:10234000DD226100D4F9D9F46100D8F9DAF4610032
:102350007CF377F6020EDE2661007CF378F6000E41
:10236000DD226100DCF9D9F46100E0F9DAF4DF5034
:10237000796F79519D6F9E6B9F6BA06BA16BA26B68
:10238000A36BA46B71C623F672C624F69DC625F610
:102390009EC626F69FC627F6A0C628F6A1C629F631
:1023A000A2C62AF6A3C62BF6A4C62CF6E0ECE5F0EE
:1023B00023C671F624C672F642EF99F06100CCF99B
:1023C000D9F46100D0F9DAF4610078F306F661001F
:1023D00074F307F6A50E086FFF0E096F000E0B6F62
:1023E000020E0A6F9AECF2F0060106510711D8A40A
:1023F000FCEF91F0FEEF91F030EF92F0020E6100F1
:10240000CCF9D9F46100D0F9DAF4DE26000EDD2231
:102410006100D4F9D9F46100D8F9DAF461007CF3F1
:1024200077F6020EDE2661007CF378F6000EDD22E0
:102430006100DCF9D9F46100E0F9DAF4610078F3C5
:1024400079F6610074F37AF679C69DF67AC69EF63F
:102450009F6BA06BA16BA26BA36BA46BC2EF91F0FF
:102460006100CCF9D9F46100D0F9DAF4DEC4F6F4F5
:10247000DDC4F7F4000EF86E0800F550750AD8A414
:1024800044EF92F046EF92F077EF92F06100CCF9D2
:10249000D9F46100D0F9DAF4DE2A000EDD22610001
:1024A000D4F9D9F46100D8F9DAF461007CF377F655
:1024B000020EDE2661007CF378F6000EDD2261005C
:1024C000DCF9D9F46100E0F9DAF4610078F379F627
:1024D000610074F37AF679C69DF67AC69EF69F6B14
:1024E000A06BA16BA26BA36BA46BC2EF91F0610018
:1024F000CCF9D9F46100D0F9DAF4610078F306F68A
:10250000610074F307F6A90E086FFF0E096F000E45
:102510000B6F020E0A6F9AECF2F0060106510711DA
:10252000D8A495EF92F097EF92F0D1EF92F0020ECF
:102530006100CCF9D9F46100D0F9DAF4DE26000E9E
:10254000DD226100D4F9D9F46100D8F9DAF4610030
:102550007CF377F6040EDE2661007CF378F6000E3D
:10256000DD226100DCF9D9F46100E0F9DAF4610000
:1025700078F379F6610078F37AF6610078F37BF608
:10258000610078F37CF679519D6F7A519E6F7B5193
:102590009F6F7C51A06FA16BA26BA36BA46BC2EF6A
:1025A00091F06100CCF9D9F46100D0F9DAF461005E
:1025B00078F306F6610074F307F6A80E086FFF0EB5
:1025C000096F000E0B6F030E0A6F9AECF2F0060112
:1025D00006510711D8A4EFEF92F0F1EF92F03BEF24
:1025E00093F0030E6100CCF9D9F46100D0F9DAF46C
:1025F000DE26000EDD226100D4F9D9F46100D8F99D
:10260000DAF461007CF377F6080EDE2661007CF3D5
:1026100078F6000EDD226100DCF9D9F46100E0F902
:10262000DAF4610078F379F6610078F37AF6610004
:1026300078F37BF6610078F37CF6610078F37DF641
:10264000610078F37EF6610078F37FF6610078F33D
:1026500080F679C69DF67AC69EF67BC69FF67CC646
:10266000A0F67DC6A1F67EC6A2F67FC6A3F680C6FA
:10267000A4F6C2EF91F06100CCF9D9F46100D0F971
:10268000DAF4610078F306F6610074F307F6ED0EF4
:10269000086FFF0E096F000E0B6F020E0A6F9AECA7
:1026A000F2F0060106510711D8A459EF93F05BEF41
:1026B00093F0A5EF93F0020E6100CCF9D9F461001C
:1026C000D0F9DAF4DE26000EDD226100D4F9D9F467
:1026D0006100D8F9DAF461007CF377F6080EDE26A3
:1026E00061007CF378F6000EDD226100DCF9D9F49C
:1026F0006100E0F9DAF4610078F379F6610078F3CB
:102700007AF6610078F37BF6610078F37CF661007D
:1027100078F37DF6610078F37EF6610078F37FF65A
:10272000610078F380F679C69DF67AC69EF67BC680
:102730009FF67CC6A0F67DC6A1F67EC6A2F67FC631
:10274000A3F680C6A4F6C2EF91F06100CCF9D9F4EB
:102750006100D0F9DAF4610078F306F6610074F3F1
:1027600007F6F00E086FFF0E096F000E0B6F020EDA
:102770000A6F9AECF2F0060106510711D8A4C3EFD4
:1027800093F0C5EF93F0F6EF93F0020E6100CCF9F1
:10279000D9F46100D0F9DAF4DE26000EDD22610002
:1027A000D4F9D9F46100D8F9DAF461007CF377F652
:1027B000020EDE2661007CF378F6000EDD22610059
:1027C000DCF9D9F46100E0F9DAF4610078F39DF600
:1027D000610074F39EF6000E9EBFFF0E9F6FA06F08
:1027E000A16FA26FA36FA46FC2EF91F06100CCF94B
:1027F000D9F46100D0F9DAF4610078F306F66100EB
:1028000074F307F6F30E086FFF0E096F000E0B6FDF
:10281000020E0A6F9AECF2F0060106510711D8A4D5
:1028200014EF94F016EF94F048EF94F0020E61006C
:10283000CCF9D9F46100D0F9DAF4DE26000EDD22FD
:102840006100D4F9D9F46100D8F9DAF461007CF3BD
:1028500077F6020EDE2661007CF378F6000EDD22AC
:102860006100DCF9D9F46100E0F9DAF4610078F391
:1028700079F6610074F37AF679C69DF67AC69EF60B
:102880009F6BA06BA16BA26BA36BA46BC2EF91F0CB
:102890006100CCF9D9F46100D0F9DAF4610078F381
:1028A00006F6610074F307F6AC0E086FFF0E096FB1
:1028B000000E0B6F030E0A6F9AECF2F00601065140
:1028C0000711D8B466EF94F068EF94F088EF94F0B5
:1028D0006100CCF9D9F46100D0F9DAF4610078F341
:1028E00006F6610074F307F6700E086FFF0E096FAD
:1028F000000E0B6F030E0A6F9AECF2F00601065100
:102900000711D8A486EF94F088EF94F0EDEF94F0DF
:102910006100CCF9D9F46100D0F9DAF4610078F300
:1029200077F6610074F378F6020E7727000E7823AD
:102930006100DCF9F6F46100E0F9F7F4000EF86EDE
:1029400008006100D4F39CF6030E6100CCF9D9F4C1
:102950006100D0F9DAF4DE26000EDD226100D4F940
:10296000D9F46100D8F9DAF461007CF377F6020E4D
:10297000DE2661007CF378F6000EDD226100DCF9D2
:10298000D9F46100E0F9DAF4DF50796F79519D6F85
:102990009E6B9F6BA06BA16BA26BA36BA46B71C6AC
:1029A00023F672C624F69DC625F69EC626F69FC659
:1029B00027F6A0C628F6A1C629F6A2C62AF6A3C6FF
:1029C0002BF6A4C62CF69CC62DF6D2ECDEF023C660
:1029D00071F624C672F642EF99F06100CCF9D9F491
:1029E0006100D0F9DAF4610078F306F6610074F35F
:1029F00007F6AD0E086FFF0E096F000E0B6F020E8B
:102A00000A6F9AECF2F0060106510711D8B40BEFE9
:102A100095F00DEF95F02DEF95F06100CCF9D9F41C
:102A20006100D0F9DAF4610078F306F6610074F31E
:102A300007F6710E086FFF0E096F000E0B6F020E86
:102A40000A6F9AECF2F0060106510711D8A42BEF99
:102A500095F02DEF95F07BEF95F06100CCF9D9F46E
:102A60006100D0F9DAF4610078F377F6610074F36D
:102A700078F6010E7727000E78236100DCF9F6F472
:102A80006100E0F9F7F4000EF86E08006100D4F37D
