:040000000DEF00F010
:04000800C1EFFAF05A
:10001800FF00BEEF06F00601E3A115EF00F017EFB1
:1000280000F021EF00F015C50CF516C50DF513C548
:100038000EF514C50FF527EC0FF018BE26EF00F0EB
:1000480028EF00F02EEF00F017C51CF518C51DF5B8
:1000580032EF00F0000E1D6E000E1C6E000E1B6EBF
:10006800000E1A6E44EF00F0000E046E200E036EB0
:1000780013C505F514C506F57BECFCF01A4A1B2AD6
:100088001C501A5C1B50800A196E1D50800A1958A2
:10009800D8A051EF00F053EF00F038EF00F0060160
:1000A800E3B159EF00F05BEF00F065EF00F015C524
:1000B8000CF516C50DF513C50EF514C50FF527EC8F
:1000C8000FF015C501F516C502F5A6EC0CF01C508D
:1000D8000124136E1D500220146E1200000E066ECD
:1000E80004BE7BEF00F079EF00F081EF00F0036CC5
:1000F800041ED8B0042A010E066E02BE88EF00F076
:1001080086EF00F08EEF00F0016C021ED8B0022AD4
:10011800010E061A000E086E000E076E035004103A
:10012800D8B499EF00F09BEF00F0C3EF00F0010E98
:10013800056EA3EF00F0D89003360436052A04AE06
:10014800A8EF00F0AAEF00F09FEF00F0D890073674
:1001580008360350015C04500258D8A0B6EF00F0EE
:10016800B8EF00F0BDEF00F00350015E0450025AF2
:100178000780D89004320332052EAAEF00F006500B
:10018800D8B4C9EF00F0CBEF00F0CFEF00F0076C68
:10019800081ED8B0082A07C501F508C502F51200DF
:1001A800D7AED9EF00F089EF04F00AEC15F000099A
:1001B800D8A4E1EF00F0E3EF00F0E6EF00F0040E62
:1001C8002FEF01F007012951030B0009D8B4EFEF15
:1001D80000F0F1EF00F003EF01F0010E0601156FDA
:1001E80007012951030B0601166F1551165F070108
:1001F800295106011619FC0B16190701296F250745
:10020800D8A0260725512611D8B40DEF01F00FEF1D
:1002180001F01DEF01F0A2EC16F061008CFCD9F49E
:10022800610090FCDAF4DF6E0701234B242BE3EF27
:1002380000F0E2EC01F00601176FA2EC16F0610085
:100248008CFCD9F4610090FCDAF4DF6E0701234BD3
:10025800242B060117511200A790400E0601066FC5
:10026800FC0E076F010E086FECEC15F0A792F40E68
:100278000601066F1C0E076F000E086FE5EC15F0FF
:10028800000E0201CB6F000ECD6F000ECF6FB00EC7
:10029800D16F800ED26F000ED36F440ED46F000E54
:1002A800D56F000ED66F000ED76F000ED86F000EF8
:1002B800D96FC60E0601066F2D0E076F000E086F68
:1002C800FAEC15F0C40E0601066F2D0E076F000E2E
:1002D800086FF3EC15F0680E0601066F2D0E076F18
:1002E800000E086F01EC16F0000E0601F16F000E0B
:1002F800F66F000EF56F080EF86F000EF46F000E23
:10030800F36F000EF26FA7801200000E06010B6F4C
:1003180007BF93EF01F091EF01F099EF01F0066D3F
:10032800071FD8B0072B010E0B6F09BFA0EF01F014
:100338009EEF01F0A4EF01F0086D091FD8B0092B5A
:1003480008510911D8B4ABEF01F0ADEF01F0D1EFCE
:1003580001F0010E0A6FB5EF01F0D89008370937A0
:100368000A2B09AFBAEF01F0BCEF01F0B1EF01F0D1
:100378000851065D09510759D8A0C5EF01F0C7EF2C
:1003880001F0CBEF01F00851065F0951075BD890E7
:10039800093308330A2FBCEF01F00B51D8B4D7EF5B
:1003A80001F0D9EF01F0DDEF01F0066D071FD8B0BD
:1003B800072B06C606F607C607F61200D7AEE7EF04
:1003C80001F0E5EF03F0070129890BEF02F0A5EC36
:1003D80016F0080E39EF02F0A5EC16F0070E39EF0B
:1003E80002F0070125293FEC16F0040E39EF02F060
:1003F800070E07012719D8B404EF02F006EF02F040
:1004080008EF02F0A8EC16F00F0E39EF02F012C751
:1004180011F613C712F602D81CEF02F00500FA6EA7
:100428000051FD6E0151FE6E0251FF6EFA5012002E
:100438000601136F146B1451000AD8B426EF02F0AA
:10044800FCEF01F01351010AD8B4FCEF01F0030AE4
:10045800D8B4F0EF01F0010AD8B4EBEF01F0070AC5
:10046800D8B4F5EF01F0FCEF01F01200000E066EB3
:1004780002BE43EF02F041EF02F049EF02F0016CD7
:10048800021ED8B0022A010E066E04BE50EF02F01A
:100498004EEF02F054EF02F0036C041ED8B0042AA9
:1004A80003500410D8B45BEF02F05DEF02F081EF67
:1004B80002F0010E056E65EF02F0D890033604369F
:1004C800052A04AE6AEF02F06CEF02F061EF02F069
:1004D8000350015C04500258D8A075EF02F077EF82
:1004E80002F07BEF02F00350015E0450025AD890EC
:1004F80004320332052E6CEF02F00650D8B487EFB1
:1005080002F089EF02F08DEF02F0016C021ED8B004
:10051800022A01C501F502C502F512000601066F9F
:10052800010E0601076F070129B79DEF02F09FEF43
:1005380002F0E5EF02F006C622F729952987FC0E9E
:1005480029170F0E276F010E216FF40E206F2989CE
:10055800BC0E006F2B0E016F000E026F000E126FA3
:10056800000E136FBC0E036F2B0E046F000E056F89
:10057800000E146F000E156FBC0E066F2B0E076F62
:10058800000E086F000E166F000E176FBC0E096F75
:100598002B0E0A6F000E0B6F000E186F000E196FEE
:1005A800AE0E0C6F2B0E0D6F000E0E6F000E1A6F35
:1005B800000E1B6F7AEC16F014EC13F0000E060117
:1005C800076F060107511200000E060106150E6F8F
:1005D800000E07150F6F800E0815106F7F0E091596
:1005E800116F0E510F1110111111D8A4FEEF02F066
:1005F80000EF03F008EF03F0000E066F000E076F20
:10060800000E086F000E096F000E0A150E6F000E1F
:100618000B150F6F800E0C15106F7F0E0D15116FD7
:100628000E510F1110111111D8A41DEF03F01FEF77
:1006380003F027EF03F0000E0A6F000E0B6F000E99
:100648000C6F000E0D6F0A5106190FE10B510719B7
:100658000CE10C51081909E10D510919D8B437EF0B
:1006680003F039EF03F03CEF03F0D8903DEF03F0CF
:10067800D8801200000E0114096E000E02140A6ED2
:10068800800E03140B6E7F0E04140C6E09500A10B2
:100698000B100C10D8A453EF03F055EF03F05DEFE7
:1006A80003F0000E016E000E026E000E036E000EC7
:1006B800046E000E0514096E000E06140A6E800EF4
:1006C80007140B6E7F0E08140C6E09500A100B10DD
:1006D8000C10D8A472EF03F074EF03F07CEF03F072
:1006E800000E056E000E066E000E076E000E086EF8
:1006F800055001180FE1065002180CE107500318C5
:1007080009E108500418D8B48CEF03F08EEF03F019
:1007180091EF03F0D89092EF03F0D8801200016EA9
:10072800010E026E070129B79CEF03F09EEF03F05C
:10073800E3EF03F001C522F729952987FC0E291755
:100748000F0E276F010E216FF40E206F2989C00E3E
:10075800006F2D0E016F000E026F000E126F000E5B
:10076800136FC00E036F2D0E046F000E056F000E81
:10077800146F000E156FC00E066F2D0E076F000E5A
:10078800086F000E166F000E176FC00E096F2D0E42
:100798000A6F000E0B6F000E186F000E196FBC0E5B
:1007A8000C6F2D0E0D6F000E0E6F000E1A6F000EDF
:1007B8001B6F8EEC16F03EEC13F0000E026E02502A
:1007C80012000701298909EF04F0C9EC16F0080E98
:1007D80036EF04F0C9EC16F0070E36EF04F0070107
:1007E800252970EC16F0040E36EF04F0070E070109
:1007F8002719D8B402EF04F004EF04F006EF04F070
:10080800CCEC16F00F0E36EF04F012C70CF513C738
:100818000DF502D81AEF04F00500FA6E0051FD6ECE
:100828000151FE6E0251FF6EFA5012000E6E0F6AF1
:100838000F50000AD8B423EF04F0FAEF03F00E507B
:10084800010AD8B4FAEF03F0030AD8B4EEEF03F0C4
:10085800010AD8B4E9EF03F0070AD8B4F3EF03F0BC
:10086800FAEF03F01200000E096E000E0A6E000E79
:100878000B6E000E0C6E0550061007100810D8B449
:1008880048EF04F04AEF04F080EF04F0010E0D6E1B
:1008980054EF04F0D89005360636073608360D2A88
:1008A80008AE59EF04F05BEF04F04EEF04F0D89077
:1008B80009360A360B360C360550015C06500258CC
:1008C8000750035808500458D8A06DEF04F06FEF94
:1008D80004F078EF04F00550015E0650025A075004
:1008E800035A0850045A0980D89008320732063251
:1008F80005320D2E5BEF04F009C501F50AC502F5B6
:100908000BC503F50CC504F5120057EC15F00009EA
:10091800D8A491EF04F093EF04F096EF04F0040EDE
:10092800D7EF04F007012951030B0009D8B49FEF52
:1009380004F0A1EF04F0ADEF04F0010E016E2951AF
:10094800030B026E0150025E29510218FC0B0218BB
:10095800296F2507D8A0260725512611D8B4B7EF47
:1009680004F0B9EF04F0C7EF04F0C6EC16F061002C
:100978008CFCD9F4610090FCDAF4DF6E0701234B9C
:10098800242B93EF04F0E5EC03F0036EC6EC16F0AD
:1009980061008CFCD9F4610090FCDAF4DF6E070189
:1009A800234B242B0350120006010B6F060106513E
:1009B80007110811D8B4E3EF04F0E5EF04F006EFEF
:1009C80005F00B51030D000EF324D96E070EF42029
:1009D800DA6E610018F8DEF461001CF8DEF46100DC
:1009E80020F8DEF40B51020D120EF324D96E070E17
:1009F800F420DA6E610024F8DEF4610028F8DDF4F2
:100A080020EF05F00B51030D000EF324D96E070EED
:100A1800F420DA6EBC0EDE6E2B0EDE6E000EDE6E7D
:100A28000B51020D120EF324D96E070EF420DA6E64
:100A3800000EDE6E000EDD6E12000601206F1CC671
:100A480023F61DC624F61EC621F61FC622F6060189
:100A5800205192EC02F00009D8B435EF05F037EFD9
:100A680005F02BEF05F0CE0E06010C6F150E0D6F7D
:100A7800000E0E6F210E0F6F060E106F25EC14F08E
:100A88001B0E0601066F060E076F000E096F010E9A
:100A9800086FA2EC13F0000E06010C6F000E0D6F2C
:100AA800000E0E6F000E0F6F000E106F17EC14F093
:100AB800FCECFFF0CCEC11F0E806D8B466EF05F0DA
:100AC80068EF05F05EEF05F01200066E01500210A7
:100AD8000310D8B472EF05F074EF05F095EF05F048
:100AE8000650030D000EF324D96E070EF420DA6EBB
:100AF800610004F4DEF4610008F4DEF461000CF433
:100B0800DEF40650020D120EF324D96E070EF420FF
:100B1800DA6E610010F4DEF4610014F4DDF4AFEF76
:100B280005F00650030D000EF324D96E070EF420CD
:100B3800DA6EC00EDE6E2D0EDE6E000EDE6E065014
:100B4800020D120EF324D96E070EF420DA6E000E91
:100B5800DE6E000EDD6E120006011C6F000E06012F
:100B68001D6F06011C5192EC02F00009D8B4BFEFCA
:100B780005F0C1EF05F0B5EF05F0900E06010C6F1A
:100B88001F0E0D6F000E0E6F1D0E0F6F060E106FED
:100B980025EC14F01B0E0601066F060E076F000EFB
:100BA800096F010E086FA2EC13F0000E06010C6F1E
:100BB800000E0D6F000E0E6F000E0F6F000E106FFF
:100BC80017EC14F0FCECFFF0CCEC11F0E806D8B40C
:100BD800F0EF05F0F2EF05F0E8EF05F006011D5122
:100BE8001200D7AEFAEF05F03EEF07F007012989AA
:100BF8000FEF06F0A5EC16F0070E39EF06F0070127
:100C080025293FEC16F0030E39EF06F0A8EC16F094
:100C18000A0E39EF06F012C711F613C712F602D8FA
:100C280020EF06F00500FA6E0051FD6E0151FE6ED0
:100C38000251FF6EFA5012000601136F146B145123
:100C4800000AD8B42AEF06F00AEF06F01351010A99
:100C5800D8B40AEF06F0030AD8B4FEEF05F0060A86
:100C6800D8B403EF06F00AEF06F012001B6E17C5A2
:100C78001EF518C51FF519C51CF51AC51DF51B501D
:100C880093EC03F00009D8B44CEF06F04EEF06F0F1
:100C980043EF06F0E80E076E1A0E086E000E096E96
:100CA8001C0E0A6E050E0B6E5DEC14F0160E016E2E
:100CB800050E026E000E046E010E036EC6EC13F0F4
:100CC800000E076E000E086E000E096E000E0A6E0A
:100CD800000E0B6E4FEC14F07EEC16F0FEEC12F0EA
:100CE800E806D8B47AEF06F07CEF06F072EF06F06B
:100CF8001200D7AE82EF06F033EF08F07AEC16F068
:100D0800020E0701286F95EF06F0B9EC14F0BDEF5D
:100D180006F0D0EC15F0BDEF06F086EC14F0BDEF50
:100D280006F014C711F615C712F621EE03F302D820
:100D3800A8EF06F00500FA6EDE50FD6EDE50FE6E7E
:100D4800DE50FF6EFA5012000601136F146B145137
:100D5800000AD8B4B2EF06F091EF06F01351020A78
:100D6800D8B489EF06F0010AD8B48DEF06F091EFF8
:100D780006F01200240EF66E2D0EF76E000EF86EB9
:100D880001EEE8F310EE07F00900F5C4EEF4E550C3
:100D9800E150FAE102EE00F210EE00F1EE6AE550E1
:100DA800E150FCE1E250FAE102EE00F1800EEE6A59
:100DB800E806FDE102EE00F0F80EEE6AE806FDE155
:100DC80001EE00F3CB0EEE6AE806FDE101EED9F282
:100DD8001F0EEE6AE806FDE10501FF6BFE6BFD6B79
:100DE8000401080E5D6F000E5E6F000E5F6F00015C
:100DF80028EF0CF006011D6F06011D5192EC02F060
:100E08000009D8B40AEF07F00CEF07F000EF07F07D
:100E1800140E06010C6F1F0E0D6F000E0E6F1C0EC8
:100E28000F6F060E106F25EC14F01B0E0601066FEF
:100E3800060E076F000E096F010E086FA2EC13F083
:100E4800000E06010C6F000E0D6F000E0E6F000EE7
:100E58000F6F000E106F17EC14F0FCECFFF0CCECE9
:100E680011F0E806D8B43BEF07F03DEF07F033EF99
:100E780007F012000701298953EF07F0C9EC16F0B3
:100E8800070E7CEF07F00701252970EC16F0030E1A
:100E98007CEF07F0CCEC16F00A0E7CEF07F012C7D7
:100EA8000CF513C70DF502D864EF07F00500FA6ECC
:100EB8000051FD6E0151FE6E0251FF6EFA50120094
:100EC8000E6E0F6A0F50000AD8B46DEF07F04EEFA0
:100ED80007F00E50010AD8B44EEF07F0030AD8B451
:100EE80042EF07F0060AD8B447EF07F04EEF07F0D5
:100EF8001200000E0201A56F000EA66F000EA76F6C
:100F0800000EA86F000EA96F000EAA6FA00EAB6F9F
:100F1800800EAC6F000EAD6F820EAE6F060EAF6F17
:100F2800000EB06F000EB16F000EB26F000EB36FFF
:100F3800000E0601066F000E076F000E086F0FEC1B
:100F480016F0000E0601066F000E076F000E086F00
:100F580008EC16F0000E0601066F000E076F000E73
:100F6800086F16EC16F0000E0601F76F1200D7AEE8
:100F7800C0EF07F050EF09F0FC0E07012917020E29
:100F8800286F2995CFEF07F0C9EC15F0F7EF07F0B8
:100F98000F0EF7EF07F016C711F617C712F621EE76
:100FA80006F302D8E2EF07F00500FA6EDE50FD6E98
:100FB800DE50FE6EDE50FF6EFA5012000601136F0F
:100FC800146B1451000AD8B4ECEF07F0CCEF07F01B
:100FD8001351020AD8B4C8EF07F0010AD8B4C8EF11
:100FE80007F0CCEF07F01200186E185093EC03F0DE
:100FF8000009D8B402EF08F004EF08F0F9EF07F0A1
:10100800C80E076E230E086E000E096E170E0A6EC4
:10101800050E0B6E5DEC14F0160E016E050E026ED9
:10102800000E046E010E036EC6EC13F0000E076E80
:10103800000E086E000E096E000E0A6E000E0B6E92
:101048004FEC14F07EEC16F0FEEC12F0E806D8B483
:1010580030EF08F032EF08F028EF08F012008EECBD
:1010680016F0020E0701286F46EF08F032EC16F072
:101078006DEF08F0DCEC16F06DEF08F0B9EC15F048
:101088006DEF08F014C70CF515C70DF521EE03F345
:1010980002D859EF08F00500FA6EDE50FD6EDE50FA
:1010A800FE6EDE50FF6EFA5012000E6E0F6A0F5081
:1010B800000AD8B462EF08F042EF08F00E50020AB6
:1010C800D8B43AEF08F0010AD8B43EEF08F042EF7E
:1010D80008F01200D0EC0CF007012951030B0009AD
:1010E800D8B479EF08F07BEF08F088EF08F0FFEC50
:1010F80014F00009D8B483EF08F085EF08F088EF02
:1011080008F0100E0701276F07012751030DB70ECE
:10111800F324F66EFD0EF420F76EF86A000EF8223E
:1011280002D8A4EF08F00500FA6E0900F550FD6E2C
:101138000900F550FE6E0900F550FF6EFA501200D6
:101148000701276F1200F1C5F5F5F2C5F6F5000E97
:101158000601DE6F000EDD6FC9EF08F0EFC5BBF5C5
:10116800F0C5BCF5F50E0501BD6F050EBE6FF3C5E4
:10117800BFF5F4C5C0F543EC99F00501BB51060174
:10118800DD270501BC510601DE236100D4F7F6F422
:101198006100D8F7F7F4000EF86E0800F550000962
:1011A800D8A4D9EF08F0DBEF08F0B2EF08F0DDC6FD
:1011B800EFF5DEC6F0F512004BEC0DF007012951F2
:1011C800030B0009D8B4EBEF08F0EDEF08F0FAEFE5
:1011D80008F04CEC15F00009D8B4F5EF08F0F7EF7B
:1011E80008F0FAEF08F0100E0701276F07012751E2
:1011F800030DB70EF324F66EFD0EF420F76EF86AB1
:10120800000EF82202D816EF09F00500FA6E090060
:10121800F550FD6E0900F550FE6E0900F550FF6EA1
:10122800FA5012000701276F1200000E0601086F1E
:10123800D1EC14F00009D8B424EF09F026EF09F036
:101248001CEF09F0F9EC0CF00601076F0A0E0719FC
:10125800D8A431EF09F033EF09F03DEF09F0780E2B
:101268000825D96EDA6A080EDA22000EDF6E4FEF13
:1012780009F0780E0825D96EDA6A080EDA226100BC
:101288001CF8DFF4082B7F0E08654DEF09F04FEFCF
:1012980009F01CEF09F01200FC0E07012917020ED5
:1012A800286F29955FEF09F0DAEC16F086EF09F060
:1012B8000F0E86EF09F016C70CF517C70DF521EECE
:1012C80006F302D872EF09F00500FA6EDE50FD6EE3
:1012D800DE50FE6EDE50FF6EFA5012000E6E0F6A80
:1012E8000F50000AD8B47BEF09F05CEF09F00E50FC
:1012F800020AD8B458EF09F0010AD8B458EF09F037
:101308005CEF09F01200A7C6ABF6A8C6ACF6000E53
:101318000601DE6F000EDD6FA5EF09F0A5C671F6B8
:10132800A6C672F6AB0E736F060E746FA9C675F675
:10133800AAC676F600EC80F006017151DD277251DD
:10134800DE236100ACFAF6F46100B0FAF7F4000E9F
:10135800F86E0800F5500009D8A4B5EF09F0B7EF0A
:1013680009F092EF09F0DDC6A5F6DEC6A6F6120072
:10137800000E096E000E0A6E000E0B6E000E0C6E4B
:1013880001A0C9EF09F0CBEF09F0D3EF09F0055040
:10139800092606500A2207500B2208500C22D89022
:1013A8000536063607360836D8900432033202323C
:1013B80001320150021003100410D8A4E6EF09F01E
:1013C800E8EF09F0C4EF09F009C501F50AC502F50F
:1013D8000BC503F50CC504F5120008C60CF609C6C2
:1013E8000DF606C60EF607C60FF606010C510A6F73
:1013F8000D510B6F0C4B0D2B610028F8F6F46100B2
:101408002CF8F7F4000EF86E610038F8D9F4610092
:101418003CF8DAF40E4B0F2B240EF76403D00800C7
:10142800F55005D0F6C4E9F4F7C4EAF4EF50DF6EDE
:10143800DF50D8A422EF0AF024EF0AF0F9EF09F000
:10144800120003C507F504C508F501C509F502C56D
:101458000AF50750056E0850066E074A082A61000B
:1014680014F4F6F4610018F4F7F4000EF86E610055
:1014780024F4D9F4610028F4DAF4094A0A2A240E7B
:10148800F76403D00800F55005D0F6C4E9F4F7C4B2
:10149800EAF4EF50DF6EDF50D8A455EF0AF057EFAB
:1014A8000AF02DEF0AF012007CECE1F00DC542F5D0
:1014B8000EC543F50FC544F510C545F5010EC1EC41
:1014C800EBF042C550F543C551F544C552F545C545
:1014D80053F5000E546E000E556EC80E566E420E31
:1014E800576E1EECDAF050C56DF551C56EF552C554
:1014F8006FF553C570F56DC55CF56EC55DF56FC5C7
:101508005EF570C55FF51200D6ECD1F00DC542F559
:101518000EC543F50FC544F510C545F5000EC1ECE1
:10152800EBF042C550F543C551F544C552F545C5E4
:1015380053F5000E546E000E556E800E566E440E16
:10154800576E1EECDAF050C56DF551C56EF552C5F3
:101558006FF553C570F56DC55CF56EC55DF56FC566
:101568005EF570C55FF512000601196F010E0601E0
:101578001A6F070129B5C3EF0AF0C5EF0AF0E4EFC7
:101588000AF02985000E06011A6F070125513FEC64
:1015980016F006011951D8B4D4EF0AF0D6EF0AF0C4
:1015A800DDEF0AF0040E0701276F15EC11F0E2EFEA
:1015B8000AF0030E0701276FE9EC13F0F9EC13F0BA
:1015C80006011A511200D7AEECEF0AF074EF0DF0D5
:1015D800060120EE02F01151D9261251DA226100DB
:1015E80078F306F6610074F307F6610044F8D9F45D
:1015F800610048F8DAF4610078F308F6610074F3E2
:1016080009F6A2EC13F0000E06010C6F000E0D6F28
:10161800000E0E6F000E0F6F000E106F25EC14F009
:10162800020E1200D7AE1BEF0BF09CEF0DF0060177
:1016380020EE02F01151D9261251DA22610078F316
:1016480006F6610074F307F6610044F8D9F4610006
:1016580048F8DAF4610078F308F6610074F309F6E3
:10166800A2EC13F0000E06010C6F000E0D6F000EB9
:101678000E6F000E0F6F000E106F25EC14F0020EA7
:1016880012000601066F0601F851D8B44EEF0BF0B0
:1016980050EF0BF047EF0BF0A7B255EF0BF057EFF9
:1016A8000BF05CEF0BF0610018F8C9F272EF0BF069
:1016B800A7923A0EF625D96EDA6A070EDA22610089
:1016C80018F8DFF4F62B070EF6656DEF0BF06FEFE9
:1016D8000BF071EF0BF0000EF66FF807A7821200FF
:1016E800000E0301D96F000EDA6F000EDB6F000EDB
:1016F800DC6F000EDF6F000EE06F000EE56F000E6E
:10170800E76F000EEC6F000EEE6F000EEF6F000E2D
:10171800F06F000EF16F000EF26F000EF46F100EF6
:10172800F56F000EF66F000EF76F000EF86F000EE3
:10173800F96F090EFA6F940EF36F1200B5A2A7EFB6
:101748000BF0A9EF0BF0ABEF0BF0CEEF0BF0B5A061
:10175800B0EF0BF0B2EF0BF0B4EF0BF0CEEF0BF0F5
:1017680002019AA5BAEF0BF0BCEF0BF0BEEF0BF03D
:10177800CEEF0BF09AAFC3EF0BF0C5EF0BF0C7EF4E
:101788000BF0CEEF0BF097A9CCEF0BF0CEEF0BF0F0
:10179800A2EF0BF01200B5A2D4EF0BF0D6EF0BF0CE
:1017A800D8EF0BF0FBEF0BF0B5A0DDEF0BF0DFEFA0
:1017B8000BF0E1EF0BF0FBEF0BF002019AA5E7EF5E
:1017C8000BF0E9EF0BF0EBEF0BF0FBEF0BF09AAF40
:1017D800F0EF0BF0F2EF0BF0F4EF0BF0FBEF0BF088
:1017E80097A9F9EF0BF0FBEF0BF0CFEF0BF012001E
:1017F80006C608F607C609F605EF0CF00601064B03
:10180800072B610018F8F6F461001CF8F7F4000ED5
:10181800F86E240EF76403D00800F55005D0F6C41E
:10182800E9F4F7C4EAF4EF500009D8A41EEF0CF06D
:1018380020EF0CF002EF0CF006010851065D066F70
:1018480009510759076F12008FEC13F0D68E6E0EF0
:101858000601066F2D0E076F000E086F1DEC16F0BF
:10186800C4EC0DF0CFB83BEF0CF03DEF0CF036EFC9
:101878000CF0CFA842EF0CF044EF0CF03DEF0CF069
:10188800B5ECE2F0CFB84BEF0CF04DEF0CF044EFB5
:101898000CF0FF0044EF0CF00DEF00F0000E030118
:1018A8001F6F000E206F040E216F860E1D6FE80E4D
:1018B8001C6FB1981C51600074FC09F606010A6B94
:1018C80009C60AF6096B09110701E66F06010A51F4
:1018D8000701E76FA188C80E0601066F2D0E076F76
:1018E800000E086F1DEC16F0010E03011E6F1200AA
:1018F800010E06010C6F200E06190711D8B487EFE8
:101908000CF089EF0CF0A2EF0CF0F70E086FFF0E49
:10191800096F06C60AF607C60BF608510A270951C9
:101928000B230B5109E1050E0A5DD8A09EEF0CF0C0
:10193800A0EF0CF0A2EF0CF0000E0C6F0CC606F630
:10194800076B120001C503F502C504F5AEEF0CF0F4
:10195800014A022A610004F4F6F4610008F4F7F47D
:10196800000EF86E240EF76403D00800F55005D079
:10197800F6C4E9F4F7C4EAF4EF500009D8A4C7EFB5
:101988000CF0C9EF0CF0ACEF0CF00350015C016EE9
:1019980004500258026E12002BEC15F00009D8B45E
:1019A800D8EF0CF0DAEF0CF0DEEF0CF0B1EC16F03B
:1019B800F8EF0CF015EC15F00009D8B4E6EF0CF0D0
:1019C800E8EF0CF0ECEF0CF0ABEC16F0F8EF0CF0E5
:1019D80020EC15F00009D8B4F4EF0CF0F6EF0CF099
:1019E800F8EF0CF0AEEC16F012000601F251D8B484
:1019F80000EF0DF002EF0DF0F9EF0CF02A0EF325D1
:101A0800D96EDA6A070EDA22DF50F16F320EF3254B
:101A1800D96EDA6A070EDA22DF50066FF32B070E4B
:101A2800F36519EF0DF01BEF0DF01DEF0DF0000E33
:101A3800F36FA790F207A78006511200146E010EEB
:101A4800156E070129B52BEF0DF02DEF0DF049EFBD
:101A58000DF02985000E156E255170EC16F0145006
:101A6800D8B439EF0DF03BEF0DF042EF0DF0040E56
:101A78000701276FBBEC12F047EF0DF0030E0701CB
:101A8800276F36EC15F008EC14F01550120078ECBE
:101A980015F00009D8B453EF0DF055EF0DF059EFDC
:101AA8000DF0D5EC16F073EF0DF062EC15F00009AF
:101AB800D8B461EF0DF063EF0DF067EF0DF0CFECE8
:101AC80016F073EF0DF06DEC15F00009D8B46FEF58
:101AD8000DF071EF0DF073EF0DF0D2EC16F012006F
:101AE80020EE02F00C50D9260D50DA22610078F36E
:101AF80001F5610074F302F5610030F4D9F4610076
:101B080034F4DAF4610078F303F5610074F304F552
:101B1800C6EC13F0000E076E000E086E000E096E7C
:101B2800000E0A6E000E0B6E5DEC14F0020E120031
:101B380020EE02F00C50D9260D50DA22610078F31D
:101B480001F5610074F302F5610030F4D9F4610025
:101B580034F4DAF4610078F303F5610074F304F502
:101B6800C6EC13F0000E076E000E086E000E096E2C
:101B7800000E0A6E000E0B6E5DEC14F0020E1200E1
:101B88008DEC15F0050E0601416F0F0E406FF10E3A
:101B9800E82EFED7402FFCD7412FFAD7E5ECE7F027
:101BA800000E0601066F000E53EC13F0010E06013D
:101BB800066F010E076F010E4DEC11F0010E5CEC83
:101BC80016F068EC11F0010E0601ED6F1200BF0E61
:101BD80006010E6FFF0E0F6F0CC610F60DC611F63C
:101BE8000E5110270F511123115107E11A0E105DE4
:101BF800D8B001EF0EF003EF0EF00AEF0EF0200E52
:101C08000C110C6F0D510D6F0EEF0EF00CC60CF68B
:101C18000DC60DF61200000E0601176F000E166FA6
:101C280022EF0EF015C608F6096B13C60AF614C69D
:101C38000BF6A2ECFBF00601164B172B16511125DB
:101C4800D96E17511221DA6EDF50156F1551D8A4CD
:101C580030EF0EF032EF0EF016EF0EF01200000E1D
:101C68000601231B000E241B000E251B800E261BBD
:101C78001FC606F620C607F621C608F622C609F6CC
:101C880023C60AF624C60BF625C60CF626C60DF69C
:101C980015ECCDF006C61FF607C620F608C621F6D5
:101CA80009C622F612009F0E06010E6FFF0E0F6F77
:101CB8000CC610F60DC611F60E5110270F51112340
:101CC800115107E11A0E105DD8B06DEF0EF06FEFED
:101CD8000EF075EF0EF05F0E0C150C6F0D6B79EFB3
:101CE8000EF00CC60CF60DC60DF61200080E060115
:101CF800F86181EF0EF083EF0EF09BEF0EF03A0ED5
:101D0800F525D96EDA6A070EDA22DF500201C96FAB
:101D18000601F52B070EF56594EF0EF096EF0EF021
:101D280098EF0EF0000EF56FF82B9CEF0EF0A792CF
:101D38001200BF0E056EFF0E066E03C507F504C53B
:101D480008F50550072606500822085007E11A0E24
:101D5800075CD8B0B2EF0EF0B4EF0EF0BBEF0EF0A8
:101D6800200E0310036E0450046EBFEF0EF003C57F
:101D780003F504C504F51200000E1E1A000E1F1A02
:101D8800000E201A800E211A1AC501F51BC502F58E
:101D98001CC503F51DC504F51EC505F51FC506F5CB
:101DA80020C507F521C508F576ECCFF001C51AF571
:101DB80002C51BF503C51CF504C51DF51200200E50
:101DC80001180210D8B4EBEF0EF0EDEF0EF004EFAF
:101DD8000FF0F70E036EFF0E046E01C505F502C580
:101DE80006F50350052604500622065009E1050EA3
:101DF800055CD8A002EF0FF004EF0FF004EF0FF02E
:101E080012009F0E056EFF0E066E03C507F504C58A
:101E180008F50550072606500822085007E11A0E53
:101E2800075CD8B01AEF0FF01CEF0FF022EF0FF09D
:101E38005F0E0314036E046A26EF0FF003C503F563
:101E480004C504F51200000E126E000E116E38EF74
:101E58000FF010C503F5046A0EC505F50FC506F5A4
:101E68007BECFCF0114A122A11500C24D96E125046
:101E78000D20DA6EDF50106E1050D8A446EF0FF028
:101E880048EF0FF02DEF0FF01200060119BF57EFC2
:101E98000FF0195106E11805D8B055EF0FF057EFBC
:101EA8000FF065EF0FF018C61AF619C61BF61A1FC1
:101EB8001B1F1A4B1B2B1AC618F61BC619F669EFFF
:101EC8000FF018C618F619C619F6120014BE77EFE7
:101ED8000FF0145006E11304D8B075EF0FF077EF48
:101EE8000FF085EF0FF013C515F514C516F5151E7F
:101EF800161E154A162A15C513F516C514F589EFC9
:101F08000FF013C513F514C514F51200D7AE8FEFF3
:101F18000FF0E4EF11F011C606F612C607F6000E30
:101F28000601096F010E086FA2EC13F0000E0601FE
:101F38000C6F000E0D6F000E0E6F000E0F6F000E6F
:101F4800106F25EC14F0040E1200D7AEAEEF0FF0B0
:101F5800FCEF11F011C606F612C607F6000E0601D0
:101F6800096F020E086FA2EC13F0000E06010C6F49
:101F7800000E0D6F000E0E6F000E0F6F000E106F2B
:101F880025EC14F0020E1200D7AECDEF0FF014EFCF
:101F980012F011C606F612C607F6000E0601096F02
:101FA800010E086FA2EC13F0000E06010C6F000E74
:101FB8000D6F000E0E6F000E0F6F000E106F25ECE8
:101FC80014F0020E1200D7AEECEF0FF02CEF12F067
:101FD80011C606F612C607F6000E0601096F020EB4
:101FE800086FA2EC13F0000E06010C6F000E0D6FC7
:101FF800000E0E6F000E0F6F000E106F25EC14F020
:10200800040E1200D7AE0BEF10F044EF12F011C619
:1020180006F612C607F6000E0601096F020E086FD3
:10202800A2EC13F0000E06010C6F000E0D6F000EEF
:102038000E6F000E0F6F000E106F25EC14F0020EDD
:102048001200D7AE2AEF10F05CEF12F011C606F6B8
:1020580012C607F6000E0601096F010E086FA2EC02
:1020680013F0000E06010C6F000E0D6F000E0E6FC0
:10207800000E0F6F000E106F25EC14F0020E120008
:10208800D7AE49EF10F074EF12F011C606F612C67B
:1020980007F6000E0601096F010E086FA2EC13F097
:1020A800000E06010C6F000E0D6F000E0E6F000E75
:1020B8000F6F000E106F25EC14F0040E1200D7AE4F
:1020C80068EF10F08CEF12F011C606F612C607F68C
:1020D800000E0601096F020E086FA2EC13F0000E45
:1020E80006010C6F000E0D6F000E0E6F000E0F6FC5
:1020F800000E106F25EC14F0040E12009F0E06015E
:10210800086FFF0E096F200E06110A6F000E0711E7
:102118000B6F08510A2709510B230B510AE11A0EBC
:102128000A5DD8A09AEF10F09DEF10F0010E9EEF17
:1021380010F0000E066F076B1200D00E0601086F34
:10214800FF0E096F06C60AF607C60BF608510A27DE
:1021580009510B230B510AE10A0E0A5DD8A0B7EF0B
:1021680010F0BAEF10F0010EBBEF10F0000E066F82
:10217800076B12009F0E0601086FFF0E096F06C657
:102188000AF607C60BF608510A2709510B230B510B
:102198000AE11A0E0A5DD8A0D4EF10F0D7EF10F0BC
:1021A800010ED8EF10F0000E066F076B1200BF0E7D
:1021B8000601086FFF0E096F06C60AF607C60BF67A
:1021C80008510A2709510B230B510AE11A0E0A5D1F
:1021D800D8A0F1EF10F0F4EF10F0010EF5EF10F0C9
:1021E800000E066F076B1200060106510711081151
:1021F8000911D8B402EF11F004EF11F00CEF11F04F
:10220800000E061B000E071B000E081B800E091B84
:1022180006C606F607C607F608C608F609C609F68A
:102228001200D7AE1AEF11F0BBEF12F007012951D7
:10223800FC0B0209296F25052611D8A426EF11F0F9
:1022480028EF11F02AEF11F0E2EC01F0D880070135
:10225800223539EC16F0040E12000150021003105A
:102268000410D8B43AEF11F03CEF11F044EF11F03C
:10227800000E011A000E021A000E031A800E041A2C
:1022880001C501F502C502F503C503F504C504F54A
:1022980012000601096F09C608F60601083B08473F
:1022A800EE5108191F0B0819EE6F06C608F6084705
:1022B8000847EE510819E30B0819EE6FEE5107199C
:1022C800FC0B0719EE6F1200F50E06011B6FF0C626
:1022D8001CF6760EFEEC06F0F20E06011B6FEFC63A
:1022E8001CF6760EFEEC06F0F40E06011B6FEEC629
:1022F8001CF6760EFEEC06F01200D7AE86EF11F053
:102308007BEF13F099EC16F096EC16F00009D8B4B0
:1023180090EF11F092EF11F098EF11F0000E3FECF2
:1023280016F0000E39EC16F0000E12000701D45119
:10233800D511D611D8B4A3EF11F0A5EF11F0B2EF73
:1023480011F002D8B2EF11F00500FA6ED451FD6E0B
:10235800D551FE6ED651FF6EFA5012001200056E6E
:10236800610014F4ECF30301F38FF39DF381F3B1EF
:10237800C0EF11F0C2EF11F0BBEF11F0EB51046E9A
:10238800036AEA510324016E000E0420026E120053
:10239800010E0601066F070129B5D5EF11F0D7EF39
:1023A80011F0E1EF11F0299722697AEC16F033EC7D
:1023B80014F045EC16F028C706F60601065112007F
:1023C8000CC501F50DC502F5000E046E010E036E75
:1023D800C6EC13F0000E076E000E086E000E096EB4
:1023E800000E0A6E000E0B6E5DEC14F0040E120067
:1023F8000CC501F50DC502F5000E046E020E036E44
:10240800C6EC13F0000E076E000E086E000E096E83
:10241800000E0A6E000E0B6E5DEC14F0020E120038
:102428000CC501F50DC502F5000E046E010E036E14
:10243800C6EC13F0000E076E000E086E000E096E53
:10244800000E0A6E000E0B6E5DEC14F0020E120008
:102458000CC501F50DC502F5000E046E020E036EE3
:10246800C6EC13F0000E076E000E086E000E096E23
:10247800000E0A6E000E0B6E5DEC14F0040E1200D6
:102488000CC501F50DC502F5000E046E020E036EB3
:10249800C6EC13F0000E076E000E086E000E096EF3
:1024A800000E0A6E000E0B6E5DEC14F0020E1200A8
:1024B8000CC501F50DC502F5000E046E010E036E84
:1024C800C6EC13F0000E076E000E086E000E096EC3
:1024D800000E0A6E000E0B6E5DEC14F0020E120078
:1024E8000CC501F50DC502F5000E046E010E036E54
:1024F800C6EC13F0000E076E000E086E000E096E93
:10250800000E0A6E000E0B6E5DEC14F0040E120045
:102518000CC501F50DC502F5000E046E020E036E22
:10252800C6EC13F0000E076E000E086E000E096E62
:10253800000E0A6E000E0B6E5DEC14F0040E120015
:1025480003011EA5AAEF12F0ACEF12F0B5EF12F0DE
:102558001E9102501D6F610004F41CF31E81BAEF36
:1025680012F002501D6F610004F41CF31200070101
:102578002951FC0B0209296F25052611D8A4C7EF9C
:1025880012F0C9EF12F0CBEF12F0E5EC03F0D880AF
:10259800070122356BEC16F0040E120006010651F5
:1025A80008036100CCF30AF66100D0F30BF606517C
:1025B8000903F3500B2707510803F3500B270AC6EA
:1025C80006F60BC607F61200320E0601F425D96E80
:1025D800DA6A070EDA22C7C2DFF4F42B070EF465B5
:1025E800F8EF12F0FAEF12F0FCEF12F0000EF46FB1
:1025F800F22B1200010E016E070129B506EF13F048
:1026080008EF13F012EF13F0299722698EEC16F0F9
:102618006BEC14F051EC16F028C701F501501200CC
:10262800020194BF1AEF13F01CEF13F028EF13F018
:10263800000E9A6F000E9B6F000E976F8D69510EFA
:10264800896F510E886F948F120001500302610048
:10265800CCF305F56100D0F306F501500402F35000
:10266800062602500302F350062605C501F506C5E5
:1026780002F51200020194BF44EF13F046EF13F085
:1026880052EF13F0000E9A6F000E9B6F000E976FBB
:102698008D69510E896F510E886F948F1200060153
:1026A800086F08C607F60601073BF05107198F0B9C
:1026B8000719F06F06C607F60747F0510719F10B1F
:1026C8000719F06F1200F90E0501FB6F050EFC6F7C
:1026D800000EEF6F000EF06FF7C5F1F5F8C5F2F5D3
:1026E800FB0EF36F050EF46FA7EC08F01200BDECBB
:1026F80016F0BAEC16F00009D8B485EF13F087EF9E
:1027080013F08DEF13F0000E70EC16F0000E6BEC6A
:1027180016F0000E1200D8EC16F0B4EC13F0D8EC5A
:1027280013F0ECECFEF041EC14F074EC0BF052EC0E
:102738000CF07DEC07F030EC01F01200070129A93C
:10274800A8EF13F0AAEF13F0B3EF13F006C623F7C0
:1027580007C624F708C625F709C626F729991200DF
:10276800000E0001606F000E616F000E636F000EB7
:10277800646F000E656F000E666F000E676F000EC7
:10278800686F1200070129A9CCEF13F0CEEF13F000
:10279800D7EF13F001C523F702C524F703C525F7C2
:1027A80004C526F729991200040E0201946F800EC1
:1027B800956F180E966F030E9C6F000E9A6F000EA1
:1027C8009B6F000E976F8D691200D7AEEEEF13F076
:1027D80036EF15F007012951FC0B0209296F225128
:1027E800222539EC16F0030E1200FFEF13F0A2ECCD
:1027F8000BF06EEC08F0070129B505EF14F007EFB0
:1028080014F0FBEF13F012000EEF14F0CFEC0BF006
:10281800E0EC08F0070129B514EF14F016EF14F0F6
:102828000AEF14F012000CC606F60DC607F60EC61F
:1028380008F60FC609F610C60AF6020ED8EC04F020
:1028480012000CC606F60DC607F60EC608F60FC629
:1028580009F610C60AF6000ED8EC04F01200A5948A
:10286800A596A590A59202019B919B959B9F9B9DE8
:102878009B939793979597911200600E0001AD6F07
:10288800000EAF6F000EB36F080EB16F000EB06F81
:10289800000EAC6F120007C501F508C502F509C5A1
:1028A80003F50AC504F50BC505F5020E69EC05F03C
:1028B800120007C501F508C502F509C503F50AC5E3
:1028C80004F50BC505F5000E69EC05F01200A5949A
:1028D800A596A590A59202019B919B959B9F9B9D78
:1028E8009B939793979597911200D7AE7EEF14F02C
:1028F800B1EF15F057EC16F007012995020E286F75
:102908000F0E1200D7AE8BEF14F0B9EF15F057EC9D
:1029180016F007012995000E286F0F0E1200060108
:10292800066FB2A29AEF14F09CEF14F095EF14F032
:10293800610018F8A3F212000601EE51FC0B010920
:10294800EE6FF40E166EEEC617F5760EF8EC07F07D
:102958001200D7AEB2EF14F02BEF16F09CEC16F085
:1029680099EC16F0E9EC14F01200D7AEBEEF14F0B3
:1029780032EF16F0070125513FEC16F015EC11F077
:1029880012000601F851D8A4CCEF14F0CFEF14F0E0
:10299800010ED0EF14F0000E12000601F251D8A477
:1029A800D8EF14F0DBEF14F0010EDCEF14F0000E9A
:1029B8001200016EB2A2E3EF14F0E5EF14F0DEEFBF
:1029C80014F0610004F4A3F21200D7AEEEEF14F095
:1029D8004BEF16F007012995000E286F0F0E120015
:1029E800020199BBFAEF14F0FDEF14F0010EFEEFAF
:1029F80014F0000E1200020195BB05EF15F008EF68
:102A080015F0010E09EF15F0000E1200020199B140
:102A180010EF15F013EF15F0010E14EF15F0000E7E
:102A2800120002019AB51BEF15F01EEF15F0010E0A
:102A38001FEF15F0000E1200020197B926EF15F0EE
:102A480029EF15F0010E2AEF15F0000E1200020111
:102A58009ABF31EF15F034EF15F0010E35EF15F090
:102A6800000E120007012951FC0B0209296F22519F
:102A780022256BEC16F0030E1200020199BB47EFFA
:102A880015F04AEF15F0010E4BEF15F0000E12008D
:102A9800020195BB52EF15F055EF15F0010E56EFF8
:102AA80015F0000E1200020199B15DEF15F060EF0C
:102AB80015F0010E61EF15F0000E120002019AB533
:102AC80068EF15F06BEF15F0010E6CEF15F0000EC6
:102AD8001200020197B973EF15F076EF15F0010EA9
:102AE80077EF15F0000E120002019ABF7EEF15F085
:102AF80081EF15F0010E82EF15F0000E1200B1986B
:102B0800E6C701F5E7C702F5A4EC12F09AEC11F05C
:102B18001200E00E06011B6FB60E1C6F760EFEEC5F
:102B280006F01200D7AE9BEF15F082EF16F09CEC82
:102B380016F0090E1200D7AEA4EF15F086EF16F0C6
:102B48009FEC16F0040E1200D7AEADEF15F08AEF29
:102B580016F09FEC16F0030E120075EC16F0070144
:102B68002995020E286F0F0E120075EC16F007015A
:102B78002995000E286F0F0E1200010EB3EC11F00C
:102B880001C5E5F602C5E6F61200D7AECEEF15F0A0
:102B9800DAEF16F0010E1200D7AED5EF15F0DCEF24
:102BA80016F0020E1200D7AEDCEF15F0DEEF16F0CD
:102BB800050E1200D7AEE3EF15F0E0EF16F0010EA8
:102BC800120006C6E0F707C6E1F708C6E2F71200EA
:102BD80006C6E3F707C6E4F708C6E5F7120006C617
:102BE800CEF707C6CFF708C6D0F7120006C6D1F74A
:102BF80007C6D2F708C6D3F7120006C6CBF707C632
:102C0800CCF708C6CDF7120006C6DAF707C6DBF719
:102C180008C6DCF7120006C6DDF707C6DEF708C6E9
:102C2800DFF7120006C6D7F707C6D8F708C6D9F7E0
:102C3800120006C6D4F707C6D5F708C6D6F712009D
:102C48000601076F0601075193EC14F01200C0EC5F
:102C580016F0BDEC16F04BEC16F0120007012551EA
:102C680070EC16F0BBEC12F012000601066F610062
:102C780018F88CF212000601066F610018F88DF240
:102C880012000201949F000E9A6F998512000701A5
:102C98002995000E286F0F0E12000201949F000E56
:102CA8009A6F998512000201949F9985948F12005A
:102CB8000601066F06C6EFF61200026E0250DDEC42
:102CC80014F01200A0EC14F030ECF5F01200016ED4
:102CD800610004F48CF21200016E610004F48DF2BC
:102CE80012000201949F9985948F1200000E020130
:102CF8009A6F1200000E22EC0DF01200C0EC16F0D4
:102D0800090E1200C3EC16F0040E1200C3EC16F004
:102D1800030E1200000E02019A6F1200286E756CE5
:032D28006C290013
:102D2C0002018D5112000201949B12000201958D3B
:102D3C0012000201959D120002018B51120002013A
:102D4C00948D12000201949D120002019A951200BA
:102D5C0002019799120002019A9F1200E8EC12F0FE
:102D6C00120050ECFDF0120002018D511200020114
:102D7C00949B12000201958D12000201959D120088
:102D8C0002018B5112000201948D12000201949DDC
:102D9C00120002019A951200020197991200020189
:102DAC009A9F1200D69A1200010E1200020E120007
:102DBC00050E1200010E1200120012001200120079
:062DCC00120012001200CB
:10FDB60000D229002A2200D22700ACE601A80100C1
:10FDC600EA0B00C40300722900A02B00922B00024C
:10FDD60023003E2B00502B005A29002C2B000C2907
:10FDE60000760F00FA0C00F228004F4B0D0A3E0079
:10FDF600613361326333717839756F69356B2D61A3
:10FE060074732E696F742E75732D656173742D323C
:10FE16002E616D617A6F6E6177732E636F6D007000
:10FE26006F6F6C2E6E74702E6F72670065646479E6
:10FE36006D65736861636B006950686F6E65313319
:10FE460000706963333200224C69676874223A2570
:10FE5600752C2254656D70223A25642C22507265E9
:10FE66007373223A25752C2248756D6964223A25EA
:10FE7600752C0041542B4D5154545055423D256428
:10FE86002C25642C25642C222573222C22257322F2
:10FE96000D0A0041542B57535441433D25642C22EF
:10FEA6002573220D0A0041542B4D515454433D25D0
:10FEB600642C222573220D0A0050726573733A2052
:10FEC600257520696E4867200A0D0041542B57534B
:10FED6005441433D25642C25640D0A0041542B4DA5
:10FEE600515454433D25642C25640D0A0041542B7E
:10FEF6004D515454434F4E4E3D25640D0A004875EE
:10FF06006D69643A2025752525200A0D004C696720
:10FF160068743A202575200A0A0D0054656D703AFA
:10FF26002025692043200A0D0041542B5753544184
:10FF36003D25640D0A0054657374204D6573736125
:10FF4600676500746573742F546F7069630041545C
:10FF56002B575354410D0A002B575354414C440D13
:10FF66000A00494E46004E414E00686858006C6CC7
:10FF76005800686864006C6C6400696E66006868A6
:10FF860069006C6C69006E616E0068686E006C6C6E
:10FF96006E0068686F006C6C6F006C6C730068684C
:10FFA60075006C6C7500686878006C6C78006A582F
:10FFB600007458007A58006C61006A64007464002A
:10FFC6007A64006C65006C66006C67006A69007490
:10FFD60069007A69006A6E00746E007A6E006A6F54
:10FFE60000746F007A6F006A75007475007A750088
:0AFFF6006A78007478007A78000041
:020000040001F9
:100000006100CCF9D9F46100D0F9DAF4DEC4F6F479
:10001000DDC4F7F4000EF86E0800F550250AD8A4E8
:1000200014EF80F016EF80F020EF99F06100CCF92A
:10003000D9F46100D0F9DAF4DE2A000EDD22000ED8
:100040000601E06F000EDF6FDFC6E3F6E0C6E4F600
:10005000E169E269000E886F000E876F7CEF80F027
:10006000E3816100CCF9D9F46100D0F9DAF4DE2A39
:10007000000EDD227CEF80F0E38331EF80F0E3853A
:1000800031EF80F0E38731EF80F0E38931EF80F0EA
:10009000000E886F010E876F7CEF80F06100CCF955
:1000A000D9F46100D0F9DAF4DEC4F6F4DDC4F7F473
:1000B000000EF86E0800F550776F786B7851000AE3
:1000C000D8B465EF80F048EF80F07751200AD8B4BB
:1000D00042EF80F0030AD8B445EF80F0080AD8B4A4
:1000E0003FEF80F0060AD8B430EF80F01D0AD8B494
:1000F0003CEF80F048EF80F087518811D8B483EF4F
:1001000080F085EF80F04EEF80F0E3A18AEF80F081
:100110008CEF80F08DEF80F0E3936100CCF9D9F49F
:100120006100D0F9DAF4DEC4F6F4DDC4F7F4000EB1
:10013000F86E0800F5502A0AD8A4A1EF80F0A3EFCA
:1001400080F0D6EF80F06100CCF9D9F46100D0F9ED
:10015000DAF4DE2A000EDD226100D4F9D9F4610060
:10016000D8F9DAF461007CF377F6020EDE2661003E
:100170007CF378F6000EDD226100DCF9D9F4610031
:10018000E0F9DAF4610078F3DFF6610074F3E0F689
:10019000E0BFCFEF80F0CDEF80F017EF81F0E3818B
:1001A000DF6DE01FD8B0E02B17EF81F06100CCF9D4
:1001B000D9F46100D0F9DAF4610078F30DF661004A
:1001C00074F30EF6CAECEFF00DC6DFF60EC6E0F6DD
:1001D000F3EF80F06100CCF9D9F46100D0F9DAF4E2
:1001E000DE2A000EDD22D00E0601776FFF0E786F3B
:1001F0006100CCF9D9F46100D0F9DAF4DEC4F6F488
:10020000DDC4F7F4000EF86E0800F550796F7A6BD4
:100210007751792778517A237A5109E10A0E795D6D
:10022000D8A015EF81F017EF81F0EAEF80F06100C0
:10023000CCF9D9F46100D0F9DAF4DEC4F6F4DDC407
:10024000F7F4000EF86E0800F5502E0AD8A42BEF34
:1002500081F02DEF81F0B8EF81F0000EE26F000E1B
:10026000E16F6100CCF9D9F46100D0F9DAF4DE2A4B
:10027000000EDD226100CCF9D9F46100D0F9DAF486
:10028000DEC4F6F4DDC4F7F4000EF86E0800F55095
:100290002A0AD8A44EEF81F050EF81F077EF81F079
:1002A0006100CCF9D9F46100D0F9DAF4DE2A000E4D
:1002B000DD226100D4F9D9F46100D8F9DAF46100E3
:1002C0007CF377F6020EDE2661007CF378F6000EF2
:1002D000DD226100DCF9D9F46100E0F9DAF46100B3
:1002E00078F3E1F6610074F3E2F6B8EF81F06100B3
:1002F000CCF9D9F46100D0F9DAF4610078F30DF6A5
:10030000610074F30EF6CAECEFF00DC6E1F60EC60E
:10031000E2F694EF81F06100CCF9D9F46100D0F9F4
:10032000DAF4DE2A000EDD22D00E0601776FFF0E12
:10033000786F6100CCF9D9F46100D0F9DAF4DEC449
:10034000F6F4DDC4F7F4000EF86E0800F550796F8E
:100350007A6B7751792778517A237A5109E10A0E1D
:10036000795DD8A0B6EF81F0B8EF81F08BEF81F026
:100370006100CCF9D9F46100D0F9DAF4DEC4F6F406
:10038000DDC4F7F4000EF86E0800F5500C6F0D6B2D
:10039000EBEC0DF006010C518B6F8B51D8B4D3EF01
:1003A00081F0D5EF81F01FEF82F06100CCF9D9F434
:1003B0006100D0F9DAF4610078F377F6610074F344
:1003C00078F6010E7727000E78236100DCF9F6F449
:1003D0006100E0F9F7F4000EF86E0800F5500C6FBC
:1003E0000D6BEBEC0DF006010C518C6F8C51D8B4F9
:1003F000FCEF81F0FEEF81F01FEF82F06100CCF99D
:10040000D9F46100D0F9DAF4610078F377F661008D
:1004100074F378F6020E7727000E78236100DCF97A
:10042000F6F46100E0F9F7F4000EF86E0800F550FC
:100430000C6F0D6BEBEC0DF006010C518D6F610E26
:100440008B19D8A426EF82F028EF82F079EF82F0A2
:100450006100CCF9D9F46100D0F9DAF4DEC4F6F425
:10046000DDC4F7F4000EF86E08006100D4F39CF6CA
:100470006100CCF9D9F46100D0F9DAF4DE2A000E7B
:10048000DD226100D4F9D9F46100D8F9DAF4610011
:100490007CF377F6040EDE2661007CF378F6000E1E
:1004A000DD226100DCF9D9F46100E0F9DAF46100E1
:1004B00078F398F6610078F399F6610078F39AF68C
:1004C000610078F39BF671C633F672C634F698C6AF
:1004D00035F699C636F69AC637F69BC638F69CC6E8
:1004E00039F61CECC4F033C671F634C672F642EF2E
:1004F00099F08B0E066F060E076FBD0E086FFF0E8C
:10050000096F000E0B6F020E0A6FAFECF2F00601DE
:1005100006510711D8A48FEF82F091EF82F022EFFD
:1005200083F06100CCF9D9F46100D0F9DAF461000C
:1005300078F377F6610074F378F6010E7727000EF2
:1005400078236100DCF9F6F46100E0F9F7F4000EBD
:10055000F86E08006100D4F39CF6BF0E776FFF0EB3
:10056000786F6100CCF9D9F46100D0F9DAF4DEC417
:10057000F6F4DDC4F7F4000EF86E0800F550796F5C
:100580007A6B7751792778517A237A5107E11A0EDD
:10059000795DD8B0CEEF82F0D0EF82F0F4EF82F048
:1005A0006100D4F9D9F46100D8F9DAF461007CF380
:1005B00077F6040EDE2661007CF378F6000EDD226D
:1005C0006100DCF9D9F46100E0F9DAF4610078F354
:1005D00098F6610078F399F6610078F39AF6610075
:1005E00078F39BF616EF83F06100D4F9D9F461003B
:1005F000D8F9DAF461007CF377F6040EDE266100A8
:100600007CF378F6000EDD226100DCF9D9F461009C
:10061000E0F9DAF4610078F398F6610078F399F67E
:10062000610078F39AF6610078F39BF6020E6100A0
:10063000CCF9D9F46100D0F9DAF4DE26000EDD221F
:1006400063EF82F06100CCF9D9F46100D0F9DAF4FB
:10065000DEC4F6F4DDC4F7F4000EF86E0800F550C1
:10066000630AD8A436EF83F038EF83F067EF83F0A6
:100670006100CCF9D9F46100D0F9DAF4DE2A000E79
:10068000DD226100D4F9D9F46100D8F9DAF461000F
:100690007CF377F6020EDE2661007CF378F6000E1E
:1006A000DD226100DCF9D9F46100E0F9DAF4DF5011
:1006B0009C6F71C611F672C612F69CC613F634EC26
:1006C000FBF011C671F612C672F642EF99F06100A6
:1006D000CCF9D9F46100D0F9DAF4610078F306F6C8
:1006E000610074F307F6780E086FFF0E096F000EB5
:1006F0000B6F030E0A6FAFECF2F006010651071103
:10070000D8B485EF83F087EF83F0A7EF83F0610023
:10071000CCF9D9F46100D0F9DAF4610078F306F687
:10072000610074F307F6840E086FFF0E096F000E68
:100730000B6F030E0A6FAFECF2F0060106510711C2
:10074000D8A4A5EF83F0A7EF83F0EFEF83F0030EBB
:100750006100CCF9D9F46100D0F9DAF4DE26000E9C
:10076000DD226100D4F9D9F46100D8F9DAF461002E
:100770007CF377F6020EDE2661007CF378F6000E3D
:10078000DD226100DCF9D9F46100E0F9DAF4DF5030
:100790008E6F000E8EBFFF0E8F6F906F916F926FF6
:1007A000936F946F956F71C623F672C624F68EC64A
:1007B00025F68FC626F690C627F691C628F692C66D
:1007C00029F693C62AF694C62BF695C62CF6ECECC1
:1007D000DBF023C671F624C672F642EF99F0610091
:1007E000CCF9D9F46100D0F9DAF4610078F306F6B7
:1007F000610074F307F6790E086FFF0E096F000EA3
:100800000B6F020E0A6FAFECF2F0060106510711F2
:10081000D8B40DEF84F00FEF84F02FEF84F0610077
:10082000CCF9D9F46100D0F9DAF4610078F306F676
:10083000610074F307F6850E086FFF0E096F000E56
:100840000B6F020E0A6FAFECF2F0060106510711B2
:10085000D8A42DEF84F02FEF84F060EF84F0020E27
:100860006100CCF9D9F46100D0F9DAF4DE26000E8B
:10087000DD226100D4F9D9F46100D8F9DAF461001D
:100880007CF377F6020EDE2661007CF378F6000E2C
:10089000DD226100DCF9D9F46100E0F9DAF46100ED
:1008A00078F38EF6610074F38FF6000E8FBFFF0EA3
:1008B000906F916F926F936F946F956FD3EF83F0FA
:1008C0006100CCF9D9F46100D0F9DAF4DEC4F6F4B1
:1008D000DDC4F7F4000EF86E0800F550640AD8B4D1
:1008E00074EF84F076EF84F08CEF84F06100CCF943
:1008F000D9F46100D0F9DAF4DEC4F6F4DDC4F7F41B
:10090000000EF86E0800F550690AD8A48AEF84F04A
:100910008CEF84F0BCEF84F06100CCF9D9F4610075
:10092000D0F9DAF4DE2A000EDD226100D4F9D9F420
:100930006100D8F9DAF461007CF377F6020EDE2666
:1009400061007CF378F6000EDD226100DCF9D9F459
:100950006100E0F9DAF4610078F38EF6610074F377
:100960008FF6000E8FBFFF0E906F916F926F936F97
:10097000946F956FD3EF83F06100CCF9D9F46100E7
:10098000D0F9DAF4610078F306F6610074F307F643
:100990007D0E086FFF0E096F000E0B6F020E0A6FBF
:1009A000AFECF2F0060106510711D8B4DAEF84F08B
:1009B000DCEF84F0FCEF84F06100CCF9D9F4610045
:1009C000D0F9DAF4610078F306F6610074F307F603
:1009D000890E086FFF0E096F000E0B6F020E0A6F73
:1009E000AFECF2F0060106510711D8A4FAEF84F03B
:1009F000FCEF84F04BEF85F0020E6100CCF9D9F4E6
:100A00006100D0F9DAF4DE26000EDD226100D4F9AF
:100A1000D9F46100D8F9DAF461007CF377F6040EBA
:100A2000DE2661007CF378F6000EDD226100DCF941
:100A3000D9F46100E0F9DAF4610078F379F6610045
:100A400078F37AF6610078F37BF6610078F37CF650
:100A500079C67DF67AC67EF67BC67FF67CC680F6C2
:100A6000816B80BF816981C682F681C683F681C6AB
:100A700084F67DC68EF67EC68FF67FC690F680C65B
:100A800091F681C692F682C693F683C694F684C622
:100A900095F6D3EF83F06100CCF9D9F46100D0F979
:100AA000DAF4610078F306F6610074F307F67C0E61
:100AB000086FFF0E096F000E0B6F030E0A6FAFEC8D
:100AC000F2F0060106510711D8B469EF85F06BEF1B
:100AD00085F08BEF85F06100CCF9D9F46100D0F995
:100AE000DAF4610078F306F6610074F307F6880E15
:100AF000086FFF0E096F000E0B6F030E0A6FAFEC4D
:100B0000F2F0060106510711D8A489EF85F08BEFAA
:100B100085F0D5EF85F0030E6100CCF9D9F46100C2
:100B2000D0F9DAF4DE26000EDD226100D4F9D9F422
:100B30006100D8F9DAF461007CF377F6080EDE265E
:100B400061007CF378F6000EDD226100DCF9D9F457
:100B50006100E0F9DAF4610078F379F6610078F386
:100B60007AF6610078F37BF6610078F37CF6610039
:100B700078F37DF6610078F37EF6610078F37FF616
:100B8000610078F380F679C68EF67AC68FF67BC65A
:100B900090F67CC691F67DC692F67EC693F67FC629
:100BA00094F680C695F6D3EF83F06100CCF9D9F4C2
:100BB0006100D0F9DAF4610078F306F6610074F3AD
:100BC00007F6C00E086FFF0E096F000E0B6F020EC6
:100BD0000A6FAFECF2F0060106510711D8B4F3EF3B
:100BE00085F0F5EF85F015EF86F06100CCF9D9F4CA
:100BF0006100D0F9DAF4610078F306F6610074F36D
:100C000007F6D20E086FFF0E096F000E0B6F020E73
:100C10000A6FAFECF2F0060106510711D8A413EFEA
:100C200086F015EF86F05FEF86F0020E6100CCF9DA
:100C3000D9F46100D0F9DAF4DE26000EDD2261007D
:100C4000D4F9D9F46100D8F9DAF461007CF377F6CD
:100C5000080EDE2661007CF378F6000EDD226100CE
:100C6000DCF9D9F46100E0F9DAF4610078F379F69F
:100C7000610078F37AF6610078F37BF6610078F32F
:100C80007CF6610078F37DF6610078F37EF6610012
:100C900078F37FF6610078F380F679C68EF67AC62F
:100CA0008FF67BC690F67CC691F67DC692F67EC620
:100CB00093F67FC694F680C695F6D3EF83F0610075
:100CC000CCF9D9F46100D0F9DAF4610078F306F6D2
:100CD000610074F307F6C30E086FFF0E096F000E74
:100CE0000B6F020E0A6FAFECF2F00601065107110E
:100CF000D8B47DEF86F07FEF86F09FEF86F061003D
:100D0000CCF9D9F46100D0F9DAF4610078F306F691
:100D1000610074F307F6D50E086FFF0E096F000E21
:100D20000B6F020E0A6FAFECF2F0060106510711CD
:100D3000D8A49DEF86F09FEF86F0D0EF86F0020EEC
:100D40006100CCF9D9F46100D0F9DAF4DE26000EA6
:100D5000DD226100D4F9D9F46100D8F9DAF4610038
:100D60007CF377F6020EDE2661007CF378F6000E47
:100D7000DD226100DCF9D9F46100E0F9DAF4610008
:100D800078F38EF6610074F38FF6000E8FBFFF0EBE
:100D9000906F916F926F936F946F956FD3EF83F015
:100DA0006100CCF9D9F46100D0F9DAF4610078F38C
:100DB00006F6610074F307F6C60E086FFF0E096FA2
:100DC000000E0B6F020E0A6FAFECF2F00601065137
:100DD0000711D8B4EEEF86F0F0EF86F010EF87F051
:100DE0006100CCF9D9F46100D0F9DAF4610078F34C
:100DF00006F6610074F307F6D80E086FFF0E096F50
:100E0000000E0B6F020E0A6FAFECF2F006010651F6
:100E10000711D8A40EEF87F010EF87F042EF87F0AC
:100E2000020E6100CCF9D9F46100D0F9DAF4DE26C3
:100E3000000EDD226100D4F9D9F46100D8F9DAF4AA
:100E400061007CF377F6020EDE2661007CF378F613
:100E5000000EDD226100DCF9D9F46100E0F9DAF47A
:100E6000610078F379F6610074F37AF679C68EF64C
:100E70007AC68FF6906B916B926B936B946B956BBC
:100E8000D3EF83F0650E8B19D8A449EF87F04BEFB1
:100E900087F09CEF87F06100CCF9D9F46100D0F9BC
:100EA000DAF4DEC4F6F4DDC4F7F4000EF86E0800E0
:100EB0006100D4F39CF66100CCF9D9F46100D0F95B
:100EC000DAF4DE2A000EDD226100D4F9D9F46100E3
:100ED000D8F9DAF461007CF377F6040EDE266100BF
:100EE0007CF378F6000EDD226100DCF9D9F46100B4
:100EF000E0F9DAF4610078F398F6610078F399F696
:100F0000610078F39AF6610078F39BF671C633F6C8
:100F100072C634F698C635F699C636F69AC637F6CE
:100F20009BC638F69CC639F692ECB8F033C671F61B
:100F300034C672F642EF99F08B0E066F060E076FFD
:100F4000C90E086FFF0E096F000E0B6F020E0A6FBD
:100F5000AFECF2F0060106510711D8A4B2EF87F00A
:100F6000B4EF87F045EF88F06100CCF9D9F4610067
:100F7000D0F9DAF4610078F377F6610074F378F66B
:100F8000010E7727000E78236100DCF9F6F461008A
:100F9000E0F9F7F4000EF86E08006100D4F39CF657
:100FA000BF0E776FFF0E786F6100CCF9D9F4610046
:100FB000D0F9DAF4DEC4F6F4DDC4F7F4000EF86E0E
:100FC0000800F550796F7A6B7751792778517A2339
:100FD0007A5107E11A0E795DD8B0F1EF87F0F3EF9F
:100FE00087F017EF88F06100D4F9D9F46100D8F9DF
:100FF000DAF461007CF377F6040EDE2661007CF300
:1010000078F6000EDD226100DCF9D9F46100E0F928
:10101000DAF4610078F398F6610078F399F66100EC
:1010200078F39AF6610078F39BF639EF88F0610067
:10103000D4F9D9F46100D8F9DAF461007CF377F6D9
:10104000040EDE2661007CF378F6000EDD226100DE
:10105000DCF9D9F46100E0F9DAF4610078F398F68C
:10106000610078F399F6610078F39AF6610078F3FD
:101070009BF6020E6100CCF9D9F46100D0F9DAF4E4
:10108000DE26000EDD2286EF87F0660E8B19D8A4CF
:101090004CEF88F04EEF88F08BEF88F06100CCF9D0
:1010A000D9F46100D0F9DAF4DEC4F6F4DDC4F7F463
:1010B000000EF86E08006100D4F39CF66100CCF9D4
:1010C000D9F46100D0F9DAF4DE2A000EDD226100E5
:1010D000D4F9D9F46100D8F9DAF461007CF377F639
:1010E000040EDE2661007CF378F6000EDD2261003E
:1010F000DCF9D9F46100E0F9DAF4610078F398F6EC
:10110000610078F399F6610078F39AF6610078F35C
:101110009BF686EF87F08B0E066F060E076FCC0EE0
:10112000086FFF0E096F000E0B6F020E0A6FAFEC17
:10113000F2F0060106510711D8A4A1EF88F0A3EF41
:1011400088F02AEF89F06100CCF9D9F46100D0F978
:10115000DAF4610078F377F6610074F378F6010E43
:101160007727000E78236100DCF9F6F46100E0F9DE
:10117000F7F4000EF86E08006100D4F39CF6BF0E81
:10118000776FFF0E786F6100CCF9D9F46100D0F968
:10119000DAF4DEC4F6F4DDC4F7F4000EF86E0800ED
:1011A000F550796F7A6B7751792778517A237A5194
:1011B00007E11A0E795DD8B0E0EF88F0E2EF88F031
:1011C00006EF89F06100D4F9D9F46100D8F9DAF4B6
:1011D00061007CF377F6040EDE2661007CF378F67E
:1011E000000EDD226100DCF9D9F46100E0F9DAF4E7
:1011F000610078F398F6610078F399F6610078F36E
:101200009AF6610078F39BF639EF88F06100D4F923
:10121000D9F46100D8F9DAF461007CF377F6040EB2
:10122000DE2661007CF378F6000EDD226100DCF939
:10123000D9F46100E0F9DAF4610078F398F661001E
:1012400078F399F6610078F39AF6610078F39BF6EB
:1012500039EF88F0670E8B19D8A431EF89F033EF9E
:1012600089F070EF89F06100CCF9D9F46100D0F910
:10127000DAF4DEC4F6F4DDC4F7F4000EF86E08000C
:101280006100D4F39CF66100CCF9D9F46100D0F987
:10129000DAF4DE2A000EDD226100D4F9D9F461000F
:1012A000D8F9DAF461007CF377F6040EDE266100EB
:1012B0007CF378F6000EDD226100DCF9D9F46100E0
:1012C000E0F9DAF4610078F398F6610078F399F6C2
:1012D000610078F39AF6610078F39BF686EF87F069
:1012E0008B0E066F060E076FCF0E086FFF0E096F8D
:1012F000000E0B6F020E0A6FAFECF2F00601065102
:101300000711D8A486EF89F088EF89F00FEF8AF0F3
:101310006100CCF9D9F46100D0F9DAF4610078F316
:1013200077F6610074F378F6010E7727000E7823C4
:101330006100DCF9F6F46100E0F9F7F4000EF86EF4
:1013400008006100D4F39CF6BF0E776FFF0E786F34
:101350006100CCF9D9F46100D0F9DAF4DEC4F6F416
:10136000DDC4F7F4000EF86E0800F550796F7A6B63
:101370007751792778517A237A5107E11A0E795DEE
:10138000D8B0C5EF89F0C7EF89F0EBEF89F06100C5
:10139000D4F9D9F46100D8F9DAF461007CF377F676
:1013A000040EDE2661007CF378F6000EDD2261007B
:1013B000DCF9D9F46100E0F9DAF4610078F398F629
:1013C000610078F399F6610078F39AF6610078F39A
:1013D0009BF639EF88F06100D4F9D9F46100D8F9AF
:1013E000DAF461007CF377F6040EDE2661007CF30C
:1013F00078F6000EDD226100DCF9D9F46100E0F935
:10140000DAF4610078F398F6610078F399F66100F8
:1014100078F39AF6610078F39BF639EF88F0610073
:10142000CCF9D9F46100D0F9DAF4610078F306F66A
:10143000610074F307F6980E086FFF0E096F000E37
:101440000B6F030E0A6FAFECF2F0060106510711A5
:10145000D8A42DEF8AF02FEF8AF076EF8AF0030EF2
:101460006100CCF9D9F46100D0F9DAF4DE26000E7F
:10147000DD226100D4F9D9F46100D8F9DAF4610011
:101480007CF377F6020EDE2661007CF378F6000E20
:10149000DD226100DCF9D9F46100E0F9DAF4DF5013
:1014A000796F79519D6F9E6B9F6BA06BA16BA26B47
:1014B000A36BA46B71C623F672C624F69DC625F6EF
:1014C0009EC626F69FC627F6A0C628F6A1C629F610
:1014D000A2C62AF6A3C62BF6A4C62CF6D8ECE9F0D1
:1014E00023C671F624C672F642EF99F06100CCF97A
:1014F000D9F46100D0F9DAF4610078F306F66100FE
:1015000074F307F6990E086FFF0E096F000E0B6F4C
:10151000020E0A6FAFECF2F0060106510711D8A4D3
:1015200094EF8AF096EF8AF0C8EF8AF0020E61001D
:10153000CCF9D9F46100D0F9DAF4DE26000EDD2210
:101540006100D4F9D9F46100D8F9DAF461007CF3D0
:1015500077F6020EDE2661007CF378F6000EDD22BF
:101560006100DCF9D9F46100E0F9DAF4610078F3A4
:1015700079F6610074F37AF679C69DF67AC69EF61E
:101580009F6BA06BA16BA26BA36BA46B5AEF8AF04D
:101590006100CCF9D9F46100D0F9DAF4DEC4F6F4D4
:1015A000DDC4F7F4000EF86E0800F5506F0AD8A4F9
:1015B000DCEF8AF0DEEF8AF00FEF8BF06100CCF900
:1015C000D9F46100D0F9DAF4DE2A000EDD226100E0
:1015D000D4F9D9F46100D8F9DAF461007CF377F634
:1015E000020EDE2661007CF378F6000EDD2261003B
:1015F000DCF9D9F46100E0F9DAF4610078F379F606
:10160000610074F37AF679C69DF67AC69EF69F6BF2
:10161000A06BA16BA26BA36BA46B5AEF8AF0610065
:10162000CCF9D9F46100D0F9DAF4610078F306F668
:10163000610074F307F69D0E086FFF0E096F000E30
:101640000B6F020E0A6FAFECF2F0060106510711A4
:10165000D8A42DEF8BF02FEF8BF069EF8BF0020EFB
:101660006100CCF9D9F46100D0F9DAF4DE26000E7D
:10167000DD226100D4F9D9F46100D8F9DAF461000F
:101680007CF377F6040EDE2661007CF378F6000E1C
:10169000DD226100DCF9D9F46100E0F9DAF46100DF
:1016A00078F379F6610078F37AF6610078F37BF6E7
:1016B000610078F37CF679519D6F7A519E6F7B5172
:1016C0009F6F7C51A06FA16BA26BA36BA46B5AEFB1
:1016D0008AF06100CCF9D9F46100D0F9DAF4610044
:1016E00078F306F6610074F307F69C0E086FFF0EA0
:1016F000096F000E0B6F030E0A6FAFECF2F00601DC
:1017000006510711D8A487EF8BF089EF8BF0D3EF48
:101710008BF0030E6100CCF9D9F46100D0F9DAF452
:10172000DE26000EDD226100D4F9D9F46100D8F97B
:10173000DAF461007CF377F6080EDE2661007CF3B4
:1017400078F6000EDD226100DCF9D9F46100E0F9E1
:10175000DAF4610078F379F6610078F37AF66100E3
:1017600078F37BF6610078F37CF6610078F37DF620
:10177000610078F37EF6610078F37FF6610078F31C
:1017800080F679C69DF67AC69EF67BC69FF67CC625
:10179000A0F67DC6A1F67EC6A2F67FC6A3F680C6D9
:1017A000A4F65AEF8AF06100CCF9D9F46100D0F9BF
:1017B000DAF4610078F306F6610074F307F6E40EDC
:1017C000086FFF0E096F000E0B6F020E0A6FAFEC71
:1017D000F2F0060106510711D8A4F1EF8BF0F3EFF8
:1017E0008BF03DEF8CF0020E6100CCF9D9F4610072
:1017F000D0F9DAF4DE26000EDD226100D4F9D9F446
:101800006100D8F9DAF461007CF377F6080EDE2681
:1018100061007CF378F6000EDD226100DCF9D9F47A
:101820006100E0F9DAF4610078F379F6610078F3A9
:101830007AF6610078F37BF6610078F37CF661005C
:1018400078F37DF6610078F37EF6610078F37FF639
:10185000610078F380F679C69DF67AC69EF67BC65F
:101860009FF67CC6A0F67DC6A1F67EC6A2F67FC610
:10187000A3F680C6A4F65AEF8AF06100CCF9D9F439
:101880006100D0F9DAF4610078F306F6610074F3D0
:1018900007F6E70E086FFF0E096F000E0B6F020EC2
:1018A0000A6FAFECF2F0060106510711D8A45BEF06
:1018B0008CF05DEF8CF08EEF8CF0020E6100CCF9B5
:1018C000D9F46100D0F9DAF4DE26000EDD226100E1
:1018D000D4F9D9F46100D8F9DAF461007CF377F631
:1018E000020EDE2661007CF378F6000EDD22610038
:1018F000DCF9D9F46100E0F9DAF4610078F39DF6DF
:10190000610074F39EF6000E9EBFFF0E9F6FA06FE6
:10191000A16FA26FA36FA46F5AEF8AF06100CCF998
:10192000D9F46100D0F9DAF4610078F306F66100C9
:1019300074F307F6EA0E086FFF0E096F000E0B6FC7
:10194000020E0A6FAFECF2F0060106510711D8A49F
:10195000ACEF8CF0AEEF8CF0E0EF8CF0020E61009B
:10196000CCF9D9F46100D0F9DAF4DE26000EDD22DC
:101970006100D4F9D9F46100D8F9DAF461007CF39C
:1019800077F6020EDE2661007CF378F6000EDD228B
:101990006100DCF9D9F46100E0F9DAF4610078F370
:1019A00079F6610074F37AF679C69DF67AC69EF6EA
:1019B0009F6BA06BA16BA26BA36BA46B5AEF8AF019
:1019C0006100CCF9D9F46100D0F9DAF4610078F360
:1019D00006F6610074F307F6900E086FFF0E096FAC
:1019E000000E0B6F030E0A6FAFECF2F0060106510A
:1019F0000711D8A4FEEF8CF000EF8DF044EF8DF0CE
:101A0000030E6100CCF9D9F46100D0F9DAF4DE26D6
:101A1000000EDD226100D4F9D9F46100D8F9DAF4BE
:101A200061007CF377F6020EDE2661007CF378F627
:101A3000000EDD226100DCF9D9F46100E0F9DAF48E
:101A4000610078F396F6610074F397F6610058FA36
:101A5000F6F461005CFAF7F4000EF86E240EF764F9
:101A600005D0610074FBF5F40C0007D0F6C4E9F46E
:101A7000F7C4EAF4610074FBEFF4000E0601726F24
:101A8000000E716F42EF99F06100CCF9D9F461005A
:101A9000D0F9DAF4610078F306F6610074F307F622
:101AA000910E086FFF0E096F000E0B6F020E0A6F8A
:101AB000AFECF2F0060106510711D8A462EF8DF0E9
:101AC00064EF8DF0AAEF8DF0020E6100CCF9D9F42D
:101AD0006100D0F9DAF4DE26000EDD226100D4F9CF
:101AE000D9F46100D8F9DAF461007CF377F6020EDC
:101AF000DE2661007CF378F6000EDD226100DCF961
:101B0000D9F46100E0F9DAF4610078F396F6610047
:101B100074F397F6610058FAF6F461005CFAF7F492
:101B2000000EF86E240EF76409D0610074FBF5F422
:101B30000D00610078FBF5F40C000AD0F6C4E9F45E
:101B4000F7C4EAF4610074FBEEF4610078FBEFF493
:101B50003DEF8DF06100CCF9D9F46100D0F9DAF4F1
:101B6000DEC4F6F4DDC4F7F4000EF86E0800F5509C
:101B70006E0AD8A4BEEF8DF0C0EF8DF005EF8EF0A9
:101B80006100CCF9D9F46100D0F9DAF4DE2A000E54
:101B9000DD226100D4F9D9F46100D8F9DAF46100EA
:101BA0007CF377F6020EDE2661007CF378F6000EF9
:101BB000DD226100DCF9D9F46100E0F9DAF46100BA
:101BC00078F396F6610074F397F6610058FAF6F42C
:101BD00061005CFAF7F4000EF86E240EF76409D089
:101BE000610074FBF5F40D00610078FBF5F40C0066
:101BF0000AD0F6C4E9F4F7C4EAF4610074FBEEF429
:101C0000610078FBEFF43DEF8DF06100CCF9D9F481
:101C10006100D0F9DAF4610078F306F6610074F33C
:101C200007F6950E086FFF0E096F000E0B6F020E80
:101C30000A6FAFECF2F0060106510711D8A423EFAA
:101C40008EF025EF8EF082EF8EF0020E6100CCF95F
:101C5000D9F46100D0F9DAF4DE26000EDD2261004D
:101C6000D4F9D9F46100D8F9DAF461007CF377F69D
:101C7000020EDE2661007CF378F6000EDD226100A4
:101C8000DCF9D9F46100E0F9DAF4610078F396F652
:101C9000610074F397F6DDC677F6DEC678F6000EBF
:101CA00078BFFF0E796F7A6F610058FAF6F4610021
:101CB0005CFAF7F4000EF86E240EF76411D06100A0
:101CC000DCF9F5F40D006100E0F9F5F40D006100B8
:101CD000E4F9F5F40D006100E8F9F5F40C0010D01A
:101CE000F6C4E9F4F7C4EAF46100DCF9EEF461004B
:101CF000E0F9EEF46100E4F9EEF46100E8F9EFF4E4
:101D00003DEF8DF06100CCF9D9F46100D0F9DAF43F
:101D1000610078F306F6610074F307F6940E086F1D
:101D2000FF0E096F000E0B6F030E0A6FAFECF2F09F
:101D3000060106510711D8A4A0EF8EF0A2EF8EF095
:101D40001FEF8FF0030E6100CCF9D9F46100D0F9D8
:101D5000DAF4DE26000EDD226100D4F9D9F4610048
:101D6000D8F9DAF461007CF377F6020EDE26610022
:101D70007CF378F6000EDD226100DCF9D9F4610015
:101D8000E0F9DAF4610078F396F6610074F397F6FF
:101D9000DDC677F6DEC678F6000E78BFFF0E796FE7
:101DA0007A6F7B6F7C6F7D6F7E6F610058FAF6F4FF
:101DB00061005CFAF7F4000EF86E240EF76421D08F
:101DC0006100DCF9F5F40D006100E0F9F5F40D00B7
:101DD0006100E4F9F5F40D006100E8F9F5F40D0097
:101DE0006100ECF9F5F40D006100F0F9F5F40D0077
:101DF0006100F4F9F5F40D006100F8F9F5F40C0058
:101E00001CD0F6C4E9F4F7C4EAF46100DCF9EEF49E
:101E10006100E0F9EEF46100E4F9EEF46100E8F944
:101E2000EEF46100ECF9EEF46100F0F9EEF461001B
:101E3000F4F9EEF46100F8F9EFF43DEF8DF0610094
:101E4000CCF9D9F46100D0F9DAF4610078F306F640
:101E5000610074F307F6DB0E086FFF0E096F000ECA
:101E60000B6F020E0A6FAFECF2F00601065107117C
:101E7000D8A43DEF8FF03FEF8FF0BCEF8FF0020E54
:101E80006100CCF9D9F46100D0F9DAF4DE26000E55
:101E9000DD226100D4F9D9F46100D8F9DAF46100E7
:101EA0007CF377F6020EDE2661007CF378F6000EF6
:101EB000DD226100DCF9D9F46100E0F9DAF46100B7
:101EC00078F396F6610074F397F6DDC677F6DEC612
:101ED00078F6000E78BFFF0E796F7A6F7B6F7C6F9C
:101EE0007D6F7E6F610058FAF6F461005CFAF7F4DA
:101EF000000EF86E240EF76421D06100DCF9F5F4D1
:101F00000D006100E0F9F5F40D006100E4F9F5F46D
:101F10000D006100E8F9F5F40D006100ECF9F5F44D
:101F20000D006100F0F9F5F40D006100F4F9F5F42D
:101F30000D006100F8F9F5F40C001CD0F6C4E9F4CA
:101F4000F7C4EAF46100DCF9EEF46100E0F9EEF4C4
:101F50006100E4F9EEF46100E8F9EEF46100ECF9F7
:101F6000EEF46100F0F9EEF46100F4F9EEF46100D2
:101F7000F8F9EFF43DEF8DF06100CCF9D9F4610090
:101F8000D0F9DAF4610078F306F6610074F307F62D
:101F9000DE0E086FFF0E096F000E0B6F020E0A6F48
:101FA000AFECF2F0060106510711D8A4DAEF8FF07A
:101FB000DCEF8FF022EF90F0020E6100CCF9D9F443
:101FC0006100D0F9DAF4DE26000EDD226100D4F9DA
:101FD000D9F46100D8F9DAF461007CF377F6020EE7
:101FE000DE2661007CF378F6000EDD226100DCF96C
:101FF000D9F46100E0F9DAF4610078F396F6610053
:1020000074F397F6610058FAF6F461005CFAF7F49D
:10201000000EF86E240EF76409D0610074FBF5F42D
:102020000D00610078FBF5F40C000AD0F6C4E9F469
:10203000F7C4EAF4610074FBEEF4610078FBEFF49E
:102040003DEF8DF06100CCF9D9F46100D0F9DAF4FC
:10205000610078F306F6610074F307F6E10E086F8D
:10206000FF0E096F000E0B6F020E0A6FAFECF2F05D
:10207000060106510711D8A440EF90F042EF90F00E
:1020800088EF90F0020E6100CCF9D9F46100D0F92C
:10209000DAF4DE26000EDD226100D4F9D9F4610005
:1020A000D8F9DAF461007CF377F6020EDE266100DF
:1020B0007CF378F6000EDD226100DCF9D9F46100D2
:1020C000E0F9DAF4610078F396F6610074F397F6BC
:1020D000610058FAF6F461005CFAF7F4000EF86E4D
:1020E000240EF76409D0610074FBF5F40D00610063
:1020F00078FBF5F40C000AD0F6C4E9F4F7C4EAF46E
:10210000610074FBEEF4610078FBEFF43DEF8DF0BD
:102110006100CCF9D9F46100D0F9DAF4DEC4F6F448
:10212000DDC4F7F4000EF86E0800F550700AD8A46C
:102130009CEF90F09EEF90F0EBEF90F06100CCF907
:10214000D9F46100D0F9DAF4DE2A000EDD22610054
:10215000D4F9D9F46100D8F9DAF461007CF377F6A8
:10216000020EDE2661007CF378F6000EDD226100AF
:10217000DCF9D9F46100E0F9DAF4610078F379F67A
:10218000610074F37AF679C69DF67AC69EF69F6B67
:10219000A06BA16BA26BA36BA46B71C623F672C676
:1021A00024F69DC625F69EC626F69FC627F6A0C62F
:1021B00028F6A1C629F6A2C62AF6A3C62BF6A4C6FF
:1021C0002CF6780E2D6FD2ECDEF023C671F624C605
:1021D00072F642EF99F06100CCF9D9F46100D0F9C0
:1021E000DAF4DEC4F6F4DDC4F7F4000EF86E08008D
:1021F000F550730AD8B4FFEF90F001EF91F021EFA2
:1022000091F06100CCF9D9F46100D0F9DAF4610001
:1022100078F306F6610074F307F6A00E086FFF0E60
:10222000096F000E0B6F030E0A6FAFECF2F00601A0
:1022300006510711D8A41FEF91F021EF91F077EF2D
:1022400091F06100CCF9D9F46100D0F9DAF4DEC480
:10225000F6F4DDC4F7F4000EF86E0800F550730ACA
:10226000D8B435EF91F037EF91F03DEF91F0000EDB
:102270008A6F030E896F41EF91F0000E8A6F010E95
:10228000896F6100CCF9D9F46100D0F9DAF4895191
:10229000DE268A51DD226100D4F9D9F46100D8F933
:1022A000DAF461007CF377F6020EDE2661007CF33F
:1022B00078F6000EDD226100DCF9D9F46100E0F966
:1022C000DAF4610078F385F6610074F386F671C67E
:1022D00011F672C612F685C613F686C614F69BEC86
:1022E000ECF011C671F612C672F642EF99F0610079
:1022F000CCF9D9F46100D0F9DAF4610078F306F68C
:10230000610074F307F6A40E086FFF0E096F000E4C
:102310000B6F030E0A6FAFECF2F0060106510711C6
:10232000D8A495EF91F097EF91F0DEEF91F0030EC6
:102330006100CCF9D9F46100D0F9DAF4DE26000EA0
:10234000DD226100D4F9D9F46100D8F9DAF4610032
:102350007CF377F6020EDE2661007CF378F6000E41
:10236000DD226100DCF9D9F46100E0F9DAF4DF5034
:10237000796F79519D6F9E6B9F6BA06BA16BA26B68
:10238000A36BA46B71C623F672C624F69DC625F610
:102390009EC626F69FC627F6A0C628F6A1C629F631
:1023A000A2C62AF6A3C62BF6A4C62CF6E0ECE5F0EE
:1023B00023C671F624C672F642EF99F06100CCF99B
:1023C000D9F46100D0F9DAF4610078F306F661001F
:1023D00074F307F6A50E086FFF0E096F000E0B6F62
:1023E000020E0A6FAFECF2F0060106510711D8A4F5
:1023F000FCEF91F0FEEF91F030EF92F0020E6100F1
:10240000CCF9D9F46100D0F9DAF4DE26000EDD2231
:102410006100D4F9D9F46100D8F9DAF461007CF3F1
:1024200077F6020EDE2661007CF378F6000EDD22E0
:102430006100DCF9D9F46100E0F9DAF4610078F3C5
:1024400079F6610074F37AF679C69DF67AC69EF63F
:102450009F6BA06BA16BA26BA36BA46BC2EF91F0FF
:102460006100CCF9D9F46100D0F9DAF4DEC4F6F4F5
:10247000DDC4F7F4000EF86E0800F550750AD8A414
:1024800044EF92F046EF92F077EF92F06100CCF9D2
:10249000D9F46100D0F9DAF4DE2A000EDD22610001
:1024A000D4F9D9F46100D8F9DAF461007CF377F655
:1024B000020EDE2661007CF378F6000EDD2261005C
:1024C000DCF9D9F46100E0F9DAF4610078F379F627
:1024D000610074F37AF679C69DF67AC69EF69F6B14
:1024E000A06BA16BA26BA36BA46BC2EF91F0610018
:1024F000CCF9D9F46100D0F9DAF4610078F306F68A
:10250000610074F307F6A90E086FFF0E096F000E45
:102510000B6F020E0A6FAFECF2F0060106510711C5
:10252000D8A495EF92F097EF92F0D1EF92F0020ECF
:102530006100CCF9D9F46100D0F9DAF4DE26000E9E
:10254000DD226100D4F9D9F46100D8F9DAF4610030
:102550007CF377F6040EDE2661007CF378F6000E3D
:10256000DD226100DCF9D9F46100E0F9DAF4610000
:1025700078F379F6610078F37AF6610078F37BF608
:10258000610078F37CF679519D6F7A519E6F7B5193
:102590009F6F7C51A06FA16BA26BA36BA46BC2EF6A
:1025A00091F06100CCF9D9F46100D0F9DAF461005E
:1025B00078F306F6610074F307F6A80E086FFF0EB5
:1025C000096F000E0B6F030E0A6FAFECF2F00601FD
:1025D00006510711D8A4EFEF92F0F1EF92F03BEF24
:1025E00093F0030E6100CCF9D9F46100D0F9DAF46C
:1025F000DE26000EDD226100D4F9D9F46100D8F99D
:10260000DAF461007CF377F6080EDE2661007CF3D5
:1026100078F6000EDD226100DCF9D9F46100E0F902
:10262000DAF4610078F379F6610078F37AF6610004
:1026300078F37BF6610078F37CF6610078F37DF641
:10264000610078F37EF6610078F37FF6610078F33D
:1026500080F679C69DF67AC69EF67BC69FF67CC646
:10266000A0F67DC6A1F67EC6A2F67FC6A3F680C6FA
:10267000A4F6C2EF91F06100CCF9D9F46100D0F971
:10268000DAF4610078F306F6610074F307F6ED0EF4
:10269000086FFF0E096F000E0B6F020E0A6FAFEC92
:1026A000F2F0060106510711D8A459EF93F05BEF41
:1026B00093F0A5EF93F0020E6100CCF9D9F461001C
:1026C000D0F9DAF4DE26000EDD226100D4F9D9F467
:1026D0006100D8F9DAF461007CF377F6080EDE26A3
:1026E00061007CF378F6000EDD226100DCF9D9F49C
:1026F0006100E0F9DAF4610078F379F6610078F3CB
:102700007AF6610078F37BF6610078F37CF661007D
:1027100078F37DF6610078F37EF6610078F37FF65A
:10272000610078F380F679C69DF67AC69EF67BC680
:102730009FF67CC6A0F67DC6A1F67EC6A2F67FC631
:10274000A3F680C6A4F6C2EF91F06100CCF9D9F4EB
:102750006100D0F9DAF4610078F306F6610074F3F1
:1027600007F6F00E086FFF0E096F000E0B6F020EDA
:102770000A6FAFECF2F0060106510711D8A4C3EFBF
:1027800093F0C5EF93F0F6EF93F0020E6100CCF9F1
:10279000D9F46100D0F9DAF4DE26000EDD22610002
:1027A000D4F9D9F46100D8F9DAF461007CF377F652
:1027B000020EDE2661007CF378F6000EDD22610059
:1027C000DCF9D9F46100E0F9DAF4610078F39DF600
:1027D000610074F39EF6000E9EBFFF0E9F6FA06F08
:1027E000A16FA26FA36FA46FC2EF91F06100CCF94B
:1027F000D9F46100D0F9DAF4610078F306F66100EB
:1028000074F307F6F30E086FFF0E096F000E0B6FDF
:10281000020E0A6FAFECF2F0060106510711D8A4C0
:1028200014EF94F016EF94F048EF94F0020E61006C
:10283000CCF9D9F46100D0F9DAF4DE26000EDD22FD
:102840006100D4F9D9F46100D8F9DAF461007CF3BD
:1028500077F6020EDE2661007CF378F6000EDD22AC
:102860006100DCF9D9F46100E0F9DAF4610078F391
:1028700079F6610074F37AF679C69DF67AC69EF60B
:102880009F6BA06BA16BA26BA36BA46BC2EF91F0CB
:102890006100CCF9D9F46100D0F9DAF4610078F381
:1028A00006F6610074F307F6AC0E086FFF0E096FB1
:1028B000000E0B6F030E0A6FAFECF2F0060106512B
:1028C0000711D8B466EF94F068EF94F088EF94F0B5
:1028D0006100CCF9D9F46100D0F9DAF4610078F341
:1028E00006F6610074F307F6700E086FFF0E096FAD
:1028F000000E0B6F030E0A6FAFECF2F006010651EB
:102900000711D8A486EF94F088EF94F0EDEF94F0DF
:102910006100CCF9D9F46100D0F9DAF4610078F300
:1029200077F6610074F378F6020E7727000E7823AD
:102930006100DCF9F6F46100E0F9F7F4000EF86EDE
:1029400008006100D4F39CF6030E6100CCF9D9F4C1
:102950006100D0F9DAF4DE26000EDD226100D4F940
:10296000D9F46100D8F9DAF461007CF377F6020E4D
:10297000DE2661007CF378F6000EDD226100DCF9D2
:10298000D9F46100E0F9DAF4DF50796F79519D6F85
:102990009E6B9F6BA06BA16BA26BA36BA46B71C6AC
:1029A00023F672C624F69DC625F69EC626F69FC659
:1029B00027F6A0C628F6A1C629F6A2C62AF6A3C6FF
:1029C0002BF6A4C62CF69CC62DF6D2ECDEF023C660
:1029D00071F624C672F642EF99F06100CCF9D9F491
:1029E0006100D0F9DAF4610078F306F6610074F35F
:1029F00007F6AD0E086FFF0E096F000E0B6F020E8B
:102A00000A6FAFECF2F0060106510711D8B40BEFD4
:102A100095F00DEF95F02DEF95F06100CCF9D9F41C
:102A20006100D0F9DAF4610078F306F6610074F31E
:102A300007F6710E086FFF0E096F000E0B6F020E86
:102A40000A6FAFECF2F0060106510711D8A42BEF84
:102A500095F02DEF95F07BEF95F06100CCF9D9F46E
:102A60006100D0F9DAF4610078F377F6610074F36D
:102A700078F6010E7727000E78236100DCF9F6F472
:102A80006100E0F9F7F4000EF86E08006100D4F37D
:102A90009CF6020E6100CCF9D9F46100D0F9DAF4A9
:102AA000DE26000EDD226100D4F9D9F46100D8F9E8
:102AB000DAF461007CF377F6020EDE2661007CF327
